:020000040800F2
:1040000000000120CDAB00089DAA00089FAA00086F
:10401000A1AA0008A3AA0008A5AA000800000000A1
:10402000000000000000000000000000A7AA000837
:10403000A9AA000800000000ABAA0008ADAA000869
:104040001DAC00081DAC00081DAC00081DAC00082C
:104050001DAC00081DAC00081DAC00081DAC00081C
:10406000B5AA00081DAC00081DAC00081DAC000876
:104070001DAC00081DAC00081DAC00081DAC0008FC
:104080001DAC00081DAC0008C1AA0008000000001B
:104090000000000000000000000000001DAC00084F
:1040A000D1AA00081DAC00081DAC00081DAC00081A
:1040B000E9AA0008F9AA000809AB00081DAC00082D
:1040C0001DAC00081DAC00081DAC00081DAC0008AC
:1040D0001DAC00081DAC00081DAC0008000000006D
:1040E0001DAC00081DAC00081DAC0008000000005D
:1040F0000000000000000000000000001DAC0008EF
:10410000000000001DAC000819AB00081DAC000841
:10411000000000000000000000000000000000009F
:1041200029AB00081DAC00081DAC00081DAC000840
:104130001DAC0008000000000000000000000000AE
:1041400000000000000000000000000039AB000883
:104150001DAC00081DAC00081DAC00081DAC00081B
:104160001DAC00081DAC00080000000000000000AD
:10417000000000000000000000000000000000003F
:10418000000000001DAC000800000000000000005E
:044190001DAC00085A
:1041980010B5054C237833B9044B13B10448AFF379
:1041A80000800123237010BD2006002000000000BD
:1041B800682C010808B5034B1BB103490348AFF34A
:1041C800008008BD0000000024060020682C0108BB
:1041D80081F0004102E000BF83F0004330B54FEAB0
:1041E80041044FEA430594EA050F08BF90EA020F1D
:1041F8001FBF54EA000C55EA020C7FEA645C7FEAB0
:10420800655C00F0E2804FEA5454D4EB5555B8BFD2
:104218006D420CDD2C4480EA020281EA030382EA43
:10422800000083EA010180EA020281EA0303362DD5
:1042380088BF30BD11F0004F4FEA01314FF4801CA8
:104248004CEA113102D0404261EB410113F0004FBA
:104258004FEA03334CEA133302D0524263EB430371
:1042680094EA050F00F0A780A4F10104D5F1200E0F
:104278000DDB02FA0EFC22FA05F2801841F100016A
:1042880003FA0EF2801843FA05F359410EE0A5F13E
:1042980020050EF1200E012A03FA0EFC28BF4CF06F
:1042A800020C43FA05F3C01851EBE37101F0004525
:1042B80007D54FF0000EDCF1000C7EEB00006EEB32
:1042C8000101B1F5801F1BD3B1F5001F0CD34908BC
:1042D8005FEA30004FEA3C0C04F101044FEA445213
:1042E80012F5800F80F09A80BCF1004F08BF5FEA9A
:1042F800500C50F1000041EB045141EA050130BD7A
:104308005FEA4C0C404141EB0101013C28BFB1F58B
:10431800801FE9D291F0000F04BF01460020B1FAD6
:1043280081F308BF2033A3F10B03B3F120020CDAA9
:104338000C3208DD02F1140CC2F10C0201FA0CF087
:1043480021FA02F10CE002F11402D8BFC2F1200CEC
:1043580001FA02F120FA0CFCDCBF41EA0C019040A2
:10436800E41AA2BF01EB0451294330BD6FEA0404EB
:104378001F3C1CDA0C340EDC04F11404C4F12002D6
:1043880020FA04F001FA02F340EA030021FA04F3E8
:1043980045EA030130BDC4F10C04C4F1200220FA3F
:1043A80002F001FA04F340EA0300294630BD21FA7D
:1043B80004F0294630BD94F0000F83F4801306BF43
:1043C80081F480110134013D4EE77FEA645C18BF37
:1043D8007FEA655C29D094EA050F08BF90EA020FCE
:1043E80005D054EA000C04BF1946104630BD91EAC6
:1043F800030F1EBF0021002030BD5FEA545C05D1C9
:104408004000494128BF41F0004130BD14F5800407
:104418003CBF01F5801130BD01F0004545F0FE417B
:1044280041F470014FF0000030BD7FEA645C1ABFB0
:10443800194610467FEA655C1CBF0B46024650EAE7
:10444800013406BF52EA033591EA030F41F4002113
:1044580030BD00BF90F0000F04BF0021704730B599
:104468004FF4806404F132044FF000054FF000016E
:1044780050E700BF90F0000F04BF0021704730B52F
:104488004FF4806404F1320410F0004548BF404204
:104498004FF000013EE700BF42004FEAE2014FEA59
:1044A80031014FEA02701FBF12F07F4393F07F4F34
:1044B80081F06051704732F07F4208BF704793F037
:1044C8007F4F04BF41F40021704730B54FF460744A
:1044D80001F0004521F000411CE700BF50EA01024D
:1044E80008BF704730B54FF000050AE050EA0102F6
:1044F80008BF704730B511F0004502D5404261EB66
:1045080041014FF4806404F132045FEA915C3FF4A6
:10451800D8AE4FF003025FEADC0C18BF03325FEA43
:10452800DC0C18BF033202EBDC02C2F1200300FAF4
:1045380003FC20FA02F001FA03FE40EA0E0021FA19
:1045480002F11444BDE600BF70B54FF0FF0C4CF407
:10455800E06C1CEA11541DBF1CEA135594EA0C0FB9
:1045680095EA0C0F00F0DEF82C4481EA030621EAF4
:104578004C5123EA4C5350EA013518BF52EA03352F
:1045880041F4801143F4801338D0A0FB02CE4FF0E1
:104598000005E1FB02E506F00042E0FB03E54FF011
:1045A8000006E1FB03569CF0000F18BF4EF0010E09
:1045B800A4F1FF04B6F5007F64F5407404D25FEA05
:1045C8004E0E6D4146EB060642EAC62141EA5551B8
:1045D8004FEAC52040EA5E504FEACE2EB4F1FD0CFA
:1045E80088BFBCF5E06F1ED8BEF1004F08BF5FEA78
:1045F800500E50F1000041EB045170BD06F000462A
:1046080046EA010140EA020081EA0301B4EB5C04D6
:10461800C2BFD4EB0C0541EA045170BD41F48011CE
:104628004FF0000E013C00F3AB8014F1360FDEBFF3
:10463800002001F0004170BDC4F10004203C35DACF
:104648000C341BDC04F11404C4F1200500FA05F352
:1046580020FA04F001FA05F240EA020001F00042F3
:1046680021F0004110EBD37021FA04F642EB060169
:104678005EEA430E08BF20EAD37070BDC4F10C0493
:10468800C4F1200500FA04F320FA05F001FA04F257
:1046980040EA020001F0004110EBD37041F1000143
:1046A8005EEA430E08BF20EAD37070BDC4F120054E
:1046B80000FA05F24EEA020E20FA04F301FA05F2B6
:1046C80043EA020321FA04F001F0004121FA04F25E
:1046D80020EA020000EBD3705EEA430E08BF20EA2E
:1046E800D37070BD94F0000F0FD101F00046400068
:1046F80041EB010111F4801F08BF013CF7D041EAEA
:10470800060195F0000F18BF704703F000465200ED
:1047180043EB030313F4801F08BF013DF7D043EABE
:104728000603704794EA0C0F0CEA135518BF95EA74
:104738000C0F0CD050EA410618BF52EA4306D1D1FB
:1047480081EA030101F000414FF0000070BD50EA1A
:10475800410606BF1046194652EA430619D094EAA4
:104768000C0F02D150EA013613D195EA0C0F05D18E
:1047780052EA03361CBF104619460AD181EA0301E2
:1047880001F0004141F0FE4141F470014FF000009A
:1047980070BD41F0FE4141F4780170BD70B54FF035
:1047A800FF0C4CF4E06C1CEA11541DBF1CEA1355B5
:1047B80094EA0C0F95EA0C0F00F0A7F8A4EB050497
:1047C80081EA030E52EA03354FEA013100F088808E
:1047D8004FEA03334FF0805545EA131343EA126357
:1047E8004FEA022245EA111545EA10654FEA00260C
:1047F8000EF000419D4208BF964244F1FD0404F5C5
:10480800407402D25B084FEA3202B61A65EB030520
:104818005B084FEA32024FF480104FF4002CB6EBDD
:10482800020E75EB030E22BFB61A754640EA0C005D
:104838005B084FEA3202B6EB020E75EB030E22BF9D
:10484800B61A754640EA5C005B084FEA3202B6EBDE
:10485800020E75EB030E22BFB61A754640EA9C009D
:104868005B084FEA3202B6EB020E75EB030E22BF6D
:10487800B61A754640EADC0055EA060E18D04FEA2B
:10488800051545EA16754FEA06164FEAC30343EACB
:1048980052734FEAC2025FEA1C1CC0D111F4801F98
:1048A8000BD141EA00014FF000004FF0004CB6E791
:1048B80011F4801F04BF01430020B4F1FD0C88BF30
:1048C800BCF5E06F3FF6AFAEB5EB030C04BFB6EB3B
:1048D800020C5FEA500C50F1000041EB045170BD2E
:1048E8000EF0004E4EEA113114EB5C04C2BFD4EB5B
:1048F8000C0541EA045170BD41F480114FF0000EDF
:10490800013C90E645EA060E8DE60CEA135594EA5A
:104918000C0F08BF95EA0C0F3FF43BAF94EA0C0F5D
:104928000AD150EA01347FF434AF95EA0C0F7FF4D2
:1049380025AF104619462CE795EA0C0F06D152EA26
:1049480003353FF4FDAE1046194622E750EA41060A
:1049580018BF52EA43067FF4C5AE50EA41047FF41B
:104968000DAF52EA43057FF4EBAE12E74FF0FF3C80
:1049780006E000BF4FF0010C02E000BF4FF0010C51
:104988004DF804CD4FEA410C7FEA6C5C4FEA430CCA
:1049980018BF7FEA6C5C1BD001B050EA410C0CBF19
:1049A80052EA430C91EA030F02BF90EA020F00207B
:1049B800704710F1000F91EA030F58BF994208BFE2
:1049C80090422CBFD8176FEAE37040F0010070479F
:1049D8004FEA410C7FEA6C5C02D150EA013C07D1F6
:1049E8004FEA430C7FEA6C5CD6D152EA033CD3D041
:1049F8005DF8040B704700BF8446104662468C463B
:104A08001946634600E000BF01B5FFF7B7FF00286D
:104A180048BF10F1000F01BD4DF808EDFFF7F4FF96
:104A28000CBF012000205DF808FB00BF4DF808ED21
:104A3800FFF7EAFF34BF012000205DF808FB00BF44
:104A48004DF808EDFFF7E0FF94BF012000205DF866
:104A580008FB00BF4DF808EDFFF7CEFF94BF01201B
:104A680000205DF808FB00BF4DF808EDFFF7C4FF14
:104A780034BF012000205DF808FB00BF4FEA410C5D
:104A88007FEA6C5C02D150EA013C0AD14FEA430C40
:104A98007FEA6C5C02D152EA033C02D14FF000007D
:104AA80070474FF0010070474FEA410212F50012BB
:104AB80015D211D56FF47873B3EB625212D94FEA5D
:104AC800C12343F0004343EA505311F0004F23FA47
:104AD80002F018BF404270474FF00000704750EA9C
:104AE800013005D111F0004008BF6FF00040704759
:104AF8004FF00000704700BF4A0011D212F50012B3
:104B080011D20DD56FF47873B3EB62520ED44FEA1D
:104B1800C12343F0004343EA505323FA02F070479D
:104B28004FF00000704750EA013002D14FF0FF30DB
:104B380070474FF0000070474FEA4102B2F1E0437E
:104B480024BFB3F5001CDCF1FE5C0DD901F0004C6C
:104B58004FEAC0024CEA5070B2F1004F40EB8300BC
:104B680008BF20F00100704711F0804F21D113F1E8
:104B78003872BCBF01F00040704741F480114FEA21
:104B88005252C2F11802C2F1200C10FA0CF320FAAA
:104B980002F018BF40F001004FEAC1234FEAD323C7
:104BA80003FA0CFC40EA0C0023FA02F34FEA430331
:104BB800CCE77FEA625307D150EA01331EBF4FF0BA
:104BC800FE4040F44000704701F0004040F0FE40D5
:104BD80040F40000704700BF53B94AB9002908BF24
:104BE80000281CBF4FF0FF314FF0FF3000F06EB9C6
:104BF800ADF1080C6DE904CE00F006F8DDF804E02C
:104C0800DDE9022304B070472DE9F047089D04460A
:104C18008C46002B40F083808A42174647D9B2FA67
:104C280082F242B1C2F1200024FA00F0914097408C
:104C380040EA010C94404FEA1748230CBCFBF8F6F5
:104C48001FFA87FE08FB16C143EA014306FB0EF173
:104C5800994209D9FB1806F1FF3080F01981994271
:104C680040F21681023E3B445B1AA4B2B3FBF8F053
:104C780008FB103344EA034400FB0EFEA64509D99D
:104C88003C1900F1FF3380F00581A64540F202810E
:104C980002383C4440EA0640A4EB0E0400261DB14D
:104CA800D4400023C5E900433146BDE8F08702B986
:104CB800FFDEB2FA82F2002A50D1CB1B4FEA174E20
:104CC8001FFA87F80126B3FBFEFC210C0EFB1C33F0
:104CD80041EA034108FB0CF38B4207D979180CF120
:104CE800FF3002D28B4200F2E9808446C91AA3B28F
:104CF800B1FBFEF00EFB101143EA014408FB00F87B
:104D0800A04507D93C1900F1FF3302D2A04500F2B3
:104D1800D9801846A4EB080440EA0C40BFE78B4250
:104D280009D9002D00F0B1800026C5E90001304600
:104D38003146BDE8F087B3FA83F6002E4AD18B429C
:104D480002D3824200F2B880841A61EB0301012089
:104D58008C46002DA8D0C5E9004CA5E7C2F1200378
:104D680020FA03F6974001FA02F04FEA174ED940AD
:104D78003043030CB1FBFEF61FFA87F80EFB161141
:104D880043EA014306FB08F1994204FA02F409D9FF
:104D9800FB1806F1FF3C80F08D80994240F28A8032
:104DA800023E3B445B1A81B2B3FBFEF00EFB1033AC
:104DB80041EA034100FB08F38B4207D9791800F157
:104DC800FF3C73D28B4271D902383944CB1A40EA7E
:104DD800064678E7C6F1200C03FA06F422FA0CF32B
:104DE8001C4320FA0CF701FA06F34FEA144E21FA95
:104DF8000CF11F433B0CB1FBFEF91FFA84F80EFBC4
:104E0800191143EA014109FB08FA8A4502FA06F238
:104E180000FA06F308D9611809F1FF3048D28A452B
:104E280046D9A9F102092144A1EB0A01BFB2B1FB9D
:104E3800FEF00EFB101147EA014700FB08F8B845E1
:104E480007D9E71900F1FF312ED2B8452CD902381D
:104E5800274440EA0940A7EB0807A0FB02894F4511
:104E6800C64649461AD317D05DB1B3EB0E0267EBBD
:104E7800010707FA0CFCF2404CEA0202F740C5E9C8
:104E8800002700263146BDE8F0872E4628460BE766
:104E98000646E9E61846FDE64345E5D2B8EB020EBC
:104EA80069EB04010138DFE70846D2E760468DE781
:104EB8008146B9E7664675E730464AE7ACF1020C29
:104EC800394413E702383C4424E700BF704700BF69
:104ED8007047B0F856007047B0F858007047B0F8FF
:104EE80050007047B0F854007047B0F8520070474F
:104EF80010B504464FF4D4710AF0D2FF204610BD15
:104F0800F0B40446204B036001230371437100236E
:104F18008371C3711D4B00F10C0593E8070085E808
:104F2800070004F1200585E8070004F1340585E849
:104F3800070003F10C0604F1660703F12C05B446DB
:104F4800BCE80F0038607960BA60FB6066461037CD
:104F5800AC45F4D103CE386079600C4B1D4607CDC3
:104F6800C4F87E01C4F88211C4F8862104F5C67518
:104F780085E8070007CBC4F89A01C4F89E11C4F865
:104F8800A2212046F0BC7047582D0108802C01084A
:104F9800F0B44FF0010C80F804C00023038140F600
:104FA800FF72428103834383838143F23337C7818E
:104FB80046F26666068249F6991545824CF6CC4457
:104FC80084824FF6FF71C18280F805C08383C28353
:104FD8008385C385038447848684C5840485418585
:104FE800837103864286A0F84030A0F84230838659
:104FF800C786068745878487C187C371A0F8443070
:10500800A0F84620A0F84820A0F84A30A0F84C2084
:10501800A0F84E304CF23002A0F8502044F21003B1
:10502800A0F8523047F6FF71A0F85410A0F85620A7
:10503800A0F85830F0BC704701717047B0F85A308A
:1050480003817047B0F85A304381704741837047F5
:1050580001837047013905290FD8DFE801F00305FE
:1050680007090B0D82817047C28170470282704721
:105078004282704782827047C2827047417170478E
:10508800B0F85C3083837047B0F85C30C3837047F6
:10509800C185704781857047013905290FD8DFE838
:1050A80001F0030507090B0D02847047428470471D
:1050B80082847047C2847047028570474285704772
:1050C80081717047B0F85E3003867047B0F85E3083
:1050D80043867047A0F842107047A0F84010704708
:1050E800013905290FD8DFE801F0030507090B0D81
:1050F80082867047C286704702877047428770472A
:1051080082877047C2877047C1717047B0F86030B6
:10511800A0F844307047B0F86030A0F846307047C7
:10512800A0F850107047A0F854107047A0F852101B
:105138007047B0F86230A0F84A307047B0F8623073
:10514800A0F848307047A0F856107047A0F85810DB
:105158007047B0F86430A0F84E307047B0F864304B
:10516800A0F84C307047108888420BD270B49DF874
:105178000C0000F10040013832F810408C4203D98D
:10518800012006E01888704733F810001AE0013053
:10519800C0B2460032F810408C42F8D38C4213D08B
:1051A80000F10045013D32F81520891A985B33F863
:1051B8001530C01A00FB01F1A41A91FBF4F413FA9C
:1051C80084F080B270BC7047985BFBE703798BB1C1
:1051D80010B582B004460368DB6898470146062389
:1051E800009304F10C0304F5BF722046FFF7BBFFE0
:1051F80002B010BD0020704743798BB110B582B062
:10520800044603685B69984701460623009304F146
:10521800200304F5C6722046FFF7A5FF02B010BDB3
:105228000020704783798BB110B582B004460368BB
:10523800DB69984701460623009304F1340304F51B
:10524800CD722046FFF78FFF02B010BD00207047D7
:1052580070B406460846072B01D070BC7047B6F9F3
:10526800661001FB00F113238BB103F10044013CEC
:1052780032F9145022F8135003F1300406EB4404B9
:10528800B4F9060000FB0511013BDBB2ECE704486A
:1052980080FB0130C917C1EB601108B21080DCE750
:1052A8001F85EB5170B505460E460024052C15D810
:1052B80056F8241004EB8402D20088322A440723CB
:1052C800063209B22846FFF7C3FF80B204F12C0367
:1052D80005EB430358800134E4B2E7E770BD0000F2
:1052E800F8B507EE901A15461C46F8EE677A07EEF1
:1052F800102AB8EE477A77EEC77A17EE900AFFF7CA
:10530800CBF81AA3D3E90023FFF71EF906460F4688
:10531800601B07EE900AF8EEE77A17EE900AFFF79F
:10532800BBF802460B4630463946FFF737FA0446C3
:105338000D46FFF701FC07EE900AF5EEC07AF1EE94
:1053480010FA0CD49FED087AF4EEC77AF1EE10FA51
:1053580007DC20462946FFF7CFFB80B200E000209B
:10536800F8BD4FF6FF70FBE700FF7F470000000025
:10537800E0FFEF4038B50446028943899A420ED9C6
:10538800B0F85A10008B658B2B44121A9BB292B25C
:1053980089B22046FFF7A4FFA4F88A0138BDB0F807
:1053A8005A10008B658B5B1B02449BB292B289B288
:1053B8002046FFF795FFA4F88A01EFE738B50446C1
:1053C800828BC38B9A420ED9B0F85C10808DE58D24
:1053D8002B44121A9BB292B289B22046FFF780FF83
:1053E800A4F8980138BDB0F85C10808DE58D5B1B82
:1053F80002449BB292B289B22046FFF771FFA4F82B
:105408009801EFE738B50446028E438E9A4210D9C8
:10541800B0F85E10B0F84000B4F842502B44121AAD
:105428009BB292B289B22046FFF75AFFA4F8A601B0
:1054380038BDB0F85E10B0F84000B4F842505B1BBD
:1054480002449BB292B289B22046FFF749FFA4F802
:10545800A601EDE708B5C379CBB1B0F84420B0F8A0
:1054680046309A4209D9B0F860100533053A9BB224
:1054780092B289B2FFF734FF0AE0B0F86010053B3A
:1054880005329BB292B289B2FFF72AFF00E00020F2
:1054980008BD08B5B0F84A20B0F848309A4209D992
:1054A800B0F862100533053A9BB292B289B2FFF7A1
:1054B80017FF08BDB0F86210053B05329BB292B2E7
:1054C80089B2FFF70DFFF4E708B5B0F84E20B0F841
:1054D8004C309A4209D9B0F864100533053A9BB2AA
:1054E80092B289B2FFF7FCFE08BDB0F86410053B24
:1054F80005329BB292B289B2FFF7F2FEF4E7704729
:10550800006A7047406A704790F8C200704710B54B
:105518000446F0210AF0C4FC204610BD000000003B
:105528002DE9F04104460646374B46F8043B374D13
:105538002F460FCF0FC697E8070003C632704FF00B
:10554800010C84F81DC04FF0000884F81E8084F810
:105558001FC0C4F82080C4F8248004F1280305F192
:105568001C0207CA03C31A8004F1340605F1280790
:105578000FCF0FC63B68336004F1480305F13C02C6
:1055880007CA03C31A8004F1540605F148070FCF70
:105598000FC63B68336004F1680605F15C070FCF5E
:1055A8000FC63B68336004F17C0670350FCD0FC61B
:1055B8000FCD0FC695E8030086E80300144BC4F826
:1055C800A4300FA3D3E90023C4E92A2384F8B0C088
:1055D80084F8B18000220023C4E92E2340F6B833B2
:1055E800A4F8C030FF2384F8C2302022414604F1D9
:1055F800C3000DF021FA84F8E3802046BDE8F0816D
:10560800EBEBABAC0B000000A02D0108B42C01089B
:105618006819002041777047407F7047817770474D
:10562800807F704708B5164B164A1A604FF482728D
:105638005A6000229A60DA605A614FF400719961E9
:105648005A629A620A22DA62C37F012B06D0022BC1
:105658000BD00B4807F056FD78B908BD084B00225F
:105668001A611821D9611A62F3E7054B02221A61FF
:105678002822DA6180221A62EBE704F0ADFDECE73C
:10568800681900200030014090F8B0308B4201D0FA
:1056980080F8B01070470139012303FA01F1036A59
:1056A8000B430362704790F8B1007047D0B50446C9
:1056B80090F8B1302BBB03F064FF40B994F8B130D7
:1056C80023B9FF2384F8C23000236362D0BD2021B0
:1056D80004F1C30003F0B5FE94F8C330452BEDD1B7
:1056E800B4F8C42044F24D339A42E7D1012384F838
:1056F800B13005F0DDFAC4F8B8000023C4F8BC30B6
:10570800DCE703F03EFF78B3202104F1C30003F087
:1057180098FE94F8B03093B194F8CA3084F8C23047
:1057280094F8C92094F8C8301B0443EA026394F83B
:10573800C72043EA022394F8C6201343636294F80F
:10574800E3303BB905F0B4FAC4F8B8000023C4F854
:10575800BC30B3E7072204F1E401012003F016FF8F
:10576800002384F8E330EDE705F0A2FAD4F8B83066
:10577800D4F8BC20C61A62EB4207B4F8C020002354
:10578800BB4208BFB24299D2002384F8B13095E7F2
:10579800F8B505461446BDF81860BDF81C70BDF88C
:1057A8002000BDF824C000222A62AA7F022A1DD048
:1057B800032A5FD0012A0BD06B7F022B00F0948064
:1057C800012B00F0CC80EB7F012B00F0E380F8BDCB
:1057D8009C4206D8B442EFD202212846FFF75BFF6D
:1057E800EAE701212846FFF756FFE5E7B9420DD25F
:1057F8009C4206D8B442DFD202212846FFF74BFF6D
:10580800DAE701212846FFF746FFF3E7814294BF14
:1058180000200120614528BF002068B19C4206D8BD
:10582800B442C9D206212846FFF735FFC4E705214F
:105838002846FFF730FFF3E761450DD99C4206D8AB
:10584800B442B9D208212846FFF725FFB4E707215B
:105858002846FFF720FFF3E79C4206D8B442ABD2B4
:1058680004212846FFF717FFA6E703212846FFF77C
:1058780012FFF3E7B9420DD29C4206D8B4429BD23C
:1058880002212846FFF707FF96E701212846FFF780
:1058980002FFF3E7814218D99C420CD8B4428BD25C
:1058A80002213E4806F084FA012809D0062128463C
:1058B800FFF7F1FE80E705212846FFF7ECFEEDE74C
:1058C80007212846FFF7E7FE76E79C4207D8B4424F
:1058D800BFF472AF04212846FFF7DDFE6CE7032111
:1058E8002846FFF7D8FEF2E7002726E006EB8603F6
:1058F8002B44234419792846FFF7CDFE0134E4B23E
:10590800042C0DD804F1140204F10C0305EB8303F5
:1059180035F81210586806F04BFA0028EED1E5E782
:1059280006F12403143605EB8606012235F8131018
:10593800706806F044FA0137FFB2042F3FF643AF10
:105948003E4607F1240107F1140305EB8303002207
:1059580035F81110586806F032FA0024D0E7002410
:1059680007E004F10801C9B22846FFF794FE0134A4
:10597800E4B2092C3FF627AF04F1340204F11E0308
:1059880005EB830335F81210586806F011FA002861
:10599800EDD1E6E72846FFF789FE18E70004024044
:1059A800012380F8E3300223082B0CD810B49A1E88
:1059B800CC5C024482F8E4400133DBB2082BF6D910
:1059C8005DF8044B7047704730B587B004464FF414
:1059D8000041314806F064F9304D4FF48071284693
:1059E80006F05EF94FF40071284606F059F905F5FE
:1059F80080654FF48041284606F052F94FF4004183
:105A0800284606F04DF9002304930593637F012B84
:105A180003D0022B1FD007B030BD4FF44073019361
:105A2800002502950124039401A91C4806F060F89A
:105A38004FF4004301930295039401A9164806F018
:105A480057F84FF4404301930295039401A9144871
:105A580006F04EF8DFE74FF44073019301250295F5
:105A680002240394049401A90C4806F041F84FF469
:105A78000043019302950394049401A9064806F093
:105A880037F84FF44043019302950394049401A915
:105A9800034806F02DF8BEE700000240000402406B
:105AA8000008024030B597B00446FFF78DFF204646
:105AB800FFF7B8FDE37F012B01D017B030BD104DC3
:105AC8005422291D68460CF0A9FF2B68402280212A
:105AD8000C4803F091FD012003F0CFFC032003F0F4
:105AE8006DFC202003F074FCD4E92A23012003F084
:105AF80023FC03F075FE03F04FFE03F0FDFBDCE72B
:105B0800681900200004024080F8F91F704780F8E7
:105B1800FA1F704741F21803C35C03B9704710B508
:105B2800044600F6E860FFF7BEFD38B1054B0122D8
:105B38009A7041F218030022E25410BD014B002272
:105B48009A70F6E73C06002070B504466E4B40F8A4
:105B5800043B01F00BFF04F12400FFF7D1F904F531
:105B6800E67003F083FE04F5027001F049FF04F6C5
:105B78000C5004F02DFA04F5536004F029FA4FF4A0
:105B88006173A4F8543DA4F8563D002584F8605E7E
:105B9800C4F8645EC4F8685EC4F86C5EC4F8705EED
:105BA800C4F8745EC4F8785EC4F87C5EC4F8805E9D
:105BB800C4F8845EC4F8885ECD2384F88C3ECC2378
:105BC80084F88D3E4FF4FA63A4F88E3E04F56963B9
:105BD8009FED4E1A83ED001A84F8945E802384F8B2
:105BE800953E7F2384F8963EA4F8985E04F69C625E
:105BF80082ED001A84F8A05E04F6A462444911609C
:105C080004F6A862DFED430AC2ED000A04F6AC62AE
:105C18004149116042F21072C4F8B02E84F8B43EC3
:105C28009FED3E0A294604F6B86003F0C5FA84F8E9
:105C3800E45E012684F8E56E04F6E860FFF770FC80
:105C480084F8D86F84F8D95F032384F8DA3F84F89E
:105C5800DB5F84F8DC5F84F8DD5F84F8DE5F84F85E
:105C6800DF5F84F8E05F84F8E15F84F8E25F84F83E
:105C7800E35F84F8E45F84F8E55F84F8E65F84F81E
:105C8800E75F84F8E85F84F8E95F84F8EA5F84F8FE
:105C9800EB5F84F8EC5F84F8ED5F84F8EE5F84F8DE
:105CA800EF5F84F8F05FC4F8F45F84F8F85F84F875
:105CB800F95F84F8FA5F84F8FB5F84F8FC5F41F2CF
:105CC8000703E65441F20803E65441F20903E55498
:105CD80041F20A03E55441F20B03E55441F20C0387
:105CE800E55041F21403E65441F21503E55441F23C
:105CF80016030722E25441F21703E55441F2180350
:105D0800E554204670BD00BFBC2D0108000000000E
:105D18000000C841CDCC4C3E0000FA43CDCC4C3DF0
:105D280038B541F20703C35C03B138BD044641F2FC
:105D380007030122C25400F50275284601F027FF27
:105D4800284601F048FF04F5E674204603F0C1FD3B
:105D58000028EAD00021204603F0A4FE204603F0E4
:105D680075FFE2E710B541F207030022C25400F5BF
:105D7800E674204603F0ADFD00B910BD204603F0DF
:105D8800A5FDFAE710B5044641F20703C35C23B941
:105D980041F20A030122E25410BDFFF7E3FFF7E7DF
:105DA80038B504460D4690F8B43E13B184F8B45E95
:105DB80038BD00F6B86002F057FEF7E7C0F86C1E71
:105DC800D0F87C3ECB1AC0F8683ED0F8782E9A1AE4
:105DD800C0F8642EC0F87C1EC0F8783ED0F8703E3B
:105DE800C0F8803E0023C0F8703E704790F88C3EA3
:105DF80007EE103AB8EE477ADFED0A7AC7EE276A5F
:105E0800B0F88E3E07EE103AB8EE477A9FED066A74
:105E1800C7EE067A67EEA67A00F56960C0ED007AEB
:105E2800704700BF00007F4300FEFF4608B580F8BA
:105E38008C1EFFF7DBFF08BD08B5A0F88E1EFFF724
:105E4800D5FF08BDC0F8841E704729B108B500F514
:105E5800027002F00CFB08BD0020704708B500F680
:105E6800FD72044BD3F8BC1200F5027001F0F4FF88
:105E780008BD00BF2C1A002000F580500230704782
:105E880000F6FD70704741F20203C15441F203036A
:105E9800C2186FF05F01C1540A23537041F2050321
:105EA8002822C25441F206030322C254704700005C
:105EB800004870473C060020044B00229A70DA70B4
:105EC8001A715A719A71DA711A7270473C06002079
:105ED80003461046934204DC8B4201DA08467047B9
:105EE8001846704708B547F6FF720349D0F86C0E9C
:105EF800FFF7EEFF08BD00BF0180FFFF0346104615
:105F0800934204DC8B4201DA084670471846704712
:105F180008B5D0F86C3E5B4207EE903A00F69C63F9
:105F280093ED007AF8EEE77A67EE877AB0F9982E63
:105F38005142FDEEE77A17EE900AFFF7DFFF08BD42
:105F480038B505460C4680F8961EE9B9002380F856
:105F5800A03E42F210720021322000FB04F0FFF74D
:105F6800CDFFA5F8980E07EE904AF8EE677A9FEDF8
:105F7800087A67EE877AB6EE007A77EE877A05F6C2
:105F88009C65C5ED007A38BD012380F8A03EE0E7A6
:105F98000AD7233C82B0B0EE407A019007EE901AFF
:105FA800B8EEE70AB4EEC70AF1EE10FA0AD407EE23
:105FB800900AB8EEE70AB4EEC70AF1EE10FA01DC6F
:105FC800B0EE470A02B0704710B504460023C0F887
:105FD800883E19B9FFF79CFFC4F8880E94F8B43EC0
:105FE80003B910BDD4F8683E07EE903AB8EEE70A58
:105FF80004F6B86002F00FFD94F8B43E07EE903A4C
:10600800F8EE677A20EE270AD4F8B01E4842F7EE79
:10601800087A20EE270AFFF7BDFFD4F8883E07EE7E
:10602800903AF8EEE77A77EEC07AFDEEE77A17EE67
:10603800903AC4F8883ED4E7904204DC884204DAF7
:106048004FF0FF3070470120704700207047000074
:1060580070B50446D0F86C5E47F6FF721C492846B6
:10606800FFF7EAFF78B3064694F8E43E6BB385EA97
:10607800E570A0EBE570164D47F6FF722946A0F5CE
:10608800FF407F38FFF73AFF07EE900A94F8953EF5
:1060980007EE103AB8EE477ADFED0E6A27EE267A59
:1060A800F8EEE77A67EE877AFDEEE77A704247F610
:1060B800FF72294617EE903A03FB00F31846FFF7E4
:1060C8001DFF00B270BD0020FCE70020FAE700BF0A
:1060D8000180FFFF9A99193E2DE9F0412DED028BC1
:1060E80005460F46D0F8843E002BB8BF5B4247F602
:1060F800FE72934246DC05F5696393ED008AD5F894
:10610800843E07EE903AF8EEE77A67EE887AFDEE7D
:10611800E77A17EE904AC5F8844E2846FFF798FFAD
:10612800231807EE903AD5F8883E07EE103AB8EEF5
:10613800C77A27EE087AF8EEE77A77EE877AFDEEE7
:10614800E77A17EE900A95F8943E03B14042C5F8F5
:10615800700EB5F88E8E4246C8F10001FFF7CEFEEC
:106168000446D5F8806E361A18BF012680EAE07317
:10617800A3EBE07398450AD03C603046BDEC028B37
:10618800BDE8F08100F5536003F02CFFB3E705F597
:10619800536003F027FFEFE710B582B0044601A96A
:1061A800FFF79AFF08B902B010BD04F5E67420465F
:1061B80003F08FFB0028F6D0BDF90410204603F049
:1061C80071FCF0E710B504460D4B036000F6E8607B
:1061D800FFF795F904F6B86002F01CFC04F50270AC
:1061E80001F004FC04F5E67003F01EFB04F1240042
:1061F800FEF76EFE201D01F087FB204610BD00BF94
:10620800BC2D010810B50446FFF7DCFF4FF481519F
:10621800204609F045FE204610BD00002DE9F0415A
:106228000446B549052003F05DFE0123422204F629
:10623800DC51002003F09CFE251D284601F0A4FB3C
:10624800284601F0A7FB04F124073846FEF7A0FE14
:1062580004F5E676304603F004FC04F6E8684046A8
:10626800FFF720FCA54B80221A7094F8DE3D41F21E
:106278001702A354012B08D0A14A4FF4005104F58A
:10628800536003F0CBFEBDE8F081B4F8E01D28466A
:1062980001F03DFB94F8E21D003918BF01212846A2
:1062A80001F039FB284601F034FB002840F00F814B
:1062B800B4F8E85DE9B2304603F0D0FC290A30466C
:1062C80003F07AFBB4F8EA5DE9B2304603F0DEFB8E
:1062D800304603F0DEFB022800F00481B4F8EC5DE0
:1062E800E9B2304603F00CFB290A304603F00EFBF6
:1062F80023689B68B4F8EE1D2046984704F502759C
:10630800B4F8F01D284601F031FEB4F8F26DF1B290
:106318002046FFF78BFD361284F8956EB4F8F46DBD
:10632800F1B22046FFF70CFE310A2046FFF738FD90
:10633800B4F8F63DA4F8563D94F8F81D84F8601EAC
:1063480001F0010384F8943EC1F340013846FEF79A
:1063580073FE94F8601EC1F380013846FEF78EFE86
:1063680094F8601EC1F3C0013846FEF7A9FE94F800
:10637800601EC1F300113846FEF7C6FEB4F8FA3DB8
:10638800A385B4F8FC3DE385B4F8FE3DA387B4F8D3
:10639800003EE387B4F8023E2386B4F8043E6386E1
:1063A800B4F8063EA386B4F8083EE386B4F80A3E7D
:1063B8002387B4F80C3E6387B4F80E3EA4F8403047
:1063C800B4F8103EA4F84230B4F8123EA4F85030A5
:1063D800B4F8143EA4F85230B4F8163EA4F8443089
:1063E800B4F8183EA4F84630B4F81A3EA4F8483079
:1063F800B4F81C3EA4F84A30B4F81E3EA4F84C3059
:10640800B4F8203EA4F84E30B4F8223EA4F8543034
:10641800B4F8243EA4F85630B4F8263EA4F8643004
:10642800B4F8283EA4F86630B4F82A3EA4F85830E8
:10643800B4F82C3EA4F85A30B4F82E3EA4F85C30D8
:10644800B4F8303EA4F85E30B4F8323EA4F86030B8
:10645800B4F8343EA4F86230B4F8363EA4F8683094
:10646800B4F8383EA4F86A30B4F83A6EF1B240464F
:10647800FFF7D4F8310A4046FFF7CCF84046FFF75B
:10648800A3FA94F84E1E284601F076FD94F8501EA3
:10649800284601F07DFD94F8521E284601F072FD51
:1064A80094F8541E284601F079FD94F8581E2846A1
:1064B80001F056FD94F85A1E284601F075FD94F82F
:1064C8005E2EB4F85C1E284602F05AF8D4E6B4F8FA
:1064D800E41D284601F023FAB4F8E61D284601F029
:1064E80022FAE5E62B0A00EE103AB8EE400A3046EA
:1064F80003F0D2FAF2E600BF000002083C060020D2
:106508000008024038B5044600F6E860FFF788F84E
:10651800012818D024342046FEF7BBFFC0B2134D23
:10652800A8702046FEF7B5FFC0F30720E8702046A4
:10653800FEF7CAFFC0B228712046FEF7C5FFC0F3B8
:106548000720687138BD094DFF23AB707F23EB70BE
:1065580024342046FEF7B8FFC0B228712046FEF763
:10656800B3FFC0F307206871ECE700BF3C060020CA
:1065780070B52DED028B82B0019169B30546061DF9
:10658800304601F0D2F90446304601F0CAF9241A1F
:1065980007EE904AB8EEE78A304601F0B6F907EE02
:1065A800100AB8EE477AC8EE077ADFED0E6A67EE92
:1065B800A66ADDED017AB8EE677A9FED0B6AC6EE42
:1065C800077A67EEA67AFDEEE77A17EE900A95F855
:1065D800943E1BB1404201E047F6FF7002B0BDECAB
:1065E800028B70BD0000B44300FF7F47F8B5044636
:1065F800B0F8561DB0F8543D994219D1B4F8541D5D
:106608002046FFF7B5FF054680EAE076A6EBE07680
:10661800B6F5803F1ADB04F5E67003F017FB04F6C5
:106628000C5003F0E9FC29462046FFF7C7FBF8BDEC
:10663800FFF79EFF0028B8BF404247F6FE73984216
:10664800DCDCB4F8563DA4F8543DD7E704F5E6770A
:10665800384603F03EF90028E5D0B6F5004FE2DAF7
:10666800384603F033F9DEE770B582B0044690F897
:10667800FC3F013B0B2B2DD8DFE813F00C002E005C
:10668800540076007F008E00A000B000CD00F50019
:1066980017012E01FFF710FC934D01236B70043492
:1066A800204601F032F9C0B2A870204601F02DF959
:1066B800C0F30720E870204601F02BF92871204626
:1066C80001F02BF9C0B26871204601F026F9C0F339
:1066D8000720A87102B070BDFFF7EEFB824D0223C0
:1066E8006B7004F5E674204603F0F3F8A8702046B2
:1066F80003F004F9E870204603F0CBF9287120462E
:1067080003F0CDF9FCEEC07ACDED017A9DF80430A6
:106718006B71204603F0F7F8A871204603F0F9F8EA
:10672800E871D7E7FFF7C8FB6F4D03236B70B4F828
:106738008E3EDAB2AA701B0AEB7004F50276304678
:1067480001F017FCC0B22871304601F012FCC0F30A
:106758000720687194F8953EAB7194F8963EEB71FA
:1067680094F8B43E2B72B5E7FFF7A6FB5E4B042204
:106778005A7094F88C2E9A70ACE7FFF79DFB5A4B31
:1067880005225A70B4F8562DD1B29970120ADA70EF
:1067980094F8942E1A719DE7FFF78EFB524B062250
:1067A8005A7094F828209A7094F82920DA7094F88E
:1067B8002A201A7194F82B205A718BE74A4D072327
:1067C8006B70FFF779FB04F6E8642046FEF728FFB4
:1067D800A8702046FEF720FFE8707BE7FFF76CFB08
:1067E800414D08236B7024342046FEF775FBC0B278
:1067F800A8702046FEF770FBC0F30720E87020461B
:10680800FEF767FBC0B228712046FEF762FBC0F3B3
:10681800072068715EE7FFF74FFB334D09236B7064
:1068280024342046FEF761FBC0B2A8702046FEF76C
:106838005CFBC0F30720E8702046FEF750FBC0B2AF
:1068480028712046FEF74BFBC0F3072068712046ED
:10685800FEF748FBC0B2A8712046FEF743FBC0F321
:106868000720E87136E7FFF727FB1F4D0A236B70F7
:1068780004F50274204601F082FBA870204601F05E
:106888008AFBE870204601F080FB2871204601F061
:1068980088FB6871204601F066FBA871204601F06C
:1068A80086FBE87164232B7214E7FFF705FB0E4D96
:1068B8000B236B7004F50274204601F007FAC0B28E
:1068C800A870204601F002FAC0F30720E8702046BD
:1068D80001F0F9F92871FDE6034B0C225A700023E8
:1068E80080F8FB3FF6E600BF3C06002038B590F87C
:1068F800E53E012B1FD0022B21D0C3B1D0F8F43FC5
:10690800DAB2114DEA70C3F307232B71041D204638
:1069180001F020F86871204601F003F8C0B2E87170
:10692800204600F0FEFFC0F30720287238BD064B52
:1069380000229A70E2E7044B01229A70DEE7024BCC
:1069480002229A70DAE700BF3C060020042900D032
:10695800704738B50446051D284600F0DAFF00B92F
:1069680038BD284600F0F6FF0028F9D104F5E67096
:1069780002F0AFFF072808D00121284600F0ECFFFD
:106988000021284600F0DAFFEAE70421094805F06B
:106998000FFA012804D00021284600F0DDFFDFE7C8
:1069A8000121284600F0D8FF0021284600F0C6FF44
:1069B800D6E700BF000002400B78802B00D070475C
:1069C8002DE9F04182B005460C464B78013B7A2B05
:1069D80000F2AC81DFE813F07B008B00370545053A
:1069E8005B0564057C054701520170017A019A0034
:1069F800A400B100BE00CB00AA01160123012F019B
:106A08003B0184018F019A019E01A101AD01B601EC
:106A1800C001CA01D401DE01E801F201FD0108024A
:106A28000C0210021C0225022F02390243024D02F9
:106A38005702AA0161026C0277027B027E02880279
:106A480091029B02A502AF02B902C302E002EB0267
:106A5800F602FA02FE02080312031C0326032A03A5
:106A68002E03370340034403480351035A036303C7
:106A78006F037A0382038B03AA01AA01AA01AA0160
:106A8800AA01AA01AA019503AA01AA0199039D03D3
:106A9800AB03A103B103B703BD03C203C803CE030D
:106AA800AA01AA01D6031705CD02D802AA01AA0194
:106AB8002D05AA0187058D059205D800E500F2008D
:106AC800FF000C019905A605B405B905C005CF4B13
:106AD80001225A7041F21402825C9A7041F2150246
:106AE800825CDA7041F21602825C1A711EE104358A
:106AF800284600F00AFFA378E17801EB03218842D9
:106B080000F01481284600F002FF0FE100F5E67559
:106B18000021284603F0A2F8284603F097F805E17B
:106B280000F5E675284602F0D4FE032800F0FE8042
:106B38000321284603F092F8F8E000F5E6752846A8
:106B480002F0C7FE042800F0F1800421284603F073
:106B580085F8EBE000F5E675284602F0BAFE022853
:106B680000F0E4800221284603F078F8DEE000F522
:106B7800E675284602F0ADFE012800F0D780012115
:106B8800284603F06BF8D1E000F5E675284602F0D8
:106B9800A0FE052800F0CA800521284603F05EF80B
:106BA800C4E000F5E675284602F093FE062800F0DA
:106BB800BD800621284603F051F8B7E000F5E675D8
:106BC800284602F086FE072800F0B08007212846F4
:106BD80003F044F8AAE000F5E675284602F059FFEC
:106BE800A178884200F0A280284602F04FFF9DE07D
:106BF8008B7800EE103AB8EE400A00F5E67002F025
:106C08004BFF93E000F5E675284602F077FE002872
:106C180000F08C800021284602F0CEFE86E000F5C8
:106C2800E675284602F06AFE01287FD00121284631
:106C380002F0C2FE7AE000F5E675284602F05EFE34
:106C4800022873D00221284602F0B6FE6EE000F555
:106C5800E675284602F052FE032867D0032128462D
:106C680002F0AAFE62E0B0F8560D8A78CB7803EB02
:106C7800022188425AD0A5F8561D57E00435284607
:106C880000F047FE18B1284600F064FE60B9002104
:106C9800284600F05DFE0021284600F044FE002151
:106CA800284600F04BFE41E0284600F03EFE014633
:106CB800284600F038FE39E0012380F8943E90F829
:106CC800603E43F0010380F8603E2FE0002380F827
:106CD800943E90F8603E23F0010380F8603E25E082
:106CE80001212430FEF7A8F995F8603E43F002032D
:106CF80085F8603E1AE000212430FEF79DF995F8EA
:106D0800603E23F0020385F8603E0FE02430FEF772
:106D180095F90BE02430FEF795F92379617901EBB9
:106D2800032189B205F12400FEF790F902B0BDE80D
:106D3800F0810B79497901EB032189B22430FEF700
:106D480087F9F3E7CB790A7A02EB032292B20121A1
:106D58002430FEF77FF9E9E7CB790A7A02EB0322C0
:106D680092B202212430FEF775F9DFE7CB790A7A6F
:106D780002EB032292B203212430FEF76BF9D5E728
:106D8800CB790A7A02EB032292B204212430FEF76F
:106D980061F9CBE7CB790A7A02EB032292B205219B
:106DA8002430FEF757F9C1E7CB790A7A02EB0322C0
:106DB80092B206212430FEF74DF9B7E701212430BD
:106DC800FEF75CF995F8603E43F0040385F8603EF1
:106DD800ACE700212430FEF751F995F8603E23F026
:106DE800040385F8603EA1E72430FEF749F99DE7E2
:106DF8002430FEF749F999E70B79497901EB03212A
:106E080089B22430FEF744F990E700BF3C06002021
:106E18000B79497901EB032189B22430FEF73AF95D
:106E280084E7CB790A7A02EB032292B2012124305B
:106E3800FEF732F97AE7CB790A7A02EB032292B2AB
:106E480002212430FEF728F970E7CB790A7A02EBA1
:106E5800032292B203212430FEF71EF966E7CB79AC
:106E68000A7A02EB032292B204212430FEF714F9C5
:106E78005CE7CB790A7A02EB032292B2052124302F
:106E8800FEF70AF952E7CB790A7A02EB032292B2AB
:106E980006212430FEF700F948E701212430FEF7E7
:106EA8000FF995F8603E43F0080385F8603E3DE72A
:106EB80000212430FEF704F995F8603E23F008031A
:106EC80085F8603E32E72430FEF7FCF82EE72430E0
:106ED800FEF7FCF82379617901EB032189B205F10A
:106EE8002400FEF7F7F821E70B79497901EB032134
:106EF80089B22430FEF7F1F818E7CB790A7A02EB69
:106F0800032292B201212430FEF7EAF80EE7CB798A
:106F18000A7A02EB032292B202212430FEF7E0F84B
:106F280004E7CB790A7A02EB032292B203212430D8
:106F3800FEF7D6F8FAE6CB790A7A02EB032292B288
:106F480004212430FEF7CCF8F0E6CB790A7A02EB7C
:106F5800032292B205212430FEF7C2F8E6E6CB7987
:106F68000A7A02EB032292B206212430FEF7B8F81F
:106F7800DCE6FEF7A1FF2B681B690121284698472C
:106F88007F4B03225A70D1E603681B69002198479A
:106F98007B4B00225A70C9E601212430FEF7B4F871
:106FA80095F8603E43F0100385F8603EBEE6002188
:106FB8002430FEF7A9F895F8603E23F0100385F811
:106FC800603EB3E62430FEF7A1F8AFE62430FEF7C2
:106FD800A2F8ABE600F6E86500212846FEF71EFB9E
:106FE8002846FEF7F1FCA1E600F6E86501212846EF
:106FF800FEF714FB2846FEF7E7FC97E600F6E8657F
:1070080002212846FEF70AFB2846FEF7DDFC8DE63E
:1070180000F6E86503212846FEF700FB2846FEF740
:10702800D3FC83E62430FEF794F87FE62430FEF79D
:1070380095F87BE64B79897901EB032189B22430F5
:10704800FEF781F872E64B79897901EB032189B261
:107058002430FEF77BF869E62430FEF76AF865E627
:107068002430FEF76BF861E64B79897901EB03214F
:1070780089B22430FEF754F858E64B79897901EB48
:10708800032189B22430FEF74EF84FE64B7989790F
:1070980001EB032189B22430FEF748F846E60022C6
:1070A800A0F86E2040F6FF73A0F86C30A0F87220AC
:1070B800A0F870303AE6FEF7FFFE2B689B690121C5
:1070C800284698472E4B02225A702FE603689B6980
:1070D800002198472A4B00225A7027E603689B68CC
:1070E8000A79497901EB022189B298471EE68B7922
:1070F800C97901EB032189B200F5027000F036FF6F
:1071080014E68B7880F8953E10E68978FEF748FEFD
:107118000CE68978FEF714FF08E64979A379227905
:1071280003EB012100F5027001F02AFAFEE5097966
:1071380000F5027000F020FFF8E5097900F502700B
:1071480000F026FFF2E5097900F5027000F01AFF59
:10715800ECE5097900F5027000F020FF217905F5CA
:10716800027000F0FDFEE1E5097900F5027000F01B
:107178001BFFDBE5097900F5027000F01BFFD5E580
:107188003C060020012741F21703C754A0F85A7D96
:10719800041D204600F0B9FBA5F85C0D204600F060
:1071A800B8FBA5F85E0D204600F0B7FBA5F8600D0A
:1071B800204600F0B6FBA5F8620D05F5E6742046FA
:1071C80002F087FB0646204602F098FB46EA0026B6
:1071D800A5F8646D204602F05CFC0646204602F0E5
:1071E8005EFCFCEEC07ACDED017A9DF8043046EAEB
:1071F8000326A5F8666D204602F085FB06B22046F8
:1072080002F087FB46EA0026A5F8686DB5F88E3EC1
:10721800A5F86A3D05F50274204600F0AAFEA5F817
:107228006C0D95F88C3E95F8952E43EA0223A5F847
:107238006E3D95F8963E95F8B42E43EA0223A5F8DC
:10724800703DB5F8563DA5F8723D95F8603EA5F835
:10725800743DAB8DA5F8763DEB8DA5F8783DAB8FE9
:10726800A5F87A3DEB8FA5F87C3D2B8EA5F87E3DE1
:107278006B8EA5F8803DAB8EA5F8823DEB8EA5F808
:10728800843D2B8FA5F8863D6B8FA5F8883DB5F812
:107298004030A5F88A3DB5F84230A5F88C3DB5F8E0
:1072A8005030A5F88E3DB5F85230A5F8903DB5F8A8
:1072B8004430A5F8923DB5F84630A5F8943DB5F8A8
:1072C8004830A5F8963DB5F84A30A5F8983DB5F888
:1072D8004C30A5F89A3DB5F84E30A5F89C3DB5F868
:1072E8005430A5F89E3DB5F85630A5F8A03DB5F840
:1072F8006430A5F8A23DB5F86630A5F8A43DB5F808
:107308005830A5F8A63DB5F85A30A5F8A83DB5F807
:107318005C30A5F8AA3DB5F85E30A5F8AC3DB5F8E7
:107328006030A5F8AE3DB5F86230A5F8B03DB5F8C7
:107338006830A5F8B23DB5F86A30A5F8B43D05F651
:10734800E8684046FEF76CF906464046FEF764F9E1
:1073580046EA0026A5F8B66DB5F87230A5F8B83D2E
:10736800B5F87030A5F8BA3DB5F87A30A5F8BC3D47
:10737800B5F87C30A5F8BE3DB5F86E30A5F8C03D2F
:10738800B5F86C30A5F8C23DB5F87430A5F8C43D21
:10739800B5F87830A5F8C63DB5F87630A5F8C83DFB
:1073A800204600F0ECFDA5F8CA0D204600F0F3FDDC
:1073B800A5F8CC0D204600F0E8FDA5F8CE0D204636
:1073C80000F0EFFDA5F8D00D6423A5F8D23D2046C6
:1073D80000F0C9FDA5F8D40D204600F0E8FDA5F899
:1073E800D60D204600F072FCA5F8D80D204600F016
:1073F8006AFCA5F8DA0D3B46422205F658510020F2
:1074080002F07AFD92E42430FDF7C2FD0023412BFF
:1074180007D803F2AC62002125F812100133DBB261
:10742800F5E70123422205F65851002002F064FDD9
:107438007CE400F6E86549792846FEF7EBF828462B
:10744800FEF7C2FA72E404350121284600F063FA17
:107458000021284600F080FA0021284600F063FA4F
:1074680064E404350021284600F076FA0021284615
:1074780000F051FA0021284600F06AFA0021284657
:1074880000F051FA0021284600F058FA4EE48B78B3
:10749800C97801EB032189B2043000F040FA45E4D1
:1074A800FEF70AFD2C1D0021204600F055FA0021A8
:1074B800204600F038FA0021204600F03FFA012368
:1074C80085F8E53E002285F8E42E85F8F83F2DE49E
:1074D80090F8E43E022B02D0022380F8E43E002319
:1074E80085F8F83F22E4012100F6E860FEF7CCF8C1
:1074F8001CE400F6E860FEF753FA17E4FEF7DCFC3C
:1075080041F218030122EA5410E400F5E675284612
:1075180002F0F9F9A17988423FF408AC284602F054
:10752800EFF903E400F5E675284602F0F2F961790F
:1075380088423FF4FBAB284602F0E8F9FFF7F6BBB8
:107548004B7980F8FC3FFFF7F1BB012380F8FB3F44
:1075580080F8FC3FFFF7EABB002380F8FB3FFFF70A
:10756800E5BB00BF70B5044600F6E8663046FDF797
:10757800C7FFC4F8DB0F3046FDF7C4FFC4F8DF0FC0
:107588002046FEF7AFFC47F6FF721B49FEF7A0FC4A
:107598004FF6FF72002100F5FF407F30FEF798FCA0
:1075A800A4F8E30F4FF0FF3384F8E53F7F2384F816
:1075B800E63F04F124052846FDF71EFEA4F8E70F70
:1075C8002846FDF72FFEA4F8E90F2846FDF742FFED
:1075D800A4F8EB0F2846FDF7F9FDA4F8ED0F3046A7
:1075E800FDF792FF84F8EF0F162204F6DA710348CC
:1075F80008F055FB70BD00BF0180FFFF2C1A00206A
:107608002DE9F04F85B0044603F052FB41F20C031C
:10761800E358984204D041F20703E35C002B63D09F
:1076280041F20A03E35C1BB941F20B03E35C2BB3A1
:107638002046FEF7DBFF41F20B030022E25441F241
:107648000A03E35CBBB141F20A03E25494F8E43E56
:10765800012B00F0C680022B00F0BC80002B4DD01F
:1076680094F8D93F0133DBB284F8D93F94F8D82F86
:10767800934280F0CF802046FEF78EFD04F124056A
:107688002846FDF706FF06462846FDF71DFF074674
:107698002846FDF71EFC80462846FDF71DFC81465E
:1076A8002846FDF722FC82462846FDF71BFC834648
:1076B8002846FDF714FC0390CDF808B0CDF804A0D7
:1076C800CDF8009043463A46314604F6E860FEF7A6
:1076D8005FF804F60C5002F0A7FC04F5536002F0C2
:1076E800A3FC05B0BDE8F08F03F0E2FA41F20C0309
:1076F800E05041F20A030122E25491E7251D284691
:1077080000F007F9002859D0B4F8561D2046FEF7B6
:107718002FFFC4F8F40F94F8E53E012B13D0022B89
:1077280023D0002B9CD1284600F0F7F84142204690
:10773800FEF788FBD4F8F42F4E4B9A4290DA0223D6
:1077480084F8E53E8CE7284600F0E7F80146204635
:10775800FEF778FBD4F8F42F47F6FE739A427FF7CA
:107768007FAF002384F8E53E7AE742F210720021E9
:1077780041F66A00FEF7C2FB05B22046FEF7B2FBEF
:10778800434207EE903AF8EEE77AB7EE0C7A67EEE6
:10779800877A2A466942FDEEE77A17EE900AFEF7E5
:1077A800ADFB01462046FEF74DFBD4F8F43F002B15
:1077B8007FF456AF022384F8E43E51E700212846BF
:1077C80000F0C6F80021284600F0ADF8022384F83E
:1077D800E43E45E7284B8B229A71012384F8E43E66
:1077E8003EE704F50275284600F0D5F90146204623
:1077F800FEF7EAFB01230093D4F8643ED4F8682E20
:10780800D4F86C1E284601F083F801462046FEF79E
:1078180019FB25E7002384F8D93F2046FFF7A2FE8D
:1078280094F8F93F23B123685B692046984722E71B
:1078380094F8FA3F23B12368DB69204698471AE792
:1078480094F8F83F23B12368DB682046984712E78D
:1078580041F21803E35C23B123681B6A204698476A
:1078680009E794F8FB3F002B3FF405AF2046FEF7ED
:10787800FBFE00E70280FFFF3C06002070B50446CF
:1078880090F8283093B91F4B00229A70DA7094F858
:107898002930D3B91B4B00221A715A7194F82A3037
:1078A80013BB184B00229A71DA7170BD00F12406DF
:1078B8003046FDF75FFDC0B2124DA8703046FDF7A7
:1078C80059FDC0F30720E870E1E704F124063046CB
:1078D800FDF774FDC0B20B4D28713046FDF76EFD03
:1078E800C0F307206871D9E724342046FDF78AFDE4
:1078F800C0B2044DA8712046FDF784FDC0F30720EF
:10790800E871D2E73C060020704740687047416044
:107918007047007D704701757047808B7047818381
:107928007047808970478181704783681B685B6AEC
:10793800A3F5FF437F3B00691844704701618368E2
:107948001B6801F5FF417F315962704780697047B4
:1079580081617047407D70474175704710B5044696
:10796800202108F09DFA204610BD0000054A02605B
:1079780000224260828102610275427582618283BF
:10798800704700BFE82D0108014B8360704700BFB6
:10799800C019002038B50446002585810575858302
:1079A80003685B6942F2107198472368DB682946CF
:1079B8002046984738BD83681B685A6AD96AB2EB73
:1079C800510F05D9DA6A013203699B1A03617047BE
:1079D800DA6A0132036913440361704708B58368A2
:1079E8008B4200D008BDFFF7E6FFFBE7704710B5F4
:1079F800044640F6043108F053FA204610BD000052
:107A080038B505462C4B03602C4B1B6883801B0C38
:107A180083712B4A42612B4B8361002404770262F5
:107A2800436280F82840C262036380F834404FF410
:107A38007A7383634FF4FA73C363462380F8403044
:107A4800214B43644FF42A62214648300AF0F4FF80
:107A5800214601EB011305EB8303FF2283F84C2039
:107A6800272901D00131F4E70023C5F8EC3A85F85D
:107A7800F03AA5F8F23AFF2285F8F42A85F8F52AB3
:107A880085F8F62A85F8F72A85F8F82A85F8F93A64
:107A9800A5F8FA3A642385F8FC3A85F8FD3A85F8A2
:107AA800FE3A85F8FF3A85F8003B85F8013B85F8F2
:107AB800023B284638BD00BF302E01084C2D010876
:107AC80000004842CDCC4C3E0AD7233C0023272B4C
:107AD8000CD803EB031200EB820292F8492012B192
:107AE8000133DBB2F3E70133D8B2704700207047A7
:107AF8004B78013BB1F9022003EB031300EB83033E
:107B0800A3F84E20704710B44A78013AB1F90340FF
:107B180002EB021300EB8303A3F85C40B1F90740C2
:107B2800A3F86040B1F90540A3F85E40B1F80B40F6
:107B3800A3F86440B1F80940A3F86240B1F80D1009
:107B4800A3F8661093F85A10013183F85A10A3B2BB
:107B58003BB902EB021300EB830347F6FF71A3F86E
:107B6800621002EB021300EB8303B3F864303BB9F5
:107B780002EB021200EB820247F6FF73A2F86430B0
:107B88005DF8044B7047012380F8F93A70470023E9
:107B980080F8F93A704790F8F90A7047272919D8F8
:107BA80070B505460C4601EB011300EB8303002278
:107BB80083F84920DE6F66B1304600F02BFF2C2198
:107BC800304608F06DF904EB041405EB8404002337
:107BD800E36770BD704738B50546002405E02146C7
:107BE8002846FFF7DBFF0134E4B2272CF7D901233D
:107BF80085F8E93A0A2385F8EA3A0023A5F8F23A23
:107C080038BD38B505460C4611F0010F0FD114F0F8
:107C1800020F0FD114F0040F10D114F0080F11D176
:107C280014F0100F15D114F0200F16D138BDFFF73E
:107C3800AAFFECE72846FFF7AAFFEBE72846FFF77D
:107C4800A6FFEAE72846FFF7A2FF2846FFF7C3FF8B
:107C5800E6E72846FFF79BFFE5E72846FFF793FF8F
:107C6800E4E710B44B78013B8C7803EB031200EB8C
:107C78008202A2F870408C885467CC78A2F87240CF
:107C8800C98891671346012283F88A205DF8044B5E
:107C9800704710B44B78013B03EB031200EB8202F0
:107CA80047F6FF74A2F84E4091F90240A2F85040FE
:107CB80091F9032003EB031300EB8303A3F852208D
:107CC8005DF8044B704790F840007047C06B7047F0
:107CD80070B504460D464B78013B052B15D8DFE8F7
:107CE80003F07C1414032A53486B78B194ED050A09
:107CF800D4ED0E7AF8EE677A9FED561AD4ED060A9F
:107D080080EE270A217F01F03FFA70BD2C2008F091
:107D1800C9F8064694ED050AD4ED0E7AF8EE677AAE
:107D28009FED4C1AD4ED060A80EE270A217F01F058
:107D380043FA6E63E9E7486B80B194ED080AD4ED25
:107D48000E7AF8EE677A9FED431AD4ED090A80EEB1
:107D5800270A94F8281001F017FAD6E72C2008F023
:107D6800A1F8064694ED080AD4ED0E7AF8EE677A83
:107D78009FED381AD4ED090A80EE270A94F82810E6
:107D880001F01AFA6E63C0E7486B80B194ED0B0AF4
:107D9800D4ED0E7AF8EE677A9FED2E1AD4ED0C0A20
:107DA80080EE270A94F8341001F0EEF9ADE72C20A4
:107DB80008F078F8064694ED0B0AD4ED0E7AF8EE42
:107DC800677A9FED241AD4ED0C0A80EE270A94F8FE
:107DD800341001F0F1F96E6397E7486BD0B1D4ED38
:107DE8000F7AB8EE670AD4ED0E7AB8EE677AD4ED5A
:107DF800110A94F84030013307EE903AF8EEE77A2A
:107E08009FED141A67EEA00A80EE070A002101F020
:107E1800BBF97AE72C2008F045F80646D4ED0F7A2E
:107E2800B8EE670AD4ED0E7AB8EE677AD4ED110A87
:107E380094F84030013307EE903AF8EEE77A9FED78
:107E4800051A67EEA00A80EE070A002101F0B4F9CE
:107E58006E635AE7000000002DE9F04192B0054634
:107E68000E4614461D2313704978FFF72FFE20B9DC
:107E78000223A37012B0BDE8F08107464FF0440812
:107E88004246002101A80AF0D7FDFF238DF80830EB
:107E980073788DF8053001A92846FFF719FF781E79
:107EA80000EB001005EB8000424601A948300AF0BB
:107EB800B5FD85F8E97A6770B5F8F23A01339BB2F7
:107EC800A5F8F23AC3F12803A4F803300123A370FC
:107ED800D0E770B54C78631EDBB2272B31D8064645
:107EE8000D46013C04EB041189004831014404EBC0
:107EF800041300EB830393F84920AB789A4221D10D
:107F08006A7A04EB041306EB830383F84C20AA78FF
:107F180083F84920B5F80720A3F88820EA7A83F87F
:107F280054202A7BA3F856206A7BA3F85820B5F87A
:107F3800033004EB041406EB8404E36696F8F93A7C
:107F480053B170BD04EB041300EB83030022C3F8A4
:107F58008420FFF7BDFED3E73046FFF714FEF0E7B5
:107F680080F8021B704790F8020B7047A0F8FA1AC5
:107F78007047B0F8FA0A704780F8FD1A704790F811
:107F8800FD0A704780F8FE1A704790F8FE0A70479D
:107F980080F8FF1A704790F8FF0A704780F8001BB6
:107FA800704790F8000B704780F8FC1A704790F8FB
:107FB800FC0A704780F8011B704700002DE9F0416A
:107FC8000C461546B1F906800F8D4E8D02F070FEF5
:107FD800E36BC11AD4F82CC08C4524D9A8EB07024E
:107FE80001FB02F292FBFCF23A44676A4FF6FF7C0F
:107FF80067450DD0246BA7EB040C8C4508D2A8EB81
:1080080006081A1A3A4402FB08F292FBF4F23244C8
:1080180005FB02F2054880FB02301044D217C2EB80
:10802800A030BDE8F0814246DFE700BF03000180D1
:108038002DE9F0412DED028B82B005460C464B78B8
:10804800013B0A2B00F2A181DFE813F00B0041018C
:108058009F019F019F019F015A0088003900C900B4
:108068000201B1F906300A7902FB0333002B24DB45
:108078001B1207EE903A95F8FD3A07EE103AB8EE63
:10808800477A9FEDCB6AC7EE066AF8EEE77A67EEA5
:10809800A67AFDEEE77A17EE900AEB6BAA6BB3EBC4
:1080A800520F80F07381B8EEE70A606B00F0B3FC02
:1080B800FDEEC07A17EE900A68E1FF33D8E702F0C8
:1080C800F7FDE36BC31A616AB4F90820B4F90A0032
:1080D800801A03FB00F393FBF1F3134407EE903A85
:1080E800B8EEE77A2379013307EE903AF8EEE77AAB
:1080F80067EE877AFDEEE77A17EE900A001245E1FF
:1081080002F0D6FDE36BC31AB4F920001844638C5F
:108118000233B0FBF3F203FB1200B0EB530F1AD299
:10812800B4F906205242B4F90230134407EE903AEB
:1081380095F8003B07EE103AB8EE477A9FED9C6A37
:10814800C7EE066AF8EEE77A67EEA67AFDEEE77AFA
:1081580017EE900A1AE1B4F90620E4E7B1F90280B3
:10816800B1F9066002F0A4FDE36BC31AB4F920105C
:10817800678C07EE907AF8EE676AA8EB060207FBB1
:1081880001F18C48A0FB010103EB9131B1FBF7F33E
:1081980007FB131307EE903AF8EE677AB60007EE7E
:1081A800106AB8EEC77A87EE266AB6EE007A26EE2F
:1081B800877AB4EEE77AF1EE10FA09D576EEE77A27
:1081C80067EE867AFDEEE77A17EE900A1044DDE056
:1081D80067EE867AFDEEE77A17EE900AF6E7B1F9D0
:1081E800023008EE103AB8EEC88AB1F9063008EE47
:1081F800903AF8EEE88A02F05BFDE36BC01AB4F936
:108208002020618C07EE901AF8EE677A78EE286ADB
:1082180038EE688A01FB02F2664BA3FB023200EBE0
:108228009230B0FBF1F301FB130007EE100AB8EE31
:10823800477A76EEC86A86EEA76A77EEC77A67EE5F
:10824800867A77EE887AFDEEE77A17EE900A9DE057
:10825800B1F9023008EE103AB8EEC88AB1F9063022
:1082680008EE903AF8EEE88A02F022FDE36BC31AB2
:10827800B4F9202007EE102AB8EEC77A628C07EE10
:10828800902AB8EE676A78EE286A38EE688A27EE90
:10829800067ADFED495AC7EE257AFDEEE77A17EE42
:1082A800900A1844B0FBF2F302FB130307EE903A6E
:1082B800F8EE677A36EEC87AC7EE066A67EEA67AEF
:1082C80077EE887AFDEEE77A17EE900A5EE002F024
:1082D800EFFCE36BC31A07EE903A04F12203022283
:1082E800ADF80620628C012A4CD91B8807EE103A9B
:1082F800B8EE477AF7EE006A86EE876AB4F920305E
:1083080007EE103AB8EEC77ADFED2B5AC7EE256AAA
:10831800F8EE677A67EE867A77EEA67A17EE900A15
:10832800FCF7BAF820A3D3E90023FCF70DF9FCF712
:1083380003FC00EE100A07F0B5FEB4F9063007EEAC
:10834800903AF8EEE77A20EE270AB4F9023007EE01
:10835800903AF8EEE77A77EE807AFDEEE77A95F8CC
:10836800FF3A07EE103AB8EE477A9FED116AC7EE6A
:10837800066AF8EEE77A67EEA67AFDEEE77A17EE78
:10838800900A03E00DF10603AFE7002094F84230AD
:1083980023B902B0BDEC028BBDE8F081024621464C
:1083A8002846FFF70BFEF4E700000060FB211940A8
:1083B8000000C84285FD8274009F0C4708B50A4634
:1083C8000146024807F06BFC08BD00BF2C1A0020CC
:1083D80008B580F8E91A90F8F93A9BB11A2380F8A1
:1083E800EA3A49B1013901EB011100EB810191F839
:1083F8004830DBB2012B09D0032100F6E820FFF753
:10840800DDFF08BD092380F8EA3AEAE790F8EA3A7E
:1084180043F0100380F8EA3AEEE703461046934229
:1084280004D88B4201D2084670471846704770B589
:1084380006460D464C78013C47F6FF720121288913
:10844800FFF7EBFF04EB041306EB8303A3F86A00C2
:108458006A88A3F84E20B5F90420A3F84A20EB88CF
:1084680004EB041406EB8404A4F8683070BD38B536
:1084780004460B78013B442B26D8DFE803F023277A
:108488006E716B74252525382A2525252525252552
:108498002525252525252525252525252525252584
:1084A8002525252525252525252525252525252574
:1084B8002525252525252525252525252567252522
:1084C80025253200FFF705FD012038BDFFF7C9FB60
:1084D800FAE74978FFF795FB00212046FFF778FF78
:1084E800F2E74978013989B2FFF758FBECE74D7894
:1084F800013DEDB28B78032B18D005EB051300EB8B
:10850800830393F84830DBB2012B17D102F0D0FB7C
:1085180005EB051304EB8303B3F880201044C3F87C
:1085280084001C46012384F84830CDE705EB051587
:1085380000EB8504002384F84830C5E705EB0511F6
:10854800890048310144FFF7C3FBDFE74B7880F827
:10855800F43AB9E7FFF7CCFAB6E7FFF7D4FAB3E78E
:10856800FFF765FFB0E7FFF794FBADE7034610465A
:10857800934204D88B4201D2084670471846704788
:1085880070B52DED028B05460C4610467F22002162
:10859800FFF7ECFF85F840000CB9AC6B6408AE6BD4
:1085A800720801212046FFF738FFE86307EE900ABA
:1085B800F8EE677A07EE106AB8EE477A87EE878A90
:1085C800002401E00134E4B2272C23D804EB04137F
:1085D80005EB830393F84930012BF3D1260104EB13
:1085E800041305EB8303B0EE480AD86F00F0BCFD16
:1085F800264405EB860695ED110A95F840300133BF
:1086080007EE903AF8EEE77A27EE800AF06F00F06E
:1086180091FDD7E7BDEC028B70BD10B52DED028B37
:108628001446B0EE418AB1F91400B1F91E201B1AA4
:10863800002BB8BF5B429A4222DAB1F9183007EE34
:10864800903AF8EEE77A67EEA00A20EE800A8B8B64
:108658004A8B5942FDEEC07A17EE900AFDF74EFCA0
:1086680004FB0000001207EE900AF8EEE77A27EE06
:10867800881AFDEEC17A17EE900ABDEC028B10BD88
:108688000020EDE7000000002DE9F8432DED028BF6
:1086980006460D4690461F469DF830409DF83430FA
:1086A8000A7B042A04D074B9CA8907EE902A02E02A
:1086B800CA8907EE902A012B09D9AA7C9A4233D39A
:1086C8004FF0000905E00A8A07EE902AF3E74FF019
:1086D8000009F8EE677A17EE900AFBF7DDFE88A32B
:1086E800D3E90023FBF730FF87A3D3E90023FCF786
:1086F80055F8FCF721FA00EE100AC4B907F0D2FCCD
:10870800B0EE408AB9F1000F01D1B7EE008A6A785D
:10871800013A0A2A00F2E580DFE802F00E0E23870C
:1087280058B60E0E0E0E0E004FF00109D1E707F0F5
:1087380007FCB1EE408AE5E7C8F1000407EE904A6D
:10874800F8EEE77A27EE880AFDEEC07A17EE903A3F
:1087580096F8F40A00FB03331812BDEC028BBDE84F
:10876800F883B5F91420B5F91E30BA422CDD4FF064
:10877800FF3101FB0323FB1A00EE103AB0EE481A52
:10878800DFED590A3B4696F8F62AB8EEC00A2946A4
:108798003046FFF742FF07EE900A96F8FE3A06EEDB
:1087A800903AF8EE666A9FED516A86EE867AF8EEA0
:1087B800E77A27EE877ADFED4E7A77EEC77AFDEE15
:1087C800E77A17EE903AC3E70121D2E7DDED0A7A9E
:1087D800B8EEE70A686B00F01EF9B0EE481ADFED54
:1087E800450A3B4696F8F52AF5EE007A20EE270A68
:1087F80029463046FFF711FF07EE900A96F8023B2C
:1088080006EE903AF8EE666A9FED386A86EE867A4A
:10881800F8EEE77A27EE877ADFED357A77EEC77AD2
:10882800FDEEE77A17EE903A92E7DDED0A7AB8EEB8
:10883800E70A686B00F0EFF8B0EE481ADFED2E0A91
:108848003B4696F8F72ADFED2D7A20EE270A2946CF
:108858003046FFF7E2FE07EE900A96F8FC3A06EE7D
:10886800903AF8EE666A9FED216A86EE867AF8EE0F
:10887800E77A27EE877ADFED1E7A77EEC77AFDEE84
:10888800E77A17EE903A63E70B9B9B0000EE103AED
:10889800B8EEC00A686B00F0BEF8B0EE481AF6EE03
:1088A800000A3B4696F8F82A29463046FFF7B5FEF7
:1088B80007EE900A96F8013B06EE903AF8EE666AE3
:1088C8009FED0A6A86EE867AF8EEE77A27EE877ACF
:1088D800DFED077A77EEC77AFDEEE77A17EE903A82
:1088E80036E7002334E700BF17B7D1390000C84284
:1088F800000000000AD7A33D9A99193F0000803D67
:10890800182D4454FB211940000000000094E14058
:108918002DE9F04F87B00746059193469A46002403
:10892800A146A04625E006EB061307EB830393F860
:108938004830E3B106EB061607EB860696F85A3080
:10894800002B4DD00123039300230293CDF804A0FC
:10895800CDF800B0059B4A4629463846FFF794FEF5
:1089680047F6FF722A494044FDF7C8FA80460134A9
:10897800E4B2272C3AD8264604EB0415AD00483556
:108988003D4404EB041307EB830393F84830002BB2
:10899800C9D004EB041307EB8303DA6E4FF6FF73B9
:1089A8009A42C0D002F084F904EB041307EB830366
:1089B800D3F884309842DAD302F07AF904EB04133E
:1089C80007EB8303D3F88420DB6E13449842AAD9BB
:1089D80004EB041307EB8303002283F84820A2E783
:1089E80029463846FFF724FB8146ABE7B7F8FA3A41
:1089F8004BB1B8F1FF3F04DBB8F1010F03DD984438
:108A080001E0A8EB0308404607B0BDE8F08F00BFBF
:108A18000180FFFF7047B0EE407AD0ED017A67EE33
:108A2800807A90ED090A37EE800AD0ED027A67EE77
:108A3800877AD0ED0A6A77EEA67AD0ED046A66EEF8
:108A4800806A77EEE67AC0ED097AD0ED037A67EEB0
:108A5800877A90ED057A27EE007A77EEC77AC0ED2F
:108A68000A7A7047000000002DE9F0472DED068BCB
:108A780082B08246002343628362D0ED087AF0EE2A
:108A8800E77A17EE900AFBF707FD0022EC4BFBF79D
:108A980085FE41EC110B9FEDE40B07F045FB51EC13
:108AA800100BFCF749F808EE900ADAF81800FBF703
:108AB800F3FCDFA3D3E90023FBF746FD41EC100BE1
:108AC80007F00EFA51EC100BFCF736F808EE100A16
:108AD8009AF80030062B30D8DFE813F0070034008E
:108AE8005D008700B00025013202DAED077A88EED2
:108AF800276AF7EE007A36EE277A28EE088A37EEEC
:108B0800087AC7EE876A28EE267A8AED017A77EE28
:108B1800075ACAED025A8AED037A38EE677A37EEB9
:108B2800077A27EE267A8AED047A77EEC67A38EE47
:108B3800278A28EE268A8AED058A02B0BDEC068BC4
:108B4800BDE8F087DAED077A88EE276AF7EE007A53
:108B580036EE277A28EE088A37EE087AC7EE876A53
:108B6800CAED016AB8EE007A26EE877A8AED027AB3
:108B7800CAED036A38EE677A37EE077A27EE267A67
:108B88008AED047A77EEC67A38EE278A28EE268AA6
:108B98008AED058AD1E7DAED077A88EE276AF7EEDB
:108BA800007A36EE277A28EE088A37EE087AC7EE7A
:108BB800876A26EE267A8AED017A0023CAF80830F9
:108BC800B1EE477A8AED037A38EE677A37EE077A9C
:108BD80027EE267A8AED047A77EEC67A38EE278A67
:108BE80028EE268A8AED058AA7E7DAED077AC8EE25
:108BF800275AF7EE007A35EEA77A28EE088A37EE7C
:108C0800087A87EE876A78EE276A66EE866ACAED82
:108C1800016A38EE677A37EE077A27EE067A8AED28
:108C2800027ACAED036A8AED047A77EEE57A38EEBD
:108C3800278A28EE068A8AED058A7EE7DAED087A21
:108C4800F5EEC07AF1EE10FA36DB9AED075AF7EE38
:108C5800006AC6EE855A65EE885A75EEA67A28EE41
:108C6800087A77EE877A86EEA76AC8EE857A27EEC5
:108C7800888A78EE267A77EE277A67EE867ACAEDC2
:108C8800017A77EE667A77EEA77A67EE867ACAED8A
:108C9800027A36EEC88A37EE088A28EE068A8AED06
:108CA800038ACAED047A76EEE56A37EE267A27EE6D
:108CB800067A8AED057A40E79AED076AC8EE866A71
:108CC80026EE885AF7EE006A75EE267A28EE087ABC
:108CD80077EE877AC6EEA75AC6EE867A27EE888A96
:108CE80078EE267A77EE277A67EEA57ACAED017ACA
:108CF80037EE666A36EE066A26EE256A8AED026A5D
:108D080036EEC88A77EE087A67EEA57ACAED037A56
:108D18008AED046A76EEC56A37EE267A27EE257A5A
:108D28008AED057A09E7DAED087AF5EEC07AF1EE10
:108D380010FAC0F28980FBF7AFFB3FA3D3E9002309
:108D4800FBF702FC06460F4600223E4BFBF746FAAD
:108D58008046894628EE089A19EE100AFBF79CFB14
:108D680004460D4602460B4640464946FBF736FA8E
:108D780002460B4600203349FBF710FDFBF7DCFEEB
:108D880009EE900A78EEA8AAB0EE6A0A07F07AFA15
:108D980068EE007AB7EE00AA77EE8A7A68EE888ADB
:108DA80068EE888A77EEA87A67EEA97ACAED017A22
:108DB80078EECA7A77EEA77A67EEA97ACAED027AD0
:108DC800B0EE6A0A07F05EFA28EE008A3AEE488AA0
:108DD80078EE888A68EEA98ACAED038A39EE4A9A3B
:108DE80039EE099A29EE299A8AED049A32463B46C9
:108DF80000201449FBF7F0F902460B4620462946A5
:108E0800FBF7ECF904460D4619EE900AFBF744FB14
:108E180002460B4620462946FBF796FBFBF78CFEDD
:108E2800CAF8140089E600BF0000000000002440D2
:108E3800182D4454FB210940CD3B7F669EA0F63F88
:108E4800000034400000F03F38EEA8AAB0EE4A0A0D
:108E580007F018FA68EE007AF7EE009A77EEA97A2A
:108E680068EE888A68EE888A77EEA87AC9EEA7AA9B
:108E780018EE100AFBF710FBABA3D3E90023FBF7AE
:108E880063FB02460B46CDE900230022A84BFBF703
:108E9800A5F904460D4628EE089A19EE100AFBF7C4
:108EA800FBFA06460F4602460B4620462946FBF7C4
:108EB80095F9804689461AEE900AFBF7EDFA0446C2
:108EC8000D4602460B4640464946FBF73DFBFBF77D
:108ED80033FECAF8040039EE699A39EE099A29EE88
:108EE8002A9A8AED029ADDE9002300209049FBF7CF
:108EF80073F902460B4630463946FBF76FF90246CE
:108F08000B4620462946FBF71FFBFBF715FECAF860
:108F18000C0078EEE97A77EEA77A67EEAA7ACAEDBE
:108F2800047AB0EE4A0A07F0ADF928EE008A79EE25
:108F3800C89A78EEA98A68EEAA8ACAED058AFCE57D
:108F4800DAED087AF5EEC07AF1EE10FA73DBFBF78A
:108F5800A3FA75A3D3E90023FBF7F6FA80468946FE
:108F68000022734BFBF73AF906460F4628EE089A9B
:108F780019EE100AFBF790FA04460D4602460B4616
:108F880030463946FBF72AF902460B460020684965
:108F9800FBF704FCFBF7D0FD09EE900A38EEA8AA0F
:108FA800B0EE4A0A07F06EF968EE007A77EEA87A12
:108FB80079EE277A67EEA97ACAED017A79EE687AAE
:108FC80077EEA77A67EEA97ACAED027AB0EE4A0A76
:108FD80007F058F928EE008A38EEC88A39EE088A70
:108FE80028EE298A8AED038AF7EE007A39EE679A25
:108FF80039EE099A29EE299A8AED049A42464B4697
:1090080000204B49FBF7E8F802460B462046294664
:10901800FBF7E4F804460D4619EE900AFBF73CFA14
:1090280002460B4620462946FBF78EFAFBF784FDDD
:10903800CAF8140081E578EEA8AAB0EE6A0A07F02B
:1090480021F968EE007A77EEA87A28EE089A77EE8A
:10905800897AF7EE009A89EEA7AA18EE100AFBF7AC
:109068001BFA31A3D3E90023FBF76EFA02460B463D
:10907800CDE9002300222E4BFBF7B0F804460D463D
:1090880019EE100AFBF708FA06460F4602460B4689
:1090980020462946FBF7A2F8804689461AEE100AB0
:1090A800FBF7FAF904460D4602460B464046494688
:1090B800FBF74AFAFBF740FDCAF8040079EE699A13
:1090C80079EEA99A69EE8A9ACAED029ADDE9002337
:1090D80000201749FBF780F802460B463046394610
:1090E800FBF77CF802460B4620462946FBF72CFA8C
:1090F800FBF722FDCAF80C0079EE687A77EEA77ABA
:1091080067EE8A7ACAED047AB0EE6A0A07F0BAF80E
:1091180028EE008A38EEC88A39EE088A28EE0A8ACC
:109128008AED058A09E500BFCD3B7F669EA0F63F24
:109138000000F03F08B580ED070AFFF795FC08BD71
:10914800F0EE407AB0EE410AF4EEC17AF1EE10FA90
:1091580009DCF4EEE07AF1EE10FA02D5B0EE600A1E
:109168007047B0EE670A704710B50446B6EE001AAD
:10917800DFED040AFFF7E4FF84ED060A2046FFF757
:1091880073FC10BD00000000F8B504460F4610EE51
:10919800906A11EE105AB6EE001ADFED060AFFF7D4
:1091A800CFFF2770E66184ED060A25622046FFF7A7
:1091B8005BFCF8BD0000000010B50446FFF7E4FFB3
:1091C800204610BD08B538B10122074B1988074B56
:1091D800186802F0F4FD08BD0022034B1988034B00
:1091E800186802F0ECFDF6E7480600204C0600205F
:1091F80008B538B10122074B1988074B186802F0E7
:10920800DEFD08BD0022034B1988034B186802F0E5
:10921800D6FDF6E7460600204C06002010B582B0C1
:1092280004460020FFF7CEFF04F01F048DF8044029
:109238000A4C6423012201A9204603F0C2FF6423DB
:1092480001220DF10501204604F0AEF99DF8054014
:109258000120FFF7B7FF204602B010BD50060020DE
:1092680030B583B004460D460020FFF7ABFF44F04D
:1092780020048DF804408DF805506423022201A9CA
:10928800034803F09EFF0120FFF79CFF03B030BDA9
:109298005006002070B582B004460D4616460020E0
:1092A800FFF790FF44F020048DF80440084C642335
:1092B800012201A9204603F084FF6423324629468F
:1092C800204603F07EFF0120FFF77CFF02B070BD4F
:1092D8005006002008B5FF21E120FFF7C1FF08BDB7
:1092E80008B5FF21E220FFF7BBFF08BD08B507203E
:1092F800FFF794FF08BD000008B50020FFF78EFFB8
:1093080040F00301C9B20020FFF7AAFF094BD3E9D7
:109318000023134307D1FFF7DDFFFFF7E1FF01202B
:10932800FFF766FF08BD052202490A20FFF7B2FFD2
:10933800F1E700BFB006002010B582B0CDE90023E8
:10934800044620B9144BDDE90001C3E90001062CED
:1093580019D8012C19D901226946104B185DFFF75D
:1093680099FF0F4B19780F4B185DFFF779FF022013
:10937800FFF754FF41B2012000FA04F42143C9B2B7
:109388000220FFF76DFF02B010BD05226946034BAE
:10939800185DFFF77FFFE4E7B0060020382E0108CC
:1093A800A8060020402E010808B501F00F0141EA87
:1093B8000011C9B20420FFF753FF08BD08B50146E4
:1093C8007F2828BF7F210520FFF74AFF08BD00003E
:1093D800202828BF2020014B18707047A8060020BD
:1093E800014B1878704700BFA806002070B582B0FE
:1093F80006460D46FFF7F4FF0446A84200D92C465E
:109408000020FFF7DFFE61238DF80730094D642344
:1094180001220DF10701284603F0D3FE6423A2B20E
:109428003146284604F0C0F80120FFF7CBFE02B011
:1094380070BD00BF5006002008B56020FFF7EEFEA3
:1094480008BD10B5FFF7D2FF1720FFF7E7FE00F0C1
:109458000104FFF745FFFFF7EFFF204610BD08B5F1
:109468001D20FFF7DBFE00F0FB011D20FFF7F8FED3
:1094780000211C20FFF7F4FE08BD08B520B13F21EC
:109488000120FFF7EDFE08BD00210120FFF7E8FEEF
:10949800F9E710B504460620FFF7C0FE00F0F90111
:1094A800032C09D0022C0DD0012C0ED034B1042C81
:1094B80004D141F0060101E041F006010620FFF762
:1094C800CFFE10BD41F00401F8E741F00201F5E7D5
:1094D80038B505460620FFF7A1FE00F0D704022D97
:1094E8000CD0012D0DD021460620FFF7B9FE06202D
:1094F800FFF794FEA04207D0002038BD44F02004B6
:10950800F1E744F00804EEE70120F6E710B5044659
:109518000020FFF783FE00F0F3011CB1012C05D0F9
:1095280041F00C010020FFF79BFE10BD41F008013F
:10953800F8E708B50020FFF771FE00F0FD010020F4
:10954800FFF78EFE08BD70B50546FFF7CFFE00F0A9
:109558004003002B14BF012600260BD0044615B18A
:10956800C0F342032B7040210720FFF779FE14F067
:10957800200F01D1304670BD20210720FFF770FE73
:10958800F8E708B50020FFF7DEFF08BD70B5044610
:109598000D46202A28BF202216460020FFF712FE7B
:1095A80004F007003246294640F0A800FFF772FE93
:1095B8000120FFF707FE70BD08B570210720FFF7EF
:1095C8004FFE08BD00B583B00020FFF7FBFD502318
:1095D8008DF8043073238DF805306423022201A925
:1095E800044803F0EEFD0120FFF7ECFD03B05DF841
:1095F80004FB00BF5006002082B070B582B006465A
:109608000D46144606A941F8043F58225E4809F061
:1096180005FA5E4B1E605E4B1D805E4B1C80012070
:10962800FFF7D0FD0020FFF7E3FD052001F046FB22
:1096380008210020FFF714FE3F210120FFF710FE4C
:1096480003210220FFF70CFE03210846FFF708FE5E
:1096580003210420FFF704FE02210520FFF700FE86
:109668000F210620FFF7FCFD0E210720FFF7F8FD6C
:1096780000210820FFF7F4FD00210920FFF7F0FD85
:10968800E7248DF804408DF803408DF802408DF8EA
:1096980001408DF80040052269460A20FFF7FAFDCF
:1096A800C2238DF804308DF803308DF802308DF820
:1096B80001308DF80030052269460B20FFF7EAFDDE
:1096C800C3210C20FFF7CCFDC4210D20FFF7C8FDF6
:1096D800C5210E20FFF7C4FDC6210F20FFF7C0FDEE
:1096E8008DF804408DF803408DF802408DF8014054
:1096F8008DF80040052269461020FFF7CBFD0021B8
:109708001120FFF7ADFD00211220FFF7A9FD002170
:109718001320FFF7A5FD00211420FFF7A1FD00216C
:109728001520FFF79DFD00211620FFF799FDFFF793
:1097380049FF00211C20FFF793FD00211D20FFF7A2
:109748008FFD0F210846FFF72FFE0320FFF7A1FE2C
:109758000120FFF7BDFE0220FFF7D8FEFFF77FFECE
:109768002020FFF735FEFFF727FF4C20FFF726FEE6
:10977800FFF7B0FDFFF7B4FDFFF7DBFE02B0BDE871
:10978800704002B0704700BF500600204C06002011
:10979800480600204606002008B51D20FFF73EFDBC
:1097A80040F00601C9B21D20FFF75AFD1D20FFF742
:1097B80035FD48B11C20FFF731FD40F00301C9B267
:1097C8001C20FFF74DFD08BDFFF7FCFE1D20FFF72D
:1097D80025FD40F00601C9B21D20FFF741FDE9E76C
:1097E80008B51D20FFF71AFD40F00401C9B21D207D
:1097F800FFF736FD1D20FFF711FD48B11C20FFF7CC
:109808000DFD40F03F01C9B21C20FFF729FD08BD3E
:10981800FFF7D8FE1D20FFF701FD40F00401C9B293
:109828001D20FFF71DFDE9E710B50446094B03604D
:109838008169806A04F008FCE169A06A04F004FC0C
:10984800216AA06A04F000FCA06A04F055F82046DA
:1098580010BD00BF502E010810B50446FFF7E4FF05
:109868003C21204606F01CFB204610BD10B4154ACA
:109878000260482242604FF07E51816040F6B83263
:10988800C2600022026102754275827582610422FB
:10989800C26108220262012280F82420022280F894
:1098A8002520032480F82640074C846280F82C2069
:1098B8000163242280F83820062280F839205DF8D8
:1098C800044B7047502E0108D818002001238375D7
:1098D8007047407D7047012A04D0022A06D0032A27
:1098E80008D07047836A1B6859637047836A1B688E
:1098F80099637047836A1B68D963F2E7007D7047F4
:1099080080F83810704790F83800704780F83910A0
:10991800704790F83900704770B588B00D46164604
:10992800234C204604F003F8224B23606660002392
:10993800A360E56023616361A361204604F062F9D6
:1099480048BB60230193002202920392049205927D
:109958000692079201A9164804F00AFAF0B90422FF
:109968000DEB0201124804F003FAD0B9082201A94C
:109978000F4804F0FDF9B8B90D4C0021204604F059
:10998800EBFA0421204604F0E7FA0821204604F007
:10999800E3FA08B070BD00F01FFCD2E700F01CFC31
:1099A800DDE700F019FCE1E700F016FCE4E700BF92
:1099B800D81800200000014008B503291DD8DFE8A9
:1099C80001F002233241437D012B17D046F6605344
:1099D800C360002303610175D0ED017AB8EE677AA0
:1099E8000269531C07EE903AF8EEE77AC7EE276A49
:1099F800C0ED026AC168FFF78FFF08BD44F6206317
:109A0800C36053230361E6E7437D012B05D043F28E
:109A1800B063C36000230361DDE743F62F33C360FF
:109A280053230361D7E7437D012B05D041F6583313
:109A3800C36000230361CEE742F21073C36053236F
:109A48000361C8E7437D012B05D041F26803C36079
:109A580000230361BFE741F28833C36053230361E6
:109A6800B9E710B50446017DFFF7A6FFA06A03F029
:109A780007FFA169A06A04F06FFAE169A06A04F01F
:109A88006BFA216AA06A04F067FA10BD80F82C10FE
:109A9800704790F82C00704780ED0C0A704790EDE5
:109AA8000C0A7047827D002A00F0C48070B5044615
:109AB8000D46437D012B07D0032B3ED0042B6AD0E3
:109AC800022B00F0988070BD4FF47A7303FB01F30A
