:020000040800F2
:1000000000500020A5580008C5570008C757000831
:10001000C9570008CB570008CD5700080000000062
:10002000000000000000000000000000CF570008A2
:10003000D157000800000000D3570008D55700082A
:10004000ED580008ED580008ED580008ED5800087C
:10005000ED580008ED580008ED580008ED5800086C
:10006000D9570008ED580008ED580008E15700087E
:10007000ED580008ED580008ED580008ED5800084C
:10008000ED580008ED580008ED570008ED5800083D
:10009000F9570008ED580008ED5800080558000809
:1000A0000D58000819580008ED580008ED580008D0
:1000B0001D5800082958000835580008ED58000858
:1000C000ED580008ED580008ED580008ED580008FC
:1000D000ED580008ED580008ED580008ED580008EC
:1000E000ED580008ED580008ED5800080000000029
:1000F0000000000000000000000000000000000000
:0C01000000000000000000005FF808F1A3
:1001100010B5054C237833B9044B13B10448AFF341
:1001200000800123237010BD48060020000000005D
:1001300044D2000808B5034B1BB103490348AFF391
:10014000008008BD000000004C06002044D20008DA
:1001500010F8012B11F8013B012A28BF9A42F7D071
:10016000D01A704781F0004102E000BF83F00043E5
:1001700030B54FEA41044FEA430594EA050F08BF42
:1001800090EA020F1FBF54EA000C55EA020C7FEA06
:10019000645C7FEA655C00F0E2804FEA5454D4EB83
:1001A0005555B8BF6D420CDD2C4480EA020281EA4D
:1001B000030382EA000083EA010180EA020281EA85
:1001C0000303362D88BF30BD11F0004F4FEA0131D7
:1001D0004FF4801C4CEA113102D0404261EB4101E6
:1001E00013F0004F4FEA03334CEA133302D052426C
:1001F00063EB430394EA050F00F0A780A4F1010428
:10020000D5F1200E0DDB02FA0EFC22FA05F2801861
:1002100041F1000103FA0EF2801843FA05F3594147
:100220000EE0A5F120050EF1200E012A03FA0EFCC6
:1002300028BF4CF0020C43FA05F3C01851EBE371F0
:1002400001F0004507D54FF0000EDCF1000C7EEB0D
:1002500000006EEB0101B1F5801F1BD3B1F5001F4B
:100260000CD349085FEA30004FEA3C0C04F101046A
:100270004FEA445212F5800F80F09A80BCF1004F93
:1002800008BF5FEA500C50F1000041EB045141EA15
:10029000050130BD5FEA4C0C404141EB010111F416
:1002A000801FA4F10104E9D191F0000F04BF0146C1
:1002B0000020B1FA81F308BF2033A3F10B03B3F19F
:1002C00020020CDA0C3208DD02F1140CC2F10C022F
:1002D00001FA0CF021FA02F10CE002F11402D8BF8D
:1002E000C2F1200C01FA02F120FA0CFCDCBF41EA59
:1002F0000C019040E41AA2BF01EB0451294330BD28
:100300006FEA04041F3C1CDA0C340EDC04F1140404
:10031000C4F1200220FA04F001FA02F340EA0300DB
:1003200021FA04F345EA030130BDC4F10C04C4F121
:10033000200220FA02F001FA04F340EA0300294601
:1003400030BD21FA04F0294630BD94F0000F83F44B
:10035000801306BF81F480110134013D4EE77FEA2E
:10036000645C18BF7FEA655C29D094EA050F08BF7A
:1003700090EA020F05D054EA000C04BF194610465B
:1003800030BD91EA030F1EBF0021002030BD5FEA9F
:10039000545C05D14000494128BF41F0004130BDC7
:1003A00014F580043CBF01F5801130BD01F000451B
:1003B00045F0FE4141F470014FF0000030BD7FEA8E
:1003C000645C1ABF194610467FEA655C1CBF0B4689
:1003D000024650EA013406BF52EA033591EA030FA0
:1003E00041F4002130BD00BF90F0000F04BF002198
:1003F000704730B54FF4806404F132044FF00005CB
:100400004FF0000150E700BF90F0000F04BF002143
:10041000704730B54FF4806404F1320410F00045A9
:1004200048BF40424FF000013EE700BF42004FEAA4
:10043000E2014FEA31014FEA02701FBF12F07F4321
:1004400093F07F4F81F06051704732F07F4208BFD8
:10045000704793F07F4F04BF41F40021704730B5DF
:100460004FF4607401F0004521F000411CE700BF2B
:1004700050EA010208BF704730B54FF000050AE0AE
:1004800050EA010208BF704730B511F0004502D5AF
:10049000404261EB41014FF4806404F132045FEAB1
:1004A000915C3FF4D8AE4FF003025FEADC0C18BF5A
:1004B00003325FEADC0C18BF033202EBDC02C2F14C
:1004C000200300FA03FC20FA02F001FA03FE40EADE
:1004D0000E0021FA02F11444BDE600BF70B54FF0E2
:1004E000FF0C4CF4E06C1CEA11541DBF1CEA1355C0
:1004F00094EA0C0F95EA0C0F00F0DEF82C4481EA28
:10050000030621EA4C5123EA4C5350EA013518BF47
:1005100052EA033541F4801143F4801338D0A0FB34
:1005200002CE4FF00005E1FB02E506F00042E0FBE1
:1005300003E54FF00006E1FB03569CF0000F18BFE7
:100540004EF0010EA4F1FF04B6F5007F64F540748F
:1005500004D25FEA4E0E6D4146EB060642EAC62122
:1005600041EA55514FEAC52040EA5E504FEACE2E8F
:10057000B4F1FD0C88BFBCF5E06F1ED8BEF1004F92
:1005800008BF5FEA500E50F1000041EB045170BD0E
:1005900006F0004646EA010140EA020081EA030152
:1005A000B4EB5C04C2BFD4EB0C0541EA045170BD4E
:1005B00041F480114FF0000E013C00F3AB8014F1C8
:1005C000360FDEBF002001F0004170BDC4F1000411
:1005D000203C35DA0C341BDC04F11404C4F1200592
:1005E00000FA05F320FA04F001FA05F240EA0200ED
:1005F00001F0004221F0004110EBD37021FA04F623
:1006000042EB06015EEA430E08BF20EAD37070BDDC
:10061000C4F10C04C4F1200500FA04F320FA05F03B
:1006200001FA04F240EA020001F0004110EBD3703D
:1006300041F100015EEA430E08BF20EAD37070BDAD
:10064000C4F1200500FA05F24EEA020E20FA04F386
:1006500001FA05F243EA020321FA04F001F0004135
:1006600021FA04F220EA020000EBD3705EEA430EA6
:1006700008BF20EAD37070BD94F0000F0FD101F0D5
:100680000046400041EB010111F4801F08BF013C0E
:10069000F7D041EA060195F0000F18BF704703F04C
:1006A0000046520043EB030313F4801F08BF013DD3
:1006B000F7D043EA0603704794EA0C0F0CEA13558F
:1006C00018BF95EA0C0F0CD050EA410618BF52EA49
:1006D0004306D1D181EA030101F000414FF000004F
:1006E00070BD50EA410606BF1046194652EA43065D
:1006F00019D094EA0C0F02D150EA013613D195EAD1
:100700000C0F05D152EA03361CBF104619460AD118
:1007100081EA030101F0004141F0FE4141F4700122
:100720004FF0000070BD41F0FE4141F4780170BD12
:1007300070B54FF0FF0C4CF4E06C1CEA11541DBF77
:100740001CEA135594EA0C0F95EA0C0F00F0A7F879
:10075000A4EB050481EA030E52EA03354FEA0131A6
:1007600000F088804FEA03334FF0805545EA1313B9
:1007700043EA12634FEA022245EA111545EA106581
:100780004FEA00260EF000419D4208BF964244F118
:10079000FD0404F5407402D25B084FEA3202B61A37
:1007A00065EB03055B084FEA32024FF480104FF40B
:1007B000002CB6EB020E75EB030E22BFB61A75467F
:1007C00040EA0C005B084FEA3202B6EB020E75EB12
:1007D000030E22BFB61A754640EA5C005B084FEA7A
:1007E0003202B6EB020E75EB030E22BFB61A754647
:1007F00040EA9C005B084FEA3202B6EB020E75EB52
:10080000030E22BFB61A754640EADC0055EA060E12
:1008100018D04FEA051545EA16754FEA06164FEA55
:10082000C30343EA52734FEAC2025FEA1C1CC0D101
:1008300011F4801F0BD141EA00014FF000004FF08E
:10084000004CB6E711F4801F04BF01430020B4F14F
:10085000FD0C88BFBCF5E06F3FF6AFAEB5EB030C07
:1008600004BFB6EB020C5FEA500C50F1000041EB04
:10087000045170BD0EF0004E4EEA113114EB5C04D1
:10088000C2BFD4EB0C0541EA045170BD41F48011A4
:100890004FF0000E013C90E645EA060E8DE60CEAAC
:1008A000135594EA0C0F08BF95EA0C0F3FF43BAFC9
:1008B00094EA0C0F0AD150EA01347FF434AF95EA80
:1008C0000C0F7FF425AF104619462CE795EA0C0F64
:1008D00006D152EA03353FF4FDAE1046194622E731
:1008E00050EA410618BF52EA43067FF4C5AE50EA0B
:1008F00041047FF40DAF52EA43057FF4EBAE12E7FB
:100900004FF0FF3C06E000BF4FF0010C02E000BFDB
:100910004FF0010C4DF804CD4FEA410C7FEA6C5CBE
:100920004FEA430C18BF7FEA6C5C1BD001B050EA61
:10093000410C0CBF52EA430C91EA030F02BF90EA4C
:10094000020F0020704710F1000F91EA030F58BF0B
:10095000994208BF90422CBFD8176FEAE37040F06D
:10096000010070474FEA410C7FEA6C5C02D150EA0B
:10097000013C07D14FEA430C7FEA6C5CD6D152EAC6
:10098000033CD3D05DF8040B704700BF844610468B
:1009900062468C461946634600E000BF01B5FFF78A
:1009A000B7FF002848BF10F1000F01BD4DF808ED5A
:1009B000FFF7F4FF0CBF012000205DF808FB00BF2B
:1009C0004DF808EDFFF7EAFF34BF012000205DF885
:1009D00008FB00BF4DF808EDFFF7E0FF94BF0120D2
:1009E00000205DF808FB00BF4DF808EDFFF7CEFFD3
:1009F00094BF012000205DF808FB00BF4DF808ED12
:100A0000FFF7C4FF34BF012000205DF808FB00BFE2
:100A10004FEA410C7FEA6C5C02D150EA013C0AD1FA
:100A20004FEA430C7FEA6C5C02D152EA033C02D1EC
:100A30004FF0000070474FF0010070474FEA41024D
:100A400012F5001215D211D56FF47873B3EB625220
:100A500012D94FEAC12343F0004343EA505311F047
:100A6000004F23FA02F018BF404270474FF00000D9
:100A7000704750EA013005D111F0004008BF6FF017
:100A8000004070474FF00000704700BF4A0011D28D
:100A900012F5001211D20DD56FF47873B3EB6252D8
:100AA0000ED44FEAC12343F0004343EA505323FAE4
:100AB00002F070474FF00000704750EA013002D159
:100AC0004FF0FF3070474FF0000070474FEA41028F
:100AD000B2F1E04324BFB3F5001CDCF1FE5C0DD99C
:100AE00001F0004C4FEAC0024CEA5070B2F1004FE6
:100AF00040EB830008BF20F00100704711F0804FE9
:100B000021D113F13872BCBF01F00040704741F4AD
:100B100080114FEA5252C2F11802C2F1200C10FAB1
:100B20000CF320FA02F018BF40F001004FEAC12395
:100B30004FEAD32303FA0CFC40EA0C0023FA02F339
:100B40004FEA4303CCE77FEA625307D150EA01330F
:100B50001EBF4FF0FE4040F44000704701F00040DF
:100B600040F0FE4040F40000704700BF80F00040BD
:100B700002E000BF81F0004142001FBF5FEA410375
:100B800092EA030F7FEA226C7FEA236C6AD04FEA75
:100B90001262D2EB1363C1BFD218414048404140BA
:100BA000B8BF5B42192B88BF704710F0004F40F46C
:100BB000000020F07F4018BF404211F0004F41F488
:100BC000000121F07F4118BF494292EA030F3FD054
:100BD000A2F1010241FA03FC10EB0C00C3F1200367
:100BE00001FA03F100F0004302D5494260EB4000F6
:100BF000B0F5000F13D3B0F1807F06D340084FEA61
:100C0000310102F10102FE2A51D2B1F1004F40EB55
:100C1000C25008BF20F0010040EA030070474900BD
:100C200040EB000010F4000FA2F10102EDD1B0FA88
:100C300080FCACF1080CB2EB0C0200FA0CF0AABF7D
:100C400000EBC25052421843BCBFD040184370471B
:100C500092F0000F81F4000106BF80F40000013221
:100C6000013BB5E74FEA41037FEA226C18BF7FEAF8
:100C7000236C21D092EA030F04D092F0000F08BF3A
:100C80000846704790EA010F1CBF0020704712F021
:100C90007F4F04D1400028BF40F00040704712F160
:100CA00000723CBF00F50000704700F0004343F0C5
:100CB000FE4040F4000070477FEA226216BF0846FB
:100CC0007FEA23630146420206BF5FEA412390EABE
:100CD000010F40F4800070474FF0000304E000BFB4
:100CE00010F0004348BF40425FEA000C08BF704765
:100CF00043F0964301464FF000001CE050EA010229
:100D000008BF70474FF000030AE000BF50EA01023D
:100D100008BF704711F0004302D5404261EB41012A
:100D20005FEA010C02BF84460146002043F0B6434F
:100D300008BFA3F18053A3F50003BCFA8CF2083A74
:100D4000A3EBC25310DB01FA02FC634400FA02FC7D
:100D5000C2F12002BCF1004F20FA02F243EB020084
:100D600008BF20F00100704702F1200201FA02FCE6
:100D7000C2F1200250EA4C0021FA02F243EB0200D9
:100D800008BF20EADC7070474FF0FF0C1CEAD0521D
:100D90001EBF1CEAD15392EA0C0F93EA0C0F6FD0DE
:100DA0001A4480EA010C400218BF5FEA41211ED0BC
:100DB0004FF0006343EA501043EA5111A0FB0131A8
:100DC0000CF00040B1F5000F3EBF490041EAD3717D
:100DD0005B0040EA010062F17F02FD2A1DD8B3F1F9
:100DE000004F40EBC25008BF20F00100704790F068
:100DF000000F0CF0004C08BF49024CEA502040EABA
:100E000051207F3AC2BFD2F1FF0340EAC25070477F
:100E100040F400004FF00003013A5DDC12F1190FBD
:100E2000DCBF00F000407047C2F10002410021FA2F
:100E300002F1C2F1200200FA02FC5FEA310040F147
:100E4000000053EA4C0308BF20EADC70704792F0C0
:100E5000000F00F0004C02BF400010F4000F013AF8
:100E6000F9D040EA0C0093F0000F01F0004C02BFF3
:100E7000490011F4000F013BF9D041EA0C018FE762
:100E80000CEAD15392EA0C0F18BF93EA0C0F0AD068
:100E900030F0004C18BF31F0004CD8D180EA01008E
:100EA00000F00040704790F0000F17BF90F0004F27
:100EB000084691F0000F91F0004F14D092EA0C0F09
:100EC00001D142020FD193EA0C0F03D14B0218BF9C
:100ED000084608D180EA010000F0004040F0FE40E2
:100EE00040F40000704740F0FE4040F4400070477E
:100EF0004FF0FF0C1CEAD0521EBF1CEAD15392EAFD
:100F00000C0F93EA0C0F69D0A2EB030280EA010CEC
:100F100049024FEA402037D04FF0805343EA111185
:100F200043EA10130CF000408B4238BF5B0042F1E3
:100F30007D024FF4000C8B4224BF5B1A40EA0C0088
:100F4000B3EB510F24BFA3EB510340EA5C00B3EBBA
:100F5000910F24BFA3EB910340EA9C00B3EBD10FA8
:100F600024BFA3EBD10340EADC001B0118BF5FEAFA
:100F70001C1CE0D1FD2A3FF650AF8B4240EBC25023
:100F800008BF20F0010070470CF0004C4CEA5020E4
:100F90007F32C2BFD2F1FF0340EAC250704740F433
:100FA00000004FF00003013A37E792F0000F00F025
:100FB000004C02BF400010F4000F013AF9D040EAA3
:100FC0000C0093F0000F01F0004C02BF490011F437
:100FD000000F013BF9D041EA0C0195E70CEAD1532F
:100FE00092EA0C0F08D142027FF47DAF93EA0C0F16
:100FF0007FF470AF084676E793EA0C0F04D14B02FA
:101000003FF44CAF08466EE730F0004C18BF31F0AB
:10101000004CCAD130F000427FF45CAF31F00043A5
:101020007FF43CAF5FE700BF4FF0FF3C06E000BF3E
:101030004FF0010C02E000BF4FF0010C4DF804CD61
:101040004FEA40024FEA41037FEA226C18BF7FEA71
:10105000236C11D001B052EA530C18BF90EA010F73
:1010600058BFB2EB030088BFC81738BF6FEAE17002
:1010700018BF40F0010070477FEA226C02D15FEA9E
:10108000402C05D17FEA236CE4D15FEA412CE1D00A
:101090005DF8040B704700BF844608466146FFE7D1
:1010A0000FB5FFF7C9FF002848BF10F1000F0FBDB3
:1010B0004DF808EDFFF7F4FF0CBF012000205DF8AC
:1010C00008FB00BF4DF808EDFFF7EAFF34BF012031
:1010D00000205DF808FB00BF4DF808EDFFF7E0FFCA
:1010E00094BF012000205DF808FB00BF4DF808ED1B
:1010F000FFF7D2FF94BF012000205DF808FB00BF7E
:101100004DF808EDFFF7C8FF34BF012000205DF85F
:1011100008FB00BF4FEA40024FEA41037FEA226C1E
:1011200002D15FEA402C08D17FEA236C02D15FEA4A
:10113000412C02D14FF0000070474FF00100704782
:101140004FEA4002B2F1FE4F0FD34FF09E03B3EBD4
:1011500012620DD94FEA002343F0004310F0004F14
:1011600023FA02F018BF404270474FF0000070476A
:1011700012F1610F01D1420205D110F0004008BF09
:101180006FF0004070474FF00000704742000ED2F1
:10119000B2F1FE4F0BD34FF09E03B3EB126209D4B2
:1011A0004FEA002343F0004323FA02F070474FF068
:1011B0000000704712F1610F01D1420202D14FF0DD
:1011C000FF3070474FF00000704700BF7047B0F825
:1011D000A6017047B0F8A8017047B0F8A0017047A9
:1011E000B0F8A4017047B0F8A201704710B50446EA
:1011F0004FF4D67108F07EFF204610BD30B5B0F92F
:101200002C305230594302F1260333F9024D5C80F1
:1012100030F90259934205FB0411F6D1642091FB89
:10122000F0F108B2188030BD204AF0B5026001220A
:101230000271427100221E4C827104F1280703469C
:101240003A4600F12C06354620686168083403C52B
:10125000BC422E46F7D15168106803F5A27403C44E
:10126000906815682060106803F5A87403C490683E
:1012700020601468C3F86A01C3F86241044610682C
:10128000C3F86E5103F5C075C3F86611C3F8721147
:10129000C3F8764103C503F5C6722C6003C214601F
:1012A0000022184683F89E21F0BD00BF54D30008E9
:1012B00060D2000830B501250571457143F2333520
:1012C0000023A0F8705146F26665C0F85C31C0F8A2
:1012D0007C31A0F86E318371C0F8983180F89E316E
:1012E000174BA0F87251C0E90233C0E9043340F64D
:1012F000FF7349F69915C0E90633124BA0F87451F3
:10130000C0F8A031104B4FF6FF75C0F8A43144F27D
:1013100010030E4A0E4C0F49C0F85041C0F854114A
:10132000C0F85821A0F87621A0F87851C0F88C4177
:10133000C0F89011C0F89421A0F8A83130BD00BFCA
:101340000000FF0F30C01040FF7F30C0CCCCFFFF4B
:101350000000333366669999F8B506460F460024B7
:1013600000F1540557F824102A4609B23046FFF719
:1013700045FF04F11003013480B2062C26F8130057
:1013800005F12805EED1F8BD01717047038C03818A
:101390007047038C43817047A0F85E117047A0F836
:1013A0005C1170470139052915D8DFE801F0030603
:1013B000090C0F12A0F850217047A0F85221704775
:1013C000A0F854217047A0F856217047A0F8582182
:1013D0007047A0F85A21704741717047438C838150
:1013E0007047438CC3817047A0F87E117047A0F806
:1013F0007C1170470139052915D8DFE801F0030693
:10140000090C0F12A0F86E217047A0F870217047E8
:10141000A0F872217047A0F874217047A0F87621D7
:101420007047A0F87821704781717047838C0382E0
:101430007047838C43827047A0F89A117047A0F8D8
:10144000981170470139052915D8DFE801F0030626
:10145000090C0F12A0F88C217047A0F88E2170475C
:10146000A0F890217047A0F892217047A0F894212D
:101470007047A0F89621704780F89E117047C38C82
:1014800083827047C38CC3827047A0F8A011704755
:10149000A0F8A4117047A0F8A2117047038D4383F0
:1014A0007047038D03837047A0F8A6117047A0F81A
:1014B000A8117047438DC3837047438D8383704762
:1014C000108830B5884201D3188830BD9DF80C4093
:1014D00004F10044013C32F8140088421AD9012476
:1014E00032F814506000A94202D90134E4B2F7E79F
:1014F000185AEAD004F10044013C32F8142033F8C1
:101500001430891AC01A4843AD1A90FBF5F01844FC
:1015100080B2DAE733F81400D7E7037913B504464D
:1015200073B10368DB68984706230146009304F50E
:10153000A27204F5A8732046FFF7C2FF02B010BDE7
:101540001846FBE7437913B5044673B103685B693A
:10155000984706230146009304F5B17204F5B7736A
:101560002046FFF7ADFF02B010BD1846FBE78379B8
:1015700013B5044673B10368DB6998470623014637
:10158000009304F5C07204F5C6732046FFF798FF78
:1015900002B010BD1846FBE7F8B5084614461D46D4
:1015A000FFF79AFB06462046FFF796FB01463046BA
:1015B000FFF7E0FAFEF73AFF15A3D3E90023FEF7A1
:1015C0008DFF0646281B0F46FFF78AFBFEF72EFF0E
:1015D00002460B4630463946FFF7AAF80D46044648
:1015E000FFF774FA00210646FFF76CFD50B90A496F
:1015F0003046FFF785FD38B920462946FFF746FA01
:1016000080B2F8BD0020FCE74FF6FF70F9E700BF9D
:1016100000000000E0FFEF4000FF7F4702894389A0
:1016200070B5B0F85C51B0F85E619A4287BF9B1903
:10163000521B9B1B5219018C9BB292B20446FFF7BE
:10164000ABFFA4F8600170BD8289C38970B5B0F8A2
:101650007C51B0F87E619A4287BF9B19521B9B1B3D
:101660005219418C9BB292B20446FFF795FFA4F841
:101670007A0170BD028A438A70B5B0F89851B0F80B
:101680009A619A4287BF9B19521B9B1B5219818CEE
:101690009BB292B20446FFF77FFFA4F89C0170BD95
:1016A00090F89E3163B1828AC38AC18C9A4287BF07
:1016B0000533053A053B05329BB292B2FFF76CBF8A
:1016C00018467047428B038B018D9A4287BF0533C2
:1016D000053A053B05329BB292B2FFF75DBFC28B64
:1016E000838B418D9A4287BF0533053A053B05320E
:1016F0009BB292B2FFF750BF7047006A7047406AD2
:10170000704790F8C200704710B50446F02108F009
:10171000F1FC204610BD00000246F8B504463C4BE3
:1017200042F8043B3B4B03F118061546186859680C
:10173000083303C5B3422A46F7D11B7803222B7026
:1017400001236377E3770023334DC4E90833286826
:10175000696804F12803A27703C32A8905F10A07FF
:1017600004F134061A800FCF0FC62A4652F81E0F16
:101770003B685168336004F1480303C3128905F1E3
:101780002A0704F154061A800FCF0FC63B6804F1F4
:101790006802336005F13E034E35164618685968F5
:1017A000083303C6AB423246F7D1186804F17C0512
:1017B00030601A4E0FCE0FC50FCE0FC596E803004E
:1017C000174B85E80300C4F8A4300FA3D3E9002326
:1017D000C4E92A2300220023C4E92E2340F6B833AB
:1017E0000025A4F8C030FF2384F8B05084F8B1502D
:1017F00084F8C2302022294604F1C3000BF01DFCFE
:1018000084F8E3502046F8BDEBEBABAC0B000000D6
:10181000B0D3000894D20008AED2000800D300086C
:10182000581300204177704781777047807F704759
:101830004FF4827208B51349134BC3E900124FF4F9
:101840000071002299610A21C3E90922D962C17F8E
:10185000C3E9022201295A610BD118211A61D96109
:101860001A62094806F093F850B1BDE8084003F049
:101870003FBE0229F5D128221961DA618022EFE703
:1018800008BD00BF003001405813002090F8B03070
:101890008B4218BF80F8B01070470123013903FA5A
:1018A00001F1036A0B430362704790F8B10070477F
:1018B0002DE9304890F8B15004460DBB02F0C6FD4A
:1018C000A8B1202104F1C30002F02BFD94F8C3302D
:1018D000452B0CD144F24D33B4F8C4209A4206D1C2
:1018E000012384F8B13004F045F8C4E92E0594F8DA
:1018F000B1301BB9FF22636284F8C220BDE8308892
:1019000002F0A4FD054610B3202104F1C30002F04B
:1019100008FD94F8B03033B194F8CA3084F8C2307E
:10192000D4F8C630636294F8E33043B1072204F17F
:10193000E401012002F08DFD002384F8E33004F07F
:1019400019F80023C4F8B800C4F8BC30CFE704F09D
:1019500011F8D4E92E234FF0000C801A6CEB030130
:101960000023B4F8C0208B4208BF824238BF84F8FD
:10197000B150BCE72DE9F047044600252562A57F5C
:10198000BDF82000022DBDF82470BDF82860BDF818
:101990002CC049D0032D6DD0012D02D19A423ED9E1
:1019A0002562637F022B40F0918027466FF001098A
:1019B00004F1540604F1460804F1680A002238F8DC
:1019C000021F56F8040B04F07BFE0025A37F032BB7
:1019D0006FD16DB104EB850309FB0532586B118D96
:1019E00004F068FE20B97B19D9782046FFF755FF2F
:1019F0000135052DEAD10122B8F8001056F8040C83
:101A000004F05EFE564507F10507D7D1E37F012BB1
:101A100040F088802046BDE8F047FFF749BF82428A
:101A2000BFD202232362BCE7B94209D29A4284BFE3
:101A3000012323628242B4D2236A43F00203F1E716
:101A4000B1420BD9614509D29A4284BF1023236267
:101A50008242A6D2236A43F02003E3E761451DD901
:101A60009A4284BF4023236282429AD2236A43F07F
:101A70008003D7E7B942D9D3B1420FD99A4284BF84
:101A80001023236282428CD20121274804F012FEE7
:101A90000128236ADFD143F04003C3E79A4284BFA1
:101AA000042323628242BFF47CAF236A43F008031D
:101AB000B8E704EB850309FB0532586B118D04F080
:101AC000F9FD002894D17B1919798EE7012B9DD15E
:101AD00000256FF00107A37F032B15D1EEB27DB176
:101AE00004EB850307FB0532D86FB2F8681004F0E9
:101AF000E1FD28B906F10801C9B22046FFF7CDFE85
:101B000001350A2DE7D181E704EB850307FB053298
:101B1000D86FB2F8681004F0CDFD0028F0D105F1BF
:101B20000901E9E7BDE8F087000C01400123E4303A
:101B300000F8013CCB18083113F8012F8B4200F854
:101B4000012BF9D1704700007FB504464FF40051D6
:101B5000244804F03BFD4FF48041224804F036FD58
:101B60004FF400411F4804F031FD4FF400411E487E
:101B700004F02CFD4FF400711A4804F027FD1022E8
:101B8000002168460BF059FA647F012C03D0022C27
:101B900014D004B070BD4FF46243694611480093FD
:101BA000029404F033FC4FF400420023CDE90023FB
:101BB000029469460C4804F029FCEAE74FF46243BA
:101BC0000126032569460748CDE9003602940395AE
:101BD00004F01CFC4FF40043CDE90245CDE900368A
:101BE000E7E700BF000C01400008014070B5054662
:101BF00096B0FFF7A9FF2846FFF71AFEEC7F012CED
:101C00001ED1104E5422311D68460BF00BFA33687A
:101C1000402180220C4802F04DFC204602F09EFB41
:101C2000032002F06BFB202002F070FBD5E92A2391
:101C3000204602F031FB16B0BDE8704002F00EBB4A
:101C400016B070BD58130020000C014080F8891AAE
:101C5000704780F88A1A704710B590F89A3A04468F
:101C600053B100F51660FFF720FE054B28B10122A5
:101C70009A70002384F89A3A10BD9870F9E700BF73
:101C80006406002070B50446002501262C4B40F860
:101C9000043B01F0EFF804F12000FFF7C5FA04F56A
:101CA000E67002F0E7FC04F5FC7001F063F904F65D
:101CB000341003F035F9234B84F85C59C4F85839D3
:101CC00084F85D5984F85E5984F85F6904F51660FC
:101CD000FFF722FD802384F8533AC82384F8543A4E
:101CE0000323C4F8603A4FF07A53C4F8743A0623D9
:101CF00084F8885AA4F8506A84F8895A84F8525AA9
:101D000084F88A5AC4F8585A84F8956AC4F85C5A18
:101D1000C4F8645AC4F8685AC4F86C5AC4F8705AC3
:101D2000C4F8785AC4F87C5AC4F8805AC4F8845A63
:101D3000A4F8966AA4F8983A84F89A5A204670BD96
:101D4000DCD300081C021C0270B590F8953A0446DA
:101D500003F0FF06CBB9012300F5FC7580F8953A36
:101D6000284601F0FBF904F5E674284601F00EFA66
:101D7000204602F0A2FC40B12046314602F0BAFCF7
:101D80002046BDE8704002F053BD70BD002310B581
:101D900000F5E67480F8953A204602F08EFC20B1FA
:101DA0002046BDE8104002F085BC10BD90F8953A81
:101DB00010B504460BB1FFF7E9FF012384F85D3944
:101DC00010BD0000F8B50646D0F8780AB0F5004F0F
:101DD0002ADA10F5004F29DC4FF0FF3447F6FF7583
:101DE0000028B8BF4042A0F5FF407F38A842A8BFF6
:101DF0002846FEF775FF074696F8530AFEF76CFF74
:101E00000B49FEF7C1FF01463846FEF7BDFFFFF75D
:101E100097F964426043074B9842B8BF1846A842FE
:101E2000A8BF284600B2F8BD0124D7E70020FAE792
:101E30009A99993E0180FFFF19B100F5FC7001F0FD
:101E400036BD084670470000044B00F68B22D3F8DD
:101E5000B81200F5FC7001F0B3BA00BF20140020E6
:101E600000F52960704700F68B2070476FF01F0364
:101E700080F8913A062380F8923A282380F8933A22
:101E8000032380F8901A80F8943A7047034B8B42F2
:101E900004BF012380F85C39704700BF5412002052
:101EA00000487047640600200022044B9A70DA70E4
:101EB0001A715A719A71DA711A72704764060020A9
:101EC00010B504460B4B036000F51660FFF714FCD9
:101ED00004F5FC7001F044F804F5E67002F0A8FB8C
:101EE00004F12000FFF772F9201D00F08BFF20465F
:101EF00010BD00BFDCD3000810B50446FFF7E0FFBB
:101F000020464FF42A6108F0F5F8204610BD000085
:101F10004722F0B5044663480126036885B09A62FB
:101F200040F2F312251DDA621E6006F033F82846EF
:101F300000F0AEFF284600F0ACFF04F5E67704F1B0
:101F40002000FFF7B7F9384602F00CFD04F51660E3
:101F5000FFF74CFE8022544B04A91A700023304630
:101F600021F80A3D02F0D5FF18B1BDF8063084F81B
:101F7000993A94F8993A002B00F08B80002604F1EE
:101F80002801022002F0C5FF04F12A01032002F01B
:101F9000C0FF04F12C01042002F0BBFF04F12E016C
:101FA000052002F0B6FF04F13001062002F0B1FF77
:101FB00004F13201072002F0ACFF04F134010820E3
:101FC00002F0A7FF04F13601092002F0A2FF04F19C
:101FD0003A010A2002F09DFF04F138010B2002F0C3
:101FE00098FF04F13E010C2002F093FF04F13C0144
:101FF0000D2002F08EFF04F67621102002F089FFFA
:1020000004A921F8086D112002F083FFBDF8081023
:10201000284600F002FF04A921F8066D122002F004
:1020200078FFBDF80A10284600F0EFFE04A921F859
:10203000046D0F2002F06DFFBDF80C102846891BBF
:1020400018BF012100F0E5FE284600F0E0FE60B177
:102050000DF10E010E20ADF80E6002F05AFF20B116
:10206000BDF80E10284600F0DCFE00230DF10E0135
:102070001320ADF80E3002F04CFF50B19DF80E1059
:10208000384602F086FCBDF80E103846090A02F008
:1020900023FC064A4FF4805104F6341002F04BFF43
:1020A00005B0F0BD5412002064060020000C014071
:1020B00038B5044600F51660FFF7B8FB012804F1B7
:1020C00020040F4D0FD1FF23AB707F23EB70204610
:1020D000FFF705FBC0B228712046FFF700FBC0F3F5
:1020E0000720687138BD2046FFF7ECFAC0B2A8702F
:1020F0002046FFF7E7FAC0F30720E870E7E700BFE4
:10210000640600202DE9F843041D054620460E46CE
:1021100000F08AFE0746204600F09CFE81462046DD
:1021200000F07DFE80463846FEF7DAFD074609EBF3
:102130000800FEF7D5FD01463846FEF71BFD0746B1
:10214000204600F060FEFEF7C7FD01463846FEF768
:10215000CFFE0B49FEF718FE04463046FEF7BCFDE5
:1021600001460848FEF7C4FE01462046FEF70CFE75
:10217000FEF7E6FF95F8523A03B14042BDE8F88316
:102180000000B44300FF7F4709B1FFF7BBBF47F62C
:10219000FF70704770B500F5166604463046FFF7CD
:1021A000ACFAC4F8610A3046FFF7A9FA1C4AD4F821
:1021B000783A04F120059A42B8BF1A4647F6FF73F1
:1021C0009A42D4BF9B18DB18A4F8693A4FF0FF334A
:1021D00084F86B3A7F23C4F8650A84F86C3A284681
:1021E000FFF7B0F9A4F86D0A2846FFF7C0F9A4F884
:1021F0006F0A2846FFF754FAA4F8710A2846FFF739
:102200008CF9A4F8730A3046FFF77BFA04F52661CF
:1022100084F8750A1622BDE87040024807F091BEA6
:102220000180FFFF201400202DE9F04F90F85D3968
:1022300087B0044600F6341623B990F85C39002BB9
:1022400000F0C6800023D4F8587AB4F85A19C4F8BC
:10225000583AB4F858398B420DD02046FFF794FF16
:1022600047F6FE730028B8BF40429842DCBFB4F87E
:102270005A39A4F85839B4F858192046FFF784FFA2
:1022800000230028C4F87C0AB8BF404204F5E67574
:10229000B0F5803F84F85C392846C0F2C98002F06E
:1022A000C7FA304602F09BFED4F87C1AD4F8783A8C
:1022B000C4F8781ACB1AC4F8843A94F85D39002B24
:1022C00052D04FF0000994F85E2984F85D99012AF4
:1022D00000F02881C0F0BE80022A00F01C8147F681
:1022E000FE72D4F85C3A002BB8BF5B42934202DD29
:1022F000304602F068FEB4F8760AFEF7EDFC9C4921
:10230000FEF7F6FD804694F8540AFEF7E5FC99497D
:10231000FEF7EEFD01464046FEF736FD8046D4F856
:102320005C0AFEF7DDFC01464046FEF72DFDFEF798
:1023300007FF94F8513A94F8502A0133DBB29A42DD
:10234000C4F85C0A84F8513A0ED80023204684F879
:10235000513AFFF71FFF94F8893A002B00F0E9800B
:1023600023681B69204698472046FFF72BFD94F809
:102370005E39D4F8582A012B40F0EF80D4F85C3A4B
:1023800018441044C4F8580A94F8523A23B1D4F8C7
:10239000583A5B42C4F8583AD4F8581AB94217D0A0
:1023A000B4F8762A914200F3E18053428B42B8BFE1
:1023B0000B46002BC4F8583AB8BF5B429A4202D190
:1023C000304602F002FEB4F9581A284602F092F99B
:1023D00004F120052846FFF775F907462846FFF760
:1023E0007EF980462846FEF7F2FE81462846FEF733
:1023F000F1FE82462846FEF7F6FE83462846FEF7A3
:10240000EFFE05902846FEF7E8FE059B0390CDE918
:1024100001B304F51660CDF800A04B46424639469C
:10242000FFF7A8FA304607B0BDE8F04F02F08FBDC5
:1024300002F043F900283FF437AFD4F87C3A002B80
:10244000B8BF5B42B3F5004FBFF62EAF284602F08F
:1024500031F929E704F10408404600F0D8FC82462F
:1024600000284CD04FF434712046FFF74BFE94F80F
:102470005FA9C4F8800ABAF1010F22D02FD3BAF1B4
:10248000020F7FF42CAFD4F87C8AC8F10000FEF76D
:1024900027FC3949FEF778FCFEF752FE374B98428D
:1024A000B8BF184641F66A039842D4BFC4F85C0A24
:1024B000C4F85C3AB8F1000F7FF411AF84F85EA95C
:1024C0000DE7404600F0A7FCD4F8803AC4F85C0A57
:1024D000B3F5FA4FFFF603AF84F85F99FFE6404685
:1024E00000F099FCD4F8803A404213F5FA4FC4F852
:1024F0005C0A3FF7F4AE022384F85F39EFE6014649
:10250000404600F0A9FC5146404600F08AFC0223F8
:1025100084F85E39E3E601238B2284F85E39184B98
:102520009A71DCE604F5FC7000F0E2FFC4F85C0A86
:10253000D5E694F88A3A13B123689B6912E794F8B8
:10254000883A13B123689B680CE794F89A3A002BF9
:102550003FF40AAF2368DB6904E7002B7FF414AF74
:10256000D4F85C3A1344C4F8583A0DE7134620E710
:1025700000FEFF4600007F430000E03F96E7FFFFBC
:102580006406002038B590F85F390D4C012B14D04B
:1025900012D3022B11D0051D284600F045FCC0B215
:1025A000E070284600F040FCC0F307202071284668
:1025B00000F054FC607138BD0023A370EBE700BF4E
:1025C0006406002038B50B780446802B0D4640F099
:1025D00083804B78013B702B7ED8DFE813F07100CD
:1025E0007E007B03810390039A03B603E800F300A7
:1025F00017011B018D009800A500AE00B7007D00FB
:10260000C000CD00D600DF001D01240126012B01F2
:102610002E01390143014F0156015D0164016B0137
:10262000720179017B01800185018F019901A5016A
:10263000AC01B301BA01C1017D00C801CF01D101D4
:10264000D601D901E401EE01FA0103020A021102E6
:102650001802310238023A023F0244024F0253028A
:1026600057025B02600265026F0279027E028302FA
:102670008D029702A102A602AF02B202B9027D004A
:102680007D007D007D007D007D007D00C4027D0019
:102690007D007D00C802D902CF02E002E702EE020F
:1026A0007D00F5027D007D007D00FC0269031F02B4
:1026B00029027D007D0074037D00BF03C603CC03A7
:1026C0000122C74B5A7090F8962A9A7090F8972A70
:1026D000DA7090F8982A1A7138BD0434204600F058
:1026E00092FBAB78E97801EB03218842F4D02046D5
:1026F000BDE8384000F089BB00F5E67420460021B3
:1027000002F047F92046BDE8384002F091B800F5E4
:10271000E674204601F0D1FF0328DDD003212046D6
:10272000BDE8384002F035B900F5E674204601F006
:10273000C4FF0428D0D00421F1E700F5E674204658
:1027400001F0BBFF0228C7D00221E8E700F5E674DC
:10275000204601F0B2FF0128BED00121DFE700F5DD
:10276000E674204601F0C3FF0028B5D000212046C2
:10277000BDE8384002F0B0B800F5E674204601F03C
:10278000B6FF0128A8D00121F1E700F5E674204644
:1027900001F0ADFF02289FD00221E8E700F5E674C2
:1027A000204601F0A4FF032896D00321DFE78978B3
:1027B000EB78B0F85A2903EB01239A428CD0A0F8A9
:1027C0005A3989E70434204600F021FB80B12046C5
:1027D00000F044FB60B1204600F026FB0546204691
:1027E00000F038FB291A2046BDE8384000F019BB3C
:1027F0002046002100F030FB2046002100F011FBB4
:102800002046BDE83840002100F01ABB012384F8BF
:10281000523A61E70023FAE7012104F12000BDE804
:102820003840FEF7B1BD0021F7E72030BDE8384061
:10283000FEF7ACBD2030FEF7ACFD2B79697904F1D1
:10284000200001EB032189B2BDE83840FEF7A4BDAA
:102850000B794979203001EB032189B2BDE838407A
:10286000FEF79DBDCB790A7A012102EB032292B2D9
:1028700004F12000BDE83840FEF794BDCB790A7A18
:10288000022102EB032292B2F2E7CB790A7A03210A
:1028900002EB032292B2EBE7CB790A7A042102EB36
:1028A000032292B2E4E7CB790A7A052102EB0322F4
:1028B00092B2DDE7CB790A7A062102EB032292B2CB
:1028C000D6E7012104F12000BDE83840FEF784BDC1
:1028D0000021F7E72030BDE83840FEF77FBD20300B
:1028E000BDE83840FEF77DBD0B794979203001EB1A
:1028F000032189B2BDE83840FEF776BD0B794979EE
:10290000203001EB032189B2BDE83840FEF76FBDEE
:10291000CB790A7A012102EB032292B204F1200062
:10292000BDE83840FEF766BDCB790A7A022102EB9A
:10293000032292B2F2E7CB790A7A032102EB032257
:1029400092B2EBE7CB790A7A042102EB032292B22E
:10295000E4E7CB790A7A052102EB032292B2DDE7A4
:10296000CB790A7A062102EB032292B2D6E7012143
:1029700004F12000BDE83840FEF756BD0021F7E71E
:102980002030BDE83840FEF751BD2030FEF751FD44
:102990002B79697904F1200001EB032189B2BDE8AC
:1029A0003840FEF749BD0B794979203001EB03210E
:1029B00089B2BDE83840FEF742BDCB790A7A0121E1
:1029C00002EB032292B204F12000BDE83840FEF78A
:1029D00039BDCB790A7A022102EB032292B2F2E7E7
:1029E00064060020CB790A7A032102EB032292B21B
:1029F000E9E7CB790A7A042102EB032292B2E2E7FB
:102A0000CB790A7A052102EB032292B2DBE7CB797C
:102A10000A7A062102EB032292B2D4E7FFF744FAC6
:102A200003680121DB6898470322D64B5A7053E6AE
:102A30000368DB68002120469847D24B0022F5E767
:102A4000012104F12000BDE83840FEF715BD00214A
:102A5000F7E72030BDE83840FEF711BD2030BDE873
:102A60003840FEF70FBD002100F516642046FEF742
:102A7000DBFE2046BDE83840FFF766B800F5166477
:102A80000121F3E700F516640221EFE700F5166473
:102A90000321EBE72030BDE83840FEF70BBD2030C6
:102AA000BDE83840FEF709BD4B798979203001EB4C
:102AB000032189B2BDE83840FEF7F6BC4B7989792D
:102AC000203001EB032189B2BDE83840FEF7EFBCAE
:102AD0002030BDE83840FEF7E1BC2030BDE838408A
:102AE000FEF7DFBC4B798979203001EB032189B2F5
:102AF000BDE83840FEF7C9BC4B798979203001EB3D
:102B0000032189B2BDE83840FEF7C2BC4B79897910
:102B1000203001EB032189B2BDE83840FEF7BBBC91
:102B200040F6FF73C0E90E33D6E5FFF7BDF9036841
:102B300001215B699847934B022277E703685B6941
:102B400078E70A794B7903EB0223A0F8763AC3E5DC
:102B50008B79C97900F5FC7001EB032189B2BDE8DE
:102B6000384000F0B4BC8B7880F8533AB4E58978EB
:102B700000F5FC70BDE8384000F09EBCAB794979A7
:102B800000F5FC7003EB0121BDE8384000F039BBD3
:102B9000097900F5FC70BDE8384000F09BBC09796C
:102BA00000F5FC70BDE8384000F09ABC097900F5EA
:102BB000FC70BDE8384000F090BC097900F5FC706D
:102BC000BDE8384000F08FBC097900F5FC70BDE825
:102BD000384000F079BC012180F8991A084602F0CB
:102BE0007DF9218D022002F079F9618D032002F038
:102BF00075F9A18D042002F071F9E18D052002F034
:102C00006DF9218E062002F069F9618E072002F02D
:102C100065F9A18E082002F061F9E18E092002F029
:102C20005DF9618F0A2002F059F9218F0B2002F023
:102C300055F9E18F0C20251D02F050F9A18F0D20D0
:102C400002F04CF9284600F0EAF880EAE071A1EBC6
:102C5000E07189B20E2002F041F9284600F0D7F861
:102C600081B20F2002F03AF9B4F8761A102002F07F
:102C700035F9284600F0CFF80146112002F02EF970
:102C8000284600F0C0F804F5E67481B2122002F084
:102C900025F9204601F011FD0546204601F027FDEB
:102CA00045EA002189B21320BDE8384002F016B988
:102CB0002030FEF7FFFA03F0A3FA02F01FF8BDE898
:102CC000384003F0AFBA00F5166449792046FEF7A4
:102CD000A9FDCEE60121BDE83840043000F099B8E6
:102CE00004340021204600F0BBF80021204600F00B
:102CF00090F80021204600F0AFF8002173E58B78B2
:102D0000C978043001EB032189B2BDE8384000F0F6
:102D100084B8FFF7C9F8051D0021284600F090F897
:102D20000021284600F07DF80021284600F098F8A0
:102D30000021284600F090F80123002284F85F3932
:102D400084F85E2984F8883AC6E490F85E39022B4C
:102D50001CBF022380F85E390023F3E70121BDE8A0
:102D6000384000F51660FEF791BD00F51660BDE82D
:102D70003840FEF7DBBEFFF797F8012380F89A3A58
:102D8000AAE400BF6406002070B590F82430054620
:102D90001B4C63B300F120063046FEF73FFCC0B287
:102DA000A0703046FEF73AFCC0F30720E07095F8BB
:102DB0002530FBB105F120063046FEF745FCC0B2D8
:102DC00020713046FEF740FCC0F30720607195F893
:102DD000263093B120352846FEF74CFCC0B2A071D6
:102DE0002846FEF747FCC0F30720E07170BDA370D2
:102DF000E370DCE723716371E9E7A371E371F5E741
:102E00006406002070474068704741607047007C4E
:102E1000704701747047008B70470183704780686A
:102E20007047816070470000044BC0681B685B6A94
:102E3000A3F5FF437F3B1844704700BFB013002049
:102E4000034BC1601B6801F5FF417F315962704738
:102E5000B01300204069704741617047407C704763
:102E60004174704710B504461C2107F043F9204611
:102E700010BD0000054A02600022C0E90122C260C4
:102E80000274427442610283704700BF18D4000884
:102E9000704770B500250446036885600574058396
:102EA0005B694FF47A619847236829462046BDE85C
:102EB0007040DB681847B1F5807F70B5044613D1C8
:102EC000037C002B30D0437C002B2DD103685D6B3D
:102ED0009B68984701462046A84723682046BDE8DE
:102EE0007040DB6B0121184704291DD103689B69E1
:102EF0009847A0B1236820469B6B984778B1236818
:102F00002046DD6A9B689847236806461B6B20466F
:102F100098472B46311A2046BDE870401847236871
:102F20000021DB682046F7E770BD0000074B10B5B5
:102F30001A68C168536AD46AB3EB540FD36A8CBF62
:102F4000DB4301330B44C36010BD00BFB01300204E
:102F5000024B8B4201D1FFF7E9BF7047B01300204D
:102F6000704710B5044640F23C7107F0C3F82046A4
:102F700010BD000038B50346484A002543F8042B2D
:102F8000474A04461188927881809A70012303751C
:102F9000444B454AC3618362436340F2DB1383635E
:102FA000424B8261C3634FF47A7380F820504262CF
:102FB00080F82C500263A0F840304FF4DC622946C0
:102FC00044300AF03AF8FF2384F8463084F872302F
:102FD00084F89E3084F8CA3084F8F63084F82231C0
:102FE00084F84E3184F87A3184F8A63184F8D231ED
:102FF00084F8FE3184F82A3284F8563284F882321A
:1030000084F8AE3284F8DA3284F8063384F8323346
:1030100084F85E3384F88A3384F8B63384F8E23374
:1030200084F80E3484F83A3484F8663484F89234A0
:1030300084F8BE3484F8EA3484F8163584F84235CE
:1030400084F86E3584F89A3584F8C63584F8F235FC
:1030500084F81E3684F84A3684F8763684F8A23628
:1030600084F8CE3684F8FA3684F8303747F67F7322
:10307000A4F8343746F26443C4F8285784F82C5730
:10308000A4F82E5784F83157A4F83257A4F83637ED
:10309000A4F83837A4F83A37204638BD70D4000871
:1030A00028D30008CDCC4C3E00004842CDCC4C3F4C
:1030B00001232C2110B501FB0304647EDAB21CB19C
:1030C0000133292BF7D10022104610BD2C224B785A
:1030D000013B02FB03000A79CB7843EA0223A0F804
:1030E00054300A7ACB7943EA0223A0F84A308A792D
:1030F0004B7943EA0223A0F848300A7BCB7A43EAB3
:103100000223A0F84E308A7A4B7A43EA0223A0F8D1
:103110004C304B7B8A7B43EA0223A0F86E30704729
:103120002C224B78013B02FB03004A7A0B7A43EADC
:103130000223A0F86230CA788B7843EA0223A0F811
:1031400050304A790B7943EA0223A0F854308B7946
:10315000CA7943EA0223A0F852307047002380F86E
:10316000313770472729F8B50FD82C27002607FBE1
:103170000104E56D84F845603DB1284600F0F8FB98
:103180003946284606F0B6FFE665F8BD38B5044670
:103190000025A9B220460135FFF7E4FF282DF8D11C
:1031A000012384F825370A2384F826370023A4F85E
:1031B0002E3738BDCA0738B544BF012380F83137F0
:1031C0008B0748BF0023044648BF80F831374807C3
:1031D00048BF00230D4648BF84F83137290705D57D
:1031E0000023204684F83137FFF7D0FFEA0644BFBA
:1031F000002384F83137AB0644BF012384F831370C
:1032000038BD2DE9F041B0F84040064660088842DC
:103210008CB003D3002914BF08460120B063FDF72A
:103220005BFD05462046FDF757FD01462846FDF7A4
:103230005FFE074606F224784436B04513D0354683
:1032400001AC0FCD0FC40FCD0FC495E807009DF85A
:10325000053084E80700012B03D13946079800F0B8
:103260002DFF2C36E9E70CB0BDE8F0812DE9F743DE
:103270004B780446013B0D46052B2DD8DFE803F0C3
:10328000782C2C032F508E69002786B1B0F84000AF
:10329000FDF726FD0146A069FDF72AFE94F82010EF
:1032A000E36900970246304600F00BFF14E02C2043
:1032B00006F022FF0646B4F84000FDF711FD014676
:1032C000A069FDF715FE94F82010E3690097024607
:1032D000304600F0FFFEAE6103B0BDE8F0838E69BA
:1032E000002766B1B0F84000FDF7FAFC0146606ABD
:1032F000FDF7FEFD94F82C100097A36AD2E72C206E
:1033000006F0FAFE0646B4F84000FDF7E9FC014677
:10331000606AFDF7EDFD94F82C100097A36AD6E7DC
:103320008E694FF000086EB1B0F84000FDF7D4FC94
:103330000146206BFDF7DCFD636BCDF80080024693
:103340000021B0E72C2006F0D7FE0746B4F8400075
:10335000FDF7C2FC0146206BFDF7CAFD636BCDF89B
:10336000008002463146384600F0B4FEAF61B3E754
:103370008E694FF000087EB1806BFDF7ADFC05460D
:10338000B4F84000FDF7A8FC01462846FDF7B0FD63
:10339000CDF80080E36BD2E72C2006F0ADFE0746A7
:1033A000A06BFDF799FC8146B4F84000FDF794FC52
:1033B00001464846FDF79CFDCDF80080E36BD0E761
:1033C0001D23F0B507468DB00C461646137072B635
:1033D000FFF76EFE707062B673781BB90223B3708C
:1033E0000DB0F0BD01232C25B3702A46002101A8A1
:1033F00009F023FEFF238DF80630637801A93846D3
:103400008DF80530FFF732FF7478013C05FB04743A
:1034100001AD44340FCD0FC40FCD0FC495E80700A4
:1034200084E80700737887F82537B7F82E3701331B
:10343000A7F82E37B6F803302C3BA6F80330CFE7B9
:10344000F8B54C780646013CE3B2272B0D4632D83E
:103450002C2101FB04036A7A614383F84620A87893
:1034600083F845002F7AEA7942EA0722A3F86A2016
:10347000EA7A570748BF072283F86C20731893F83D
:103480004520824208D000224431A3F860209A658A
:1034900031443046FFF7EAFE2C2303FB04642A790B
:1034A000EB7843EA0223A4F8643096F8313713B975
:1034B000012386F83137F8BD80F8341709B9017552
:1034C000704701230375704780F835177047A0F8DF
:1034D0003217704780F83617704780F837177047F3
:1034E00080F83817704780F83917704700000000DF
:1034F00090F831372DE9F74F06460F463BBB047D68
:103500000CB3322442F2107390F8340744439C42C7
:10351000A8BF1C46FDF7E0FBB349FDF735FC4FF0B3
:103520007C51FDF729FB05467842FDF7D9FB0146A2
:103530002846FDF729FCFDF703FEA04203DC6442A8
:103540008442B8BF0446204603B0BDE8F08F4FF078
:103550000008054644462C2303FB086393F84430D7
:10356000002B00F0938095F84530013B062B7ED868
:10357000DFE813F00700D90034002F012F017D0090
:10358000B20095F84630B5F9500003FB00004FF447
:10359000807390FBF3F0FDF7A3FB814696F83607A6
:1035A000FDF79AFB9149FDF7A3FC01464846FDF75C
:1035B000EBFBFDF7C5FDB26BB6F840100346B2EB6E
:1035C000510F09D242B1FDF78BFB0146E86D00F0C7
:1035D000D0F9FDF7B5FD0346E41A48E0B5F954A06B
:1035E000B5F86E30A7EB0A02002AB8BF52429342E8
:1035F0006FDAB5F84EB0BA45CBF1000BB5F84C9088
:1036000001935ADDB5F94A00FDF76AFB7849FDF7E9
:10361000BBFB019B0090AAEB0300381AFDF760FB8F
:10362000009A01461046FDF7AFFBFDF789FD4845BE
:1036300003DC5845B8BF584681462046FDF750FB8D
:10364000044696F83707FDF747FB6849FDF750FC3D
:1036500082464846FDF744FB01465046FDF794FB81
:1036600001462046FDF786FAFDF76AFD0446B5F8E7
:1036700060305A1CA5F86020B5F864209A423FBF1C
:103680002C23002203FB086383F8442008F101087F
:10369000B8F1280F05F12C057FF45DAF96F83037AF
:1036A00003FB0444B6F832372412002B3FF44BAF2F
:1036B000621C80F2CE80E41A45E7B5F94800FDF7B8
:1036C0000FFB4B49FDF760FB019B00900AEB0300E9
:1036D000A3E74FF00009B0E7B5F95210B5F8623032
:1036E000B5F8602002330A44B2FBF3F103FB112268
:1036F000B5F95090B2EB530F204638BFC9F100091D
:10370000FDF7EEFA0446B5F954004844FDF7E8FA2F
:10371000814696F83907FDF7DFFA3449FDF7E8FBF3
:10372000014648469AE72046FDF7DAFA0446B5F91D
:103730005400FDF7D5FA834696F83807FDF7CCFA22
:103740002A49FDF7D5FBB5F950A08146BAF1000F23
:1037500009D128495846FDF717FBFDF7F1FCFDF7A5
:10376000BFFA49467AE7B5F86200FDF7B5FA0146B7
:103770004FF07E50FDF7BCFB0090B5F86000FDF700
:10378000AFFA009B01461846FDF7FEFA0090B5F926
:103790005200FDF7A5FA1849FDF7AAFB009B014668
:1037A0001846FDF7E9F9FCF741FE0DA3D3E9002324
:1037B000FCF794FEFDF78AF906F0F0FD0090504604
:1037C000FDF78EFA0099FDF7DFFA5946FDF7D4F9B7
:1037D000C3E7B5F860308BB9AF6548E7AFF3008059
:1037E00000000060FB2119400AD7233C0000C842BA
:1037F00017B7D139AE475140009F0C47A86DAF6550
:10380000381AFDF76DFA0146E86D00F0B2F882460D
:10381000B5F94800FDF764FA4FF0765181465046FD
:10382000FDF7B2FA01464846FDF7AEFAFDF788FC0F
:10383000B5F84C30B5F84E20984203DC5342834231
:10384000B8BF034696F835275343FF2293FBF2F3A4
:10385000C2E6012CC8BFE41875E600BF0A4601465F
:10386000014806F06EBB00BF20140020082380F83A
:10387000263790F8313780F82517B3B11A2380F82E
:10388000263769B12C23013903FB010191F844303B
:10389000012B02BF90F8263743F0100380F826373B
:1038A000032100F22470FFF7D9BF0923E7E7F8B539
:1038B0000B780646052B0C4648D006D8032B51D072
:1038C00053D8012B1FD00120F8BD0B2B1ED010D8D0
:1038D0000A2BF8D14D788B78013D032BEDB24FF0D8
:1038E0002C011BD1002301FB050181F844306178D4
:1038F00010E0402B26D0452BE5D14978013989B21B
:10390000FFF730FCDFE7FFF79BFDDCE74978FFF7C7
:1039100051FC00213046FFF7A9FFD4E7694347185F
:1039200097F84430012B06D044310144FFF79EFC48
:103930000023A7F860302C2303FB0565012385F8DD
:103940004430D4E74B7880F83037BCE72C224B78F2
:10395000013B02FB03068B78CA7843EA0223A6F8F0
:103960005030B0E7FFF7B2FBADE7FFF7D9FBAAE7AE
:103970007047F8B50E46044641683046FDF704FA34
:10398000616AFDF7F9F8A16805463046FDF7FCF9D4
:10399000A16AFDF7F1F8216907462846FDF7F4F919
:1039A00001463846FDF7E6F8E16860623046FDF70B
:1039B000EBF9616906462846FDF7E6F9014630460F
:1039C000FDF7D8F8A0622846F8BD0000000000000E
:1039D0002DE9F04F0027044647628762006A85B0F0
:1039E00020F00040FCF722FD0022AD4BFCF7A0FECA
:1039F00002460B460020AB4906F006FDFDF766F8CF
:103A00000646A069FCF712FDA3A3D3E90023FCF747
:103A100065FD06F099FCFDF759F823780546062B5D
:103A200000F2EB81DFE813F007003F007500A30010
:103A3000D50058016C02E169FDF75AFA2946804623
:103A40002846FDF7A1F905464FF07E514046FDF7A7
:103A500093F82946FDF790F801464FF07E50FDF7A8
:103A600047FA014606462846FDF78EF90146606092
:103A70000746FDF781F84FF07E51A060E7602846C9
:103A8000FDF778F80146FDF777F83146FDF77CF948
:103A9000414620614FF07E50FDF76CF82946FDF756
:103AA0006BF8314632E0E169FDF722FA2946074614
:103AB0002846FDF769F906464FF07E513846FDF776
:103AC0005BF83146FDF758F801464FF07E50FDF7A0
:103AD0000FFA4FF0404160600546FDF755F94FF091
:103AE0007E51A060E5603046FDF744F80146FDF7E1
:103AF00043F82946FDF748F9394620614FF07E50DA
:103B0000FDF738F83146FDF737F82946FDF73CF95F
:103B100072E1E169FDF7ECF9294680462846FDF798
:103B200033F906464FF07E514046FDF725F8314601
:103B3000FDF722F801464FF07E50FDF7D9F9014616
:103B400005464046FDF720F9606000F10040E06066
:103B50004FF07E51A7603046FDF70CF80146FDF7A7
:103B60000BF82946FDF710F941462061C6E7E169E7
:103B7000FDF7BEF9294607462846FDF705F9054633
:103B80004FF07E513846FCF7F7FF2946FCF7F4FF6B
:103B900001464FF07E50FDF7ABF906464FF07E51DF
:103BA0002846FCF7E9FF3146FDF7EEF84FF07E516D
:103BB000804660602846FCF7DDFF0146FCF7DCFF2D
:103BC0003146FDF7E1F8C4F80C80A0602061394669
:103BD00060E7D4F81C8030464146FDF789F9294654
:103BE000FDF7D2F8294607462846FDF7CDF80646E8
:103BF0004FF07E513846FCF7BFFF3146FCF7BCFF63
:103C0000414681464FF07E50FDF772F92946FDF797
:103C1000BBF84FF07E510546FCF7AEFF3146FCF78E
:103C2000ABFF294682464FF07E50FCF7A3FF31469A
:103C3000FCF7A2FF394680464FF07E50FCF79AFF12
:103C40003146FCF799FF4FF07E5107463046FCF7AE
:103C500091FF0146FCF790FF00210646206AFDF720
:103C600045FA08B351464FF07E50FDF741F905463D
:103C700001464846FDF788F8314660602846FDF762
:103C800083F839460646A0602846FDF77DF8414690
:103C9000E0602661284639E7182D4454FB2109408D
:103CA000000034400000244049464FF07E50FDF7AC
:103CB0001FF951460546FDF767F831466060284612
:103CC000FDF762F841460646A0602846FDF75CF81D
:103CD0002661E0603946DDE731463046FCF74CFFAF
:103CE00000218246206AFDF701FA002800F0888052
:103CF0002846FCF79BFBB0A3D3E90023FCF7EEFBBF
:103D00008046894628462946FDF73EF88346FCF75B
:103D10008DFB0022CDE90001A94B40464946FCF746
:103D200027FADDE90023FCF723FA02460B460020C0
:103D3000A349FCF7FDFCFCF7C9FE0746504606F018
:103D4000BFFC294602903046FDF71EF82946FDF7D4
:103D50001BF80646029B28461946FDF715F84FF05A
:103D60007E51FCF709FF3146FCF706FF3946FDF7A7
:103D70000BF84FF07E5160603046FCF7FBFE0146C9
:103D8000FCF7FAFE3946FCF7FFFFA060504606F04C
:103D900097FC01462846FCF7F7FF01464FF07E509E
:103DA000FCF7E8FE3146FCF7E7FE3946FCF7ECFF8E
:103DB0004FF07E51E0605846FCF7DCFE0146FCF710
:103DC000DBFE3946FCF7E0FF42464B4620617C496A
:103DD0000020FCF7CBF9DDE90023FCF7C9F98046A8
:103DE00038468946FCF722FB02460B4640464946C8
:103DF000FCF774FBFCF76AFE606105B0BDE8F08F6C
:103E0000504606F05DFC294607463046FCF7BCFFED
:103E10002946FCF7B9FF814639462846FCF7B4FF2E
:103E20004FF07E51FCF7A8FE4946FCF7A5FE01467F
:103E30004FF07E50FDF75CF880462846FCF7F6FA16
:103E40005DA3D3E90023FCF749FB06460F4628464D
:103E50002946FCF799FF8346FCF7E8FACDE9000113
:103E60004046FCF7E3FA0022CDE90201544B30460C
:103E70003946FCF77DF9DDE90023FCF779F9DDE946
:103E80000223FCF72BFBFCF721FE4FF07E51606014
:103E90005846FCF76FFE0146FCF76EFE4146FCF704
:103EA00073FF3246A0603B4600204549FCF75EF9AF
:103EB000DDE90023FCF75CF9DDE90223FCF70EFBEA
:103EC000FCF704FE4FF07E51E0604846FCF752FEDE
:103ED0000146FCF751FE4146FCF756FF2061504673
:103EE00006F0EEFB01462846FCF74EFF01464FF078
:103EF0007E50FCF73FFE4946FCF73EFE414605E694
:103F000031463046FCF738FE00218246206AFDF734
:103F1000EDF8002856D02846FCF788FA26A3D3E906
:103F20000023FCF7DBFA8046894628462946FCF741
:103F30002BFF8346FCF77AFA0022CDE90001204BE3
:103F400040464946FCF714F9DDE90023FCF710F977
:103F500002460B4600201A49FCF7EAFBFCF7B6FDC7
:103F60000746504606F0ACFB01462846FCF70CFF1E
:103F70003146FCF701FE5946FCF7FEFD3946FCF7D9
:103F800003FF314660605846FCF7F4FD0146FCF73C
:103F9000F3FD3946FCF7F8FEA060504606F090FBB2
:103FA00001462846FCF7F0FE01463046FCF7E2FDEC
:103FB0005946F8E6AFF30080CD3B7F669EA0F63F02
:103FC0000000F03F504606F07BFB2946804628461D
:103FD000FCF7DAFE074641462846FCF7D5FE314697
:103FE000FCF7CAFD3946FCF7C7FD01464FF07E508D
:103FF000FCF77EFF83462846FCF718FA2CA3D3E98A
:104000000023FCF76BFA804638468946FCF70EFA27
:10401000CDE900015846FCF709FA0022CDE902017A
:10402000254B40464946FCF7A3F8DDE90023FCF7A1
:104030009FF8DDE90223FCF751FAFCF747FD4FF04A
:104040007E5160603846FCF795FD0146FCF794FD13
:104050005946FCF799FE4246A0604B46002016499F
:10406000FCF784F8DDE90023FCF782F8DDE90223A0
:10407000FCF734FAFCF72AFD3146E0603846FCF7DD
:1040800079FD0146FCF778FD5946FCF77DFE20617D
:10409000504606F015FB01462846FCF775FE014622
:1040A0003046FCF767FD3946FCF766FD59462DE5BD
:1040B000CD3B7F669EA0F63F0000F03F8161FFF799
:1040C00087BC10B4C361019B01708261036210BCA4
:1040D000FFF77EBC10B50446C361029B017082618C
:1040E0000362FFF775FC204610BD0000034B012260
:1040F0001988034B186802F0E3BA00BF700600206D
:1041000074060020034B01221988034B186802F043
:10411000D7BA00BF6E06002074060020024608B120
:10412000FFF7E4BF024B1988024B186802F0C8BAC7
:104130007006002074060020024608B1FFF7E2BFB7
:10414000024B1988024B186802F0BABA6E060020BA
:104150007406002013B504460020FFF7DFFF04F0CB
:104160001F0402A901F8044D094C642301222046D2
:1041700003F065FC642301220DF10501204603F0E4
:10418000F9FD9DF80540FFF7B1FF204602B010BDD4
:104190007806002037B504460D460020FFF7BEFF25
:1041A00044F020046423022201A905488DF804404C
:1041B0008DF8055003F043FCFFF798FF03B030BDC6
:1041C0007806002073B504460D4616460020FFF71A
:1041D000A5FF44F0200402A901F8044D074C642314
:1041E0000122204603F02BFC642332462946204658
:1041F00003F025FCFFF77AFF02B070BD78060020BF
:1042000073B50E4B06461C7800208C4228BF0C4626
:10421000FFF784FF61230A4D02A901F8013D012245
:104220006423284603F00BFC6423224631462846CB
:1042300003F0A0FDFFF75AFF02B070BDD0060020CA
:1042400078060020FF21E120FFF7A4BFFF21E22034
:10425000FFF7A0BF0720FFF77DBF000008B50020D3
:10426000FFF778FF40F00301C9B20020FFF792FF8B
:104270000849D1E90023134303D005220A20FFF7A0
:10428000A1FFFFF7DFFFFFF7E1FFBDE80840FFF701
:1042900039BF00BFD806002013B50446CDE900237E
:1042A000D8B91249C1E9002305226946104B185DAF
:1042B000FFF788FF0F4B19780F4B185DFFF76AFF68
:1042C0000220FFF747FF012101FA04F40443E1B2A1
:1042D0000220FFF75FFF02B010BD0628FBD8044B99
:1042E000012C185CE0D001226946E1E7D8060020E5
:1042F00078D40008D00600207FD400087F2801462B
:1043000028BF7F210520FFF745BF0000202828BFD8
:104310002020014B18707047D00600206020FFF766
:1043200019BF10B5FFF76CFF1720FFF713FF044606
:10433000FFF78CFFFFF7F2FF04F0010010BD08B596
:104340001D20FFF707FF00F0FB011D20FFF722FFF4
:10435000BDE8084000211C20FFF71CBF014600B14A
:104360003F210120FFF716BF10B504460620FFF7D6
:10437000F1FE032C00F0F90102D141F0060103E047
:10438000022C06D141F004010620BDE81040FFF7E1
:1043900001BF012C02D141F00201F5E7042CF3D159
:1043A000EBE738B505460620FFF7D4FE022D00F0F6
:1043B000D7040CD144F0200421460620FFF7EAFE82
:1043C0000620FFF7C7FE031B5842584138BD012D98
:1043D00008BF44F00804EFE710B504460020FFF7DB
:1043E000B9FE00F0F3012CB1012C0CBF41F0080123
:1043F00041F00C010020BDE81040FFF7CBBE08B52E
:104400000020FFF7A7FEBDE8084000F0FD010020F6
:10441000FFF7C0BE70B50546FFF71CFF00F0400374
:10442000002B044614BF012600260DD015B1C0F3A1
:1044300042032B7040210720FFF7ACFEA30603D5F3
:1044400020210720FFF7A6FE304670BD0020FFF7B1
:10445000E1BF70B5164604460D460020FFF75EFE2C
:10446000202E04F007003246294628BF202240F0C3
:10447000A800FFF7A7FEBDE87040FFF737BE702128
:104480000720FFF787BE000007B50020FFF746FEB4
:1044900047F2503302A921F8043D02226423044864
:1044A00003F0CDFAFFF722FE03B05DF804FB00BF76
:1044B0007806002082B073B506460D46144606A95C
:1044C000582241F8043F554808F0ACFD544B1E609B
:1044D000544B1D80544B4FF0E7351C80FFF706FE10
:1044E0000020FFF729FE052001F04AFA08210020EC
:1044F000FFF750FE3F210120FFF74CFE0321022071
:10450000FFF748FE0321E7240846FFF743FE032197
:104510000420FFF73FFE02210520FFF73BFE0F219D
:104520000620FFF737FE0E210720FFF733FE00219C
:104530000820FFF72FFE00210920FFF72BFE694618
:1045400005220A2000958DF80440FFF73BFE4FF04E
:10455000C2330093C223052269460B208DF8043034
:10456000FFF730FEC3210C20FFF714FEC4210D20FD
:10457000FFF710FEC5210E20FFF70CFEC6210F200D
:10458000FFF708FE05226946102000958DF80440CB
:10459000FFF718FE00211120FFF7FCFD002112207B
:1045A000FFF7F8FD00211320FFF7F4FD0021142090
:1045B000FFF7F0FD00211520FFF7ECFD002116208C
:1045C000FFF7E8FDFFF760FF00211C20FFF7E2FD89
:1045D00000211D20FFF7DEFDFF210420FFF7DAFD9B
:1045E0000320FFF7C1FE0120FFF7DBFE0220FFF7EB
:1045F000F3FEFFF7A4FE20220C4B1A70FFF73FFFDB
:104600004C20FFF77BFEFFF71DFEFFF71FFEFFF7B5
:10461000F6FE02B0BDE8704002B070477806002098
:1046200074060020700600206E060020D0060020D0
:1046300010B50446094B81690360806A04F0DCF818
:10464000E169A06A04F0D8F8216AA06A04F0D4F8FD
:10465000A06A03F0C9FC204610BD00BFA4D4000826
:1046600010B50446FFF7E4FF20462C2105F042FD7B
:10467000204610BD0D4A482102604FF07E5241F2A3
:10468000243CC0E9011200220421C0E903C2828255
:10469000827582610822C0E9071240F201228284F9
:1046A000032280F82620024A82627047A4D40008C0
:1046B00010130020012383757047407D7047012A45
:1046C00003D1836A1B6859637047022A03D1836A46
:1046D0001B6899637047032A03D1836A1B68D963F7
:1046E0007047042A02BF836A1B6819647047007D03
:1046F00070470000F8B5837D04460D46002B00F09E
:104700009080437D012B37D1866846493046FCF7BF
:104710003BFB07464FF47A70454347F6FF7095FB25
:10472000F0F0FCF7DDFA3146FCF72EFB0146384687
:10473000FCF720FA3C4907463046FCF725FB0546C6
:1047400001463846FCF7DCFC50B938493046FCF7E6
:104750001BFB054601463846FCF7B4FC00B93D4654
:104760002846FCF713FD94F82560014632462046A2
:10477000BDE8F840FFF7A3BF032B20D1002916DACC
:1047800090F824200021FFF79AFF90F82620E16896
:104790002046FFF794FF47F6FF73002DE168B8BF8E
:1047A0006D42694394F8252091FBF3F1DFE790F81F
:1047B00026200021FFF783FF90F82420E7E7042B51
:1047C00021D190F82420C168FFF779FF85EAE573CD
:1047D000C668A3EBE5735E4347F6FF73002D96FBB7
:1047E000F3F608DA90F825200021FFF768FF90F82B
:1047F00026203146BBE790F826200021FFF75FFF17
:1048000090F82520F5E7022B0BD101F5FF45C16893
:104810007F354D434FF6FF7190F8252095FBF1F160
:10482000A6E7F8BD0080BB440000FA4400007A44CB
:1048300010B500210446FFF75DFF0023A37510BDEE
:10484000F0B51446224D89B0064628460F4603F0BF
:10485000E5FB204B2846C5E900340024C5E90247A2
:10486000C5E90444AC6103F083FD08B100F040FEEB
:104870006023002201A91648CDE90134CDE90344A3
:10488000CDE90544079403F021FE08B100F030FEA5
:1048900004220F480DEB020103F018FE08B100F0EE
:1048A00027FE082201A90A4803F010FE08B100F013
:1048B0001FFEB169064803F061FFF169044803F087
:1048C0005DFF316A024803F059FF09B0F0BD00BF37
:1048D00010130020002C014070B50446032940D875
:1048E000DFE801F002242D36437D012B19D144F677
:1048F0001F63E3604723236121756068FCF7ECF9CF
:1049000025690646681CFCF7EBF901463046FCF7C2
:10491000EFFA2A46A060E1682046BDE87040FFF744
:104920008FBF45F6BF53E3600023E4E7437D012BCF
:1049300002D143F62E33DCE742F6DF63F3E7437D33
:10494000012B02D142F21073D3E741F26F73EAE711
:10495000437D012B02D141F28833CAE740F60F6351
:10496000E1E770BD10B504468169806A03F006FF77
:10497000E169A06A03F002FF216AA06A03F0FEFE6B
:10498000A06A03F007FB217D2046BDE81040FFF739
:10499000A3BF417521B10122017D8275FFF79CBF44
:1049A0007047000001460148FDF746BAF8060020AE
:1049B0000148FDF749BA00BFF806002008B50548D0
:1049C000FDF751FABDE8084001460522024805F00E
:1049D0004FBB00BFF80600202014002010B5074C84
:1049E00001462046FDF742FA2046FDF739FABDE8B8
:1049F000104001460522024805F03ABBF8060020A7
:104A00002014002001460148FDF7DCBDF806002017
:104A100008B50548FDF744FABDE8084001460922FB
:104A2000024805F025BB00BFF80600202014002036
:104A30000148FDF7BBB900BFF80600200148FDF7AB
:104A400083B900BFF80600200148FDF79FB900BFF9
:104A5000F80600200122104B70B51B680F491A6040
:104A60000F48062201F006F93C210E4803F005FB31
:104A70000D4803F08FFA0D48FDF74AFA0C4E074D2A
:104A80000C4C33783BB120462946FCF765FC0748BF
:104A9000FDF7CAFBF5E770BD0C120020E006002010
:104AA0009C120020B013002054120020F8060020B1
:104AB0000000002018070020036810B5B3F1804FF4
:104AC000044603D107490848FEF742FA2268074B1B
:104AD0009A4205D1BDE8104005490648FDF7D6B910
:104AE00010BD00BFB0130020FC06002000040040F1
:104AF00054120020F80600207047000001460148CB
:104B0000FEF7D9B9FC06002008B502F037FE054BC8
:104B1000B0FBF3F0044B18600448BDE80840FDF713
:104B2000B1B800BFA086010098110020F80600204F
:104B30000148FDF7C5B900BFF80600204FF6FF7227
:104B4000054B984201D90120704701888A4201D162
:104B50000430F6E700207047FFFB000838B51B4B18
:104B600005461B8898B21A4B1B889BB283B94EF638
:104B7000EE63C31A18BF012303F5003415483E3411
:104B80000133A40200EB83239C4208D3802011E070
:104B9000D0B94EF6EE629A1A53425341ECE72268BE
:104BA00001320FD10A4600232146012001F06EFB9D
:104BB00008B180B238BD2A460023A11C012001F0B3
:104BC00065FBF6E70434DFE7AB20F3E700F8000805
:104BD00000FC0008FFF700080F4B104A1B881288E2
:104BE0009BB210B592B20BB19AB901239C020C4A48
:104BF0000C4B22442344934201D3012006E0148845
:104C0000A04204D1002032F8023C0B8010BD043ACF
:104C1000F1E7AB20FAE700BF00F8000800FC00084D
:104C2000FEFB000802F800082DE9F04F87B00746A8
:104C30000E46FFF793FF8028044642D100232B49FC
:104C40002B4D0A8801932B8892B29BB272B1002B34
:104C50004AD14FF47C480D464EF6EE6200232946B9
:104C6000012001F013FB20B184B22AE04FF4784810
:104C7000F2E731463846FFF771FF044608BB0646A7
:104C8000DFF87490DFF86CA039F816004FEA460B95
:104C900087421AD10136142EF6D10023012601A92C
:104CA00002A80293CDF81080059601F063FB00285E
:104CB000DAD1002200232946304601F0E7FA002825
:104CC000D2D1204607B0BDE8F08F0A49FFF784FF34
:104CD0000128DFD0BAF8001039F80B00FFF73EFFCB
:104CE0000028D7D00446ECE7AB24EAE700F8000838
:104CF00000FC00089C11002002000020002310B5D9
:104D000086B0CDE9013301231148CDE90403FFF753
:104D100015FF90B1002200230D49012001F0B6FAE1
:104D2000044688B90B480490FFF708FF60B901A951
:104D300002A801F01FFB044606E001A902A801F049
:104D400019FB04460028E5D0204606B010BD00BF80
:104D500000F8000800FC000800212DE9F047594840
:104D6000594A048886B04EF6EE65A3B201911488C4
:104D700002910121AB42A4B20490059128D04FF6D4
:104D8000FF718B4205D00BB9002C64D1FFF7B6FF41
:104D90001BE044B9FFF7D2FE002800F08E8000200F
:104DA00006B0BDE8F087AC42F0D1FFF7C7FE30B9DE
:104DB00001A902A801F0DEFA08B180B2F0E70022F2
:104DC00000234149012001F061FA0028F5D1E6E70E
:104DD00074BB3E4F4FF0FF36B846DFF8F890B9F895
:104DE000003037F814004FEA440A984208BF26B250
:104DF000B4420FD10134142CF1D1002200233149E7
:104E0000012001F043FA0028D7D12F480123049054
:104E10000593BFE72E4D2946FFF7DEFE0128E9D0B6
:104E2000298838F80A00FFF799FE0028E2D0B7E792
:104E30004FF6FF739C42A9D110460492FFF77EFE05
:104E400028B901A902A801F095FA0028B5D10022DD
:104E500000231C49B6E78C4202D10492104699E720
:104E60001A4F1C464FF0FF36B846DFF86C90B9F881
:104E7000003037F814004FEA440A984208BF26B2BF
:104E8000B4420CD10134142CF1D1002200230E497C
:104E9000012001F0FBF900288FD10A48B6E70C4D3C
:104EA0002946FFF799FE0128ECD0298838F80A0036
:104EB000FFF754FE0028E5D072E701A902A801F02F
:104EC00059FA82E700F8000800FC00080200002000
:104ED0009C11002006F8000806FC000837B50C46B7
:104EE0000DF106010546FFF777FE012804D070B9E1
:104EF000BDF80630A34208D001F082F921462846C9
:104F0000FFF792FE01F08EF9012003B030BD0020C2
:104F1000FBE708B5FFF760FEB0FA80F0400908BD76
:104F2000002204210270C26180F820200122017653
:104F300080F8212070470223426041F2883241808C
:104F4000C0E9022364210523C0E90413704710B5AA
:104F5000044600F00FFDE26994F82030801A9A1C94
:104F600054F82220904225D3227E0133DBB29A42AC
:104F700084F8203004BF002384F8203000F0FAFCCD
:104F800094F82120E06182F001026188606801F0FC
:104F900097FB94F8213083F0010384F821302378C3
:104FA00043B9022341F288326421C4E90223052374
:104FB000C4E9041310BD3223C0E90233C0E904334D
:104FC000002303707047FFF7F6BF3223FA22C0E9CF
:104FD00002231E22C0E90423002303707047FA2332
:104FE000C0E90233C0E9043300230370704730B5D1
:104FF000142495B0224600210CA808F01EF8224681
:105000000DEB0400002108F018F80021102201A87F
:1050100008F013F8022501224FF48033CDE90A236A
:10502000CDE911534FF4E0130AA80E92139302F046
:1050300031F90F230024CDE905354FF4806329466B
:1050400005A8CDE90743099402F0FCFA1223019365
:105050004FF4004301A8CDE9033402F095FB15B0ED
:1050600030BD00002DE98048C54D9FB000F064FCC4
:10507000FFF7BDFF1022002115A807F0DEFFAB6986
:10508000002243F01003AB61AB694FF2C02103F083
:1050900010030493049BAB69BA4843F02003AB614F
:1050A000AB69002403F020030593059BAB6901263F
:1050B00043F00403AB61AB694FF0040903F0040350
:1050C0000693069BAB694FF4805743F00803AB612E
:1050D000AB694FF0020A03F008030793079B01F046
:1050E000EFFA00224FF40041A74801F0E9FA4FF42B
:1050F000005315A9A548CDE91534179601F086F996
:1051000040F60343DFF8A8B215A99E48CDE915344F
:10511000179601F07BF915A99A48CDE9159B1794CC
:1051200001F074F915A997484FF00308CDE91576F9
:105130001794CDF860A001F069F94FF46243112291
:1051400015A99048CDE9153201921794CDF86080E9
:1051500001F05CF94FF40041019A15918A4815A9B4
:10516000CDE91624CDF8608001F050F9C02215A9D0
:105170008448CDE91526CDE9174601F047F94FF4EB
:10518000807215A97F4815920192CDE916B601F0FB
:105190003DF96B69DFF81CB2019A33436B616B69AF
:1051A0000625CBF808204FF4602279493340039359
:1051B0005846039BCBF81C20CBF80010CBF81050BE
:1051C0008BF80C608BF81440CBF80440CDE9154403
:1051D000179400F0FFFD15A958461795CDE915A6BF
:1051E00000F092FC15A95846CDE9158A00F08CFC18
:1051F00015A95846CDE9159800F086FC052215A999
:10520000584615920192CDF8589000F07DFC019A15
:1052100015A958461595169200F076FC072215A997
:105220005846CDE9152500F06FFC102221460AA84A
:1052300007F003FF1C2221460EA8CDE9084407F021
:10524000FCFE202321461A4615A8524D019307F073
:10525000F4FE514A2846C5E900244FF6FE72AC60C0
:10526000C5E90324C5E9054403F056F80AA9284610
:105270000A9703F092F9284603F07AF808A928461D
:10528000CDE9084403F0BAFA60220EA9CDE90E2454
:1052900028462246CDE91044CDE91244149403F087
:1052A00015F94A460EA9284603F010F908220EA95E
:1052B000284603F00BF94FF4005315A928461A931A
:1052C000CDE91544CDE9174419941C9403F0C8FAAC
:1052D000284600F04FFA1C22214616A807F0ADFE22
:1052E0002E4D019B4FF080424FF0080BAB604FF604
:1052F000FF7315A92846EB600193C5E900242C61D2
:10530000AC61CDE90E44CDF854801796CDF864B069
:105310001B96CDF874B003F057F80EA92846CDE9D6
:105320000E4403F06BFA2146102215A807F085FE03
:105330001B4D1C4A2846C5E9002447F27F02AC6099
:10534000C5E90324AC61CDE90E4402F0E5FF15A9DF
:105350002846159703F021F90EA92846CDE90E44F9
:1053600003F04CFA1022214615A807F066FE4722EA
:105370000D4D019B0D492846C5E900121CE000BFF8
:1053800000100240000C01400008014000100140E4
:105390000024014010130020002C0140B013002015
:1053A00054120020000400400C12002000080040AD
:1053B000000011109C120020C5E90334AC60AC6100
:1053C000CDE90E4402F0A8FF15A92846159703F071
:1053D000E4F80EA92846CDE90E4403F00FFA03F0D5
:1053E000E1FF4FF482733F483F4D4FF4007CC0E92A
:1053F00000531823C0E906C30A23C0E90244C3626C
:10540000C0E90444C0E90844846202F0C0FA2246BC
:1054100021460B2000F072FD0B2000F0A3FD224678
:1054200051461E2000F06AFD1E2000F09BFD224622
:1054300049461D2000F062FD1D2000F093FD22462C
:1054400041461C2000F05AFD1C2000F08BFD224636
:105450000D21172000F052FD172000F083FD224699
:105460000E21584600F04AFD584600F07BFD2246CA
:1054700039461E4801F024F94FF4967000F080FA86
:1054800032463946194801F01BF94FF4967000F086
:1054900077FA22463946154801F012F94FF4967012
:1054A00000F06EFA32463946104801F009F94FF41F
:1054B000967000F065FA224639460C4801F000F972
:1054C0004FF4967000F05CFA00F09AFEFFF744FC8F
:1054D00000F0A8FE32463946044801F0F1F8FFF723
:1054E000B9FAFCE75813002000300140000C0140DD
:1054F000704700000E4B82B09A6942F001029A6137
:105500009A6902F001020092009ADA6942F0805230
:10551000DA61DB69074A03F080530193019B53680A
:1055200023F0E06343F00073536002B0704700BFA4
:10553000001002400000014030B5054687B010223F
:10554000002102A807F079FD2A68214B9A423CD13C
:1055500003F56C439A6902A942F400729A619A6950
:105560001C4802F400720092009A9A691A4C42F0A8
:1055700004029A619B69FC2203F004030193019BDE
:105580000323CDE9022300F041FF80204FF4007295
:105590000023C4E903024FF4006C20220F49204687
:1055A000C4E90013A360C4E905C2E36100F0FEFC96
:1055B00008B1FFF79DFF00222C62122011466562A0
:1055C00000F09CFC122000F0CDFC07B030BD00BF05
:1055D0000024014000080140CC12002008000240D5
:1055E00030B51024054687B02246002102A807F0F6
:1055F00024FD2A68184B9A422CD103F560439A691E
:1056000002A942F480529A619A69144802F48052C5
:105610000092009A9A6942F008029A619B692822D6
:1056200003F008030193019B0223CDE90223032326
:10563000059300F0EBFE002302A90848CDE90333EF
:10564000029400F0E3FE064A536843F0E06343F03F
:105650000103536007B030BD00300140000C014031
:10566000000001401FB50368254A93421CD1254B19
:1056700018209A6942F400629A6100229B691146DF
:1056800003F400630193019B00F038FC182000F044
:1056900069FC00221920114600F030FC192005B0E9
:1056A0005DF804EB00F05EBC174A934210D1154B35
:1056B0001D20DA6942F00202DA610022DB6911463C
:1056C00003F002030293029B00F018FC1D20E6E7A2
:1056D0000E4A934210D10B4B1E20DA6942F00402AD
:1056E000DA610022DB69114603F004030393039B94
:1056F00000F004FC1E20D2E705B05DF804FB00BFFB
:10570000002C01400010024000040040000800404E
:1057100010B5044686B01022002102A807F08DFCC7
:105720002368B3F1804F21D103F50433DA6902A96C
:1057300042F00102DA61DA690D4802F001020092DA
:10574000009A9A6942F004029A619B6903F004038B
:105750000193019B0323029300F058FE00221C20BA
:10576000114600F0CBFB1C2000F0FCFB06B010BD86
:105770000008014010B5044686B01022002102A89E
:1057800007F05BFC22680D4B9A4214D103F5644389
:105790009A6902A942F004029A619B694FF4E0629F
:1057A00003F004030193019B02230548CDE9022382
:1057B000059300F02BFE06B010BD00BF002C014089
:1057C000000801407047FEE7FEE7FEE7FEE770478E
:1057D0007047704700F0C2B8042000F077BF0000A7
:1057E000014800F051BC00BFCC120020014800F07D
:1057F00007B900BF9C120020014801F019B800BF92
:10580000E41600204FF4807000F060BF014802F001
:10581000A8BC00BF10130020FFF7F8BF014802F03A
:10582000A0BC00BFB0130020014802F09ABC00BF2A
:1058300054120020014802F094BC00BF0C1200205A
:105840000120704708B507F0B3FB162303604FF043
:10585000FF3008BD08B507F0ABFB16230360FEE779
:105860000B4B10B51968024609B90A491960186846
:1058700009490A4C0244091B8A4206D907F098FBE1
:105880000C2303604FF0FF3010BD1A60FCE700BF2F
:10589000A0110020D81B00200050002000040000B0
:1058A00070470000002103E00B4B5B58435004316C
:1058B0000A480B4B42189A42F6D30A4A02E00023E8
:1058C00042F8043B084B9A42F9D3FFF7E9FF07F08F
:1058D00075FBFFF7C7FB7047D0DB00080000002016
:1058E0004406002048060020D41B0020FEE70000EC
:1058F00038B50E4B054618784FF47A73B3FBF0F3C6
:105900000B4A1068B0FBF3F000F03AFB044658B9BC
:105910000F2D09D8024629464FF0FF3000F0EEFA6D
:105920002046044B1D6038BD0120FCE730000020FC
:105930002C00002034000020074A08B5136803201B
:1059400043F01003136000F0C7FA0020FFF7D0FF08
:10595000FFF7D0FD002008BD00200240034A044BA1
:1059600011681B780B441360704700BFF8130020C8
:1059700030000020014B1868704700BFF81300206A
:1059800038B50446FFF7F6FF0546631C1EBF044BFF
:105990001B78E418FFF7EEFF401BA042FAD338BD96
:1059A00030000020436A10B59A6A12F0500F1BD1E4
:1059B0009A6A42F400729A621A68926802F460224B
:1059C000B2F5602F0CD11A7B52B99A6A22F4807218
:1059D0009A629A6AD2045EBF9A6A42F001029A629F
:1059E0001846FFF789F810BD1B6ABDE810401B6B15
:1059F0001847704708B5406AFFF7FBFF08BD7047BE
:105A0000036810B55A680446900627D51A689107AE
:105A100024D5A26AD2065EBFA26A42F40072A262D4
:105A20009A6802F46022B2F5602F10D1227B72B91D
:105A30005A6822F020025A60A36A23F48073A3629A
:105A4000A36ADB045EBFA36A43F00103A36220469E
:105A5000FFF752F86FF0120223681A6023685A6841
:105A6000100630D51A6851072DD5A26AD2065EBF3E
:105A7000A26A42F40052A2629A6802F4E042B2F5CD
:105A8000E04F0AD05A68500516D49A6802F4602292
:105A9000B2F5602F10D1227B72B95A6822F08002D1
:105AA0005A60A36A23F48053A362A36AD9055EBF38
:105AB000A36A43F00103A362204600F00BFA6FF0E3
:105AC0000C0223681A6023685A6852060DD51B68B9
:105AD000DB070AD5A36A204643F48033A362FFF7AD
