:020000040800F2
:100000000000012019C5000835C200083BC20008E5
:1000100041C2000847C200084DC2000800000000AD
:1000200000000000000000000000000053C20008B3
:1000300061C20008000000006FC200087DC2000815
:1000400069C5000869C5000869C5000869C50008D8
:1000500069C5000869C5000869C5000869C50008C8
:1000600089C2000869C5000869C5000869C500089B
:1000700069C5000869C5000869C5000869C50008A8
:1000800069C5000869C5000899C2000800000000A1
:1000900000000000000000000000000069C500082A
:1000A000ADC2000869C5000869C5000869C5000837
:1000B000C9C20008DDC20008F1C2000869C5000815
:1000C00069C5000869C5000869C5000869C5000858
:1000D00069C5000805C3000869C5000800000000E4
:1000E00069C5000869C5000869C50008000000006E
:1000F00000000000000000000000000069C50008CA
:100100000000000069C5000819C3000869C500089F
:1001100000000000000000000000000000000000DF
:100120002DC3000869C5000869C5000869C5000835
:1001300069C5000800000000000000000000000089
:1001400000000000000000000000000041C30008A3
:1001500069C5000869C5000855C3000869C50008DD
:1001600069C5000869C50008000000000000000023
:10017000000000000000000000000000000000007F
:100180000000000069C50008000000000000000039
:0401900069C5000835
:1001980010B5054C237833B9044B13B10448AFF3B9
:1001A80000800123237010BD2006002000000000FD
:1001B80054BE010808B5034B1BB103490348AFF30C
:1001C800008008BD000000002406002054BE01087D
:1001D80081F0004102E000BF83F0004330B54FEAF0
:1001E80041044FEA430594EA050F08BF90EA020F5D
:1001F8001FBF54EA000C55EA020C7FEA645C7FEAF0
:10020800655C00F0E2804FEA5454D4EB5555B8BF12
:100218006D420CDD2C4480EA020281EA030382EA83
:10022800000083EA010180EA020281EA0303362D15
:1002380088BF30BD11F0004F4FEA01314FF4801CE8
:100248004CEA113102D0404261EB410113F0004FFA
:100258004FEA03334CEA133302D0524263EB4303B1
:1002680094EA050F00F0A780A4F10104D5F1200E4F
:100278000DDB02FA0EFC22FA05F2801841F10001AA
:1002880003FA0EF2801843FA05F359410EE0A5F17E
:1002980020050EF1200E012A03FA0EFC28BF4CF0AF
:1002A800020C43FA05F3C01851EBE37101F0004565
:1002B80007D54FF0000EDCF1000C7EEB00006EEB72
:1002C8000101B1F5801F1BD3B1F5001F0CD34908FC
:1002D8005FEA30004FEA3C0C04F101044FEA445253
:1002E80012F5800F80F09A80BCF1004F08BF5FEADA
:1002F800500C50F1000041EB045141EA050130BDBA
:100308005FEA4C0C404141EB0101013C28BFB1F5CB
:10031800801FE9D291F0000F04BF01460020B1FA16
:1003280081F308BF2033A3F10B03B3F120020CDAE9
:100338000C3208DD02F1140CC2F10C0201FA0CF0C7
:1003480021FA02F10CE002F11402D8BFC2F1200C2C
:1003580001FA02F120FA0CFCDCBF41EA0C019040E2
:10036800E41AA2BF01EB0451294330BD6FEA04042B
:100378001F3C1CDA0C340EDC04F11404C4F1200216
:1003880020FA04F001FA02F340EA030021FA04F328
:1003980045EA030130BDC4F10C04C4F1200220FA7F
:1003A80002F001FA04F340EA0300294630BD21FABD
:1003B80004F0294630BD94F0000F83F4801306BF83
:1003C80081F480110134013D4EE77FEA645C18BF77
:1003D8007FEA655C29D094EA050F08BF90EA020F0E
:1003E80005D054EA000C04BF1946104630BD91EA06
:1003F800030F1EBF0021002030BD5FEA545C05D109
:100408004000494128BF41F0004130BD14F5800447
:100418003CBF01F5801130BD01F0004545F0FE41BB
:1004280041F470014FF0000030BD7FEA645C1ABFF0
:10043800194610467FEA655C1CBF0B46024650EA27
:10044800013406BF52EA033591EA030F41F4002153
:1004580030BD00BF90F0000F04BF0021704730B5D9
:100468004FF4806404F132044FF000054FF00001AE
:1004780050E700BF90F0000F04BF0021704730B56F
:100488004FF4806404F1320410F0004548BF404244
:100498004FF000013EE700BF42004FEAE2014FEA99
:1004A80031014FEA02701FBF12F07F4393F07F4F74
:1004B80081F06051704732F07F4208BF704793F077
:1004C8007F4F04BF41F40021704730B54FF460748A
:1004D80001F0004521F000411CE700BF50EA01028D
:1004E80008BF704730B54FF000050AE050EA010236
:1004F80008BF704730B511F0004502D5404261EBA6
:1005080041014FF4806404F132045FEA915C3FF4E6
:10051800D8AE4FF003025FEADC0C18BF03325FEA83
:10052800DC0C18BF033202EBDC02C2F1200300FA34
:1005380003FC20FA02F001FA03FE40EA0E0021FA59
:1005480002F11444BDE600BF70B54FF0FF0C4CF447
:10055800E06C1CEA11541DBF1CEA135594EA0C0FF9
:1005680095EA0C0F00F0DEF82C4481EA030621EA34
:100578004C5123EA4C5350EA013518BF52EA03356F
:1005880041F4801143F4801338D0A0FB02CE4FF021
:100598000005E1FB02E506F00042E0FB03E54FF051
:1005A8000006E1FB03569CF0000F18BF4EF0010E49
:1005B800A4F1FF04B6F5007F64F5407404D25FEA45
:1005C8004E0E6D4146EB060642EAC62141EA5551F8
:1005D8004FEAC52040EA5E504FEACE2EB4F1FD0C3A
:1005E80088BFBCF5E06F1ED8BEF1004F08BF5FEAB8
:1005F800500E50F1000041EB045170BD06F000466A
:1006080046EA010140EA020081EA0301B4EB5C0416
:10061800C2BFD4EB0C0541EA045170BD41F480110E
:100628004FF0000E013C00F3AB8014F1360FDEBF33
:10063800002001F0004170BDC4F10004203C35DA0F
:100648000C341BDC04F11404C4F1200500FA05F392
:1006580020FA04F001FA05F240EA020001F0004233
:1006680021F0004110EBD37021FA04F642EB0601A9
:100678005EEA430E08BF20EAD37070BDC4F10C04D3
:10068800C4F1200500FA04F320FA05F001FA04F297
:1006980040EA020001F0004110EBD37041F1000183
:1006A8005EEA430E08BF20EAD37070BDC4F120058E
:1006B80000FA05F24EEA020E20FA04F301FA05F2F6
:1006C80043EA020321FA04F001F0004121FA04F29E
:1006D80020EA020000EBD3705EEA430E08BF20EA6E
:1006E800D37070BD94F0000F0FD101F000464000A8
:1006F80041EB010111F4801F08BF013CF7D041EA2A
:10070800060195F0000F18BF704703F0004652002D
:1007180043EB030313F4801F08BF013DF7D043EAFE
:100728000603704794EA0C0F0CEA135518BF95EAB4
:100738000C0F0CD050EA410618BF52EA4306D1D13B
:1007480081EA030101F000414FF0000070BD50EA5A
:10075800410606BF1046194652EA430619D094EAE4
:100768000C0F02D150EA013613D195EA0C0F05D1CE
:1007780052EA03361CBF104619460AD181EA030122
:1007880001F0004141F0FE4141F470014FF00000DA
:1007980070BD41F0FE4141F4780170BD70B54FF075
:1007A800FF0C4CF4E06C1CEA11541DBF1CEA1355F5
:1007B80094EA0C0F95EA0C0F00F0A7F8A4EB0504D7
:1007C80081EA030E52EA03354FEA013100F08880CE
:1007D8004FEA03334FF0805545EA131343EA126397
:1007E8004FEA022245EA111545EA10654FEA00264C
:1007F8000EF000419D4208BF964244F1FD0404F505
:10080800407402D25B084FEA3202B61A65EB030560
:100818005B084FEA32024FF480104FF4002CB6EB1D
:10082800020E75EB030E22BFB61A754640EA0C009D
:100838005B084FEA3202B6EB020E75EB030E22BFDD
:10084800B61A754640EA5C005B084FEA3202B6EB1E
:10085800020E75EB030E22BFB61A754640EA9C00DD
:100868005B084FEA3202B6EB020E75EB030E22BFAD
:10087800B61A754640EADC0055EA060E18D04FEA6B
:10088800051545EA16754FEA06164FEAC30343EA0B
:1008980052734FEAC2025FEA1C1CC0D111F4801FD8
:1008A8000BD141EA00014FF000004FF0004CB6E7D1
:1008B80011F4801F04BF01430020B4F1FD0C88BF70
:1008C800BCF5E06F3FF6AFAEB5EB030C04BFB6EB7B
:1008D800020C5FEA500C50F1000041EB045170BD6E
:1008E8000EF0004E4EEA113114EB5C04C2BFD4EB9B
:1008F8000C0541EA045170BD41F480114FF0000E1F
:10090800013C90E645EA060E8DE60CEA135594EA9A
:100918000C0F08BF95EA0C0F3FF43BAF94EA0C0F9D
:100928000AD150EA01347FF434AF95EA0C0F7FF412
:1009380025AF104619462CE795EA0C0F06D152EA66
:1009480003353FF4FDAE1046194622E750EA41064A
:1009580018BF52EA43067FF4C5AE50EA41047FF45B
:100968000DAF52EA43057FF4EBAE12E74FF0FF3CC0
:1009780006E000BF4FF0010C02E000BF4FF0010C91
:100988004DF804CD4FEA410C7FEA6C5C4FEA430C0A
:1009980018BF7FEA6C5C1BD001B050EA410C0CBF59
:1009A80052EA430C91EA030F02BF90EA020F0020BB
:1009B800704710F1000F91EA030F58BF994208BF22
:1009C80090422CBFD8176FEAE37040F001007047DF
:1009D8004FEA410C7FEA6C5C02D150EA013C07D136
:1009E8004FEA430C7FEA6C5CD6D152EA033CD3D081
:1009F8005DF8040B704700BF8446104662468C467B
:100A08001946634600E000BF01B5FFF7B7FF0028AD
:100A180048BF10F1000F01BD4DF808EDFFF7F4FFD6
:100A28000CBF012000205DF808FB00BF4DF808ED61
:100A3800FFF7EAFF34BF012000205DF808FB00BF84
:100A48004DF808EDFFF7E0FF94BF012000205DF8A6
:100A580008FB00BF4DF808EDFFF7CEFF94BF01205B
:100A680000205DF808FB00BF4DF808EDFFF7C4FF54
:100A780034BF012000205DF808FB00BF4FEA410C9D
:100A88007FEA6C5C02D150EA013C0AD14FEA430C80
:100A98007FEA6C5C02D152EA033C02D14FF00000BD
:100AA80070474FF0010070474FEA410212F50012FB
:100AB80015D211D56FF47873B3EB625212D94FEA9D
:100AC800C12343F0004343EA505311F0004F23FA87
:100AD80002F018BF404270474FF00000704750EADC
:100AE800013005D111F0004008BF6FF00040704799
:100AF8004FF00000704700BF4A0011D212F50012F3
:100B080011D20DD56FF47873B3EB62520ED44FEA5D
:100B1800C12343F0004343EA505323FA02F07047DD
:100B28004FF00000704750EA013002D14FF0FF301B
:100B380070474FF0000070474FEA4102B2F1E043BE
:100B480024BFB3F5001CDCF1FE5C0DD901F0004CAC
:100B58004FEAC0024CEA5070B2F1004F40EB8300FC
:100B680008BF20F00100704711F0804F21D113F128
:100B78003872BCBF01F00040704741F480114FEA61
:100B88005252C2F11802C2F1200C10FA0CF320FAEA
:100B980002F018BF40F001004FEAC1234FEAD32307
:100BA80003FA0CFC40EA0C0023FA02F34FEA430371
:100BB800CCE77FEA625307D150EA01331EBF4FF0FA
:100BC800FE4040F44000704701F0004040F0FE4015
:100BD80040F40000704700BF53B94AB9002908BF64
:100BE80000281CBF4FF0FF314FF0FF3000F074B900
:100BF800ADF1080C6DE904CE00F006F8DDF804E06C
:100C0800DDE9022304B070472DE9F047089D04464A
:100C18008E46002B4DD18A42944669D9B2FA82F2A7
:100C280052B101FA02F3C2F1200120FA01F10CFAE3
:100C380002FC41EA030E94404FEA1C48210CBEFB1B
:100C4800F8F61FFA8CF708FB16E341EA034306FBA4
:100C580007F199420AD91CEB030306F1FF3080F033
:100C68001F81994240F21C81023E63445B1AA4B280
:100C7800B3FBF8F008FB103344EA034400FB07F722
:100C8800A7420AD91CEB040400F1FF3380F00A8163
:100C9800A74240F207816444023840EA0640E41B58
:100CA80000261DB1D4400023C5E900433146BDE804
:100CB800F0878B4209D9002D00F0EF800026C5E9A6
:100CC800000130463146BDE8F087B3FA83F6002EBE
:100CD8004AD18B4202D3824200F2F980841A61EB36
:100CE800030301209E46002DE0D0C5E9004EDDE754
:100CF80002B9FFDEB2FA82F2002A40F09280A1EB3C
:100D08000C014FEA1C471FFA8CFE0126200CB1FB90
:100D1800F7F307FB131140EA01410EFB03F0884289
:100D280008D91CEB010103F1FF3802D2884200F216
:100D3800CB804346091AA4B2B1FBF7F007FB1011A8
:100D480044EA01440EFB00FEA64508D91CEB040446
:100D580000F1FF3102D2A64500F2BB800846A4EBA1
:100D68000E0440EA03409CE7C6F12007B34022FA8C
:100D780007FC4CEA030C20FA07F401FA06F31C43BB
:100D8800F9404FEA1C4900FA06F3B1FBF9F8200CC8
:100D98001FFA8CFE09FB181140EA014108FB0EF00E
:100DA800884202FA06F20BD91CEB010108F1FF3A5E
:100DB80080F08880884240F28580A8F1020861446A
:100DC800091AA4B2B1FBF9F009FB101144EA014178
:100DD80000FB0EFE8E4508D91CEB010100F1FF3423
:100DE8006CD28E456AD90238614440EA0840A0FBBB
:100DF8000294A1EB0E01A142C846A64656D353D091
:100E08005DB1B3EB080261EB0E0101FA07F722FAB4
:100E180006F3F1401F43C5E9007100263146BDE8DD
:100E2800F087C2F12003D8400CFA02FC21FA03F340
:100E3800914001434FEA1C471FFA8CFEB3FBF7F0C1
:100E480007FB10360B0C43EA064300FB0EF69E42E6
:100E580004FA02F408D91CEB030300F1FF382FD27F
:100E68009E422DD9023863449B1B89B2B3FBF7F627
:100E780007FB163341EA034106FB0EF38B4208D900
:100E88001CEB010106F1FF3816D28B4214D9023E41
:100E98006144C91A46EA004638E72E46284605E75F
:100EA8000646E3E61846F8E64B45A9D2B9EB020830
:100EB80064EB0C0E0138A3E74646EAE7204694E7C0
:100EC8004046D1E7D0467BE7023B614432E73046F3
:100ED80009E76444023842E7704700BFB0B483B002
:100EE80000AF7860254A7B681A607B6801221A7116
:100EF8007B6801225A717B6800229A717B68002204
:100F0800DA717B681E4A0C3307CA83E807007B68DE
:100F18001B4A203307CA83E807007B68184A343322
:100F280007CA83E807007B68164A03F16804154678
:100F38000FCD0FC40FCD0FC495E8030084E803005C
:100F48007B680F4A03F5D47307CA83E807007B68F8
:100F58000B4A03F5DB74134607CB20606160A2607F
:100F68007B68074A03F5E27307CA83E807007B68D2
:100F780018460C37BD46B0BC704700BF8CBF01088F
:100F880070BE01087CBE010880B483B000AF7860F1
:100F9800044A7B681A607B6818460C37BD465DF8C2
:100FA800047B70478CBF010880B582B000AF7860C1
:100FB8007868FFF7E9FF4FF4EA71786817F034FCB6
:100FC8007B6818460837BD4680BD80B483B000AF43
:100FD80078607B6801221A717B6800221A817B681D
:100FE80040F6FF725A817B6800221A837B680022D0
:100FF8005A837B6800229A817B6843F23332DA8114
:101008007B6846F266621A827B6849F699125A82B0
:101018007B684CF6CC429A827B684FF6FF72DA8284
:101028007B6801225A717B6800229A837B6840F6AC
:10103800FF72DA837B6800229A857B680022DA8552
:101048007B6800221A847B6843F233325A847B68B7
:1010580046F266629A847B6849F69912DA847B685C
:101068004CF6CC421A857B684FF6FF725A857B682E
:1010780000229A717B6800221A867B6840F6FF720C
:101088005A867B680022A3F840207B680022A3F8D8
:1010980042207B6800229A867B6843F23332DA86E4
:1010A8007B6846F266621A877B6849F699125A8706
:1010B8007B684CF6CC429A877B684FF6FF72DA87DA
:1010C8007B680022DA717B680022A3F844207B68E1
:1010D80040F6FF72A3F846207B6840F6FF72A3F83B
:1010E80048207B680022A3F84A207B6840F6FF72FC
:1010F800A3F84C207B680022A3F84E207B684CF2B2
:101108003002A3F850207B6844F21002A3F8522062
:101118007B6847F6FF72A3F854207B684CF23002D4
:10112800A3F856207B6844F21002A3F8582000BFA9
:101138000C37BD465DF8047B704780B483B000AFC0
:1011480078607B68B3F8563018460C37BD465DF8B2
:10115800047B704780B483B000AF78607B68B3F8D5
:10116800583018460C37BD465DF8047B704780B48C
:1011780083B000AF78607B68B3F8503018460C37FE
:10118800BD465DF8047B704780B483B000AF7860DB
:101198007B68B3F8543018460C37BD465DF8047BBD
:1011A800704780B483B000AF78607B68B3F8523082
:1011B80018460C37BD465DF8047B704780B584B08F
:1011C80000AF786039600023FB73FB7B062B1FD8C8
:1011D800FB7B9B003A6813441B6819B2FA7B1346E1
:1011E8009B001344DB0090337A681A44072378681D
:1011F80000F0D4FC03461A46FB7B91B27A682C3384
:101208005B0013440A465A80FB7B0133FB73DCE71F
:1012180000BF1037BD4680BD80B483B000AF786092
:101228000B46FB707B68FA781A7100BF0C37BD4615
:101238005DF8047B704780B483B000AF78607B684A
:10124800B3F85A309AB27B681A8100BF0C37BD4692
:101258005DF8047B704780B483B000AF78607B682A
:10126800B3F85A309AB27B685A8100BF0C37BD4632
:101278005DF8047B704780B483B000AF78600B469C
:101288007B807B687A885A8300BF0C37BD465DF83F
:10129800047B704780B483B000AF78600B467B80D6
:1012A8007B687A881A8300BF0C37BD465DF8047BDB
:1012B8007047000080B483B000AF78600B46FB70C5
:1012C80013463B80FB78013B052B27D801A252F837
:1012D80023F000BFF5120008FD12000805130008EE
:1012E8000D130008151300081D1300087B683A88C1
:1012F8009A8113E07B683A88DA810FE07B683A8844
:101308001A820BE07B683A885A8207E07B683A8841
:101318009A8203E07B683A88DA8200BF00BF0C3704
:10132800BD465DF8047B704780B584B002AF786035
:101338007B681B79002B14D07B681B680C331B68F7
:1013480078689847034618467B6803F5D4727B682B
:101358000C33062100910146786800F0A0FB034693
:1013680000E0002318460837BD4680BD80B582B02E
:1013780000AF78607B681A897B685B899A421CD9C0
:101388007B68B3F85A3099B27B681A897B681B8BE3
:10139800D31A98B27B685A897B685B8B13449BB2DB
:1013A8000246786800F050FC03461A467B68A3F8AA
:1013B800B4217B68B3F8B4311BE07B68B3F85A30CA
:1013C80099B27B681A897B681B8B134498B27B6837
:1013D8005A897B685B8BD31A9BB20246786800F007
:1013E80033FC03461A467B68A3F8B4217B68B3F83C
:1013F800B43118460837BD4680BD80B483B000AF0D
:1014080078600B46FB707B68FA785A7100BF0C371E
:10141800BD465DF8047B704780B483B000AF786048
:101428007B68B3F85C309AB27B689A8300BF0C374C
:10143800BD465DF8047B704780B483B000AF786028
:101448007B68B3F85C309AB27B68DA8300BF0C37EC
:10145800BD465DF8047B704780B483B000AF786008
:101468000B467B807B687A88DA8500BF0C37BD46DF
:101478005DF8047B704780B483B000AF78600B469A
:101488007B807B687A889A8500BF0C37BD465DF8FB
:10149800047B704780B483B000AF78600B46FB7064
:1014A80013463B80FB78013B052B27D801A252F855
:1014B80023F000BFD5140008DD140008E514000867
:1014C800ED140008F5140008FD1400087B683A883C
:1014D8001A8413E07B683A885A840FE07B683A885C
:1014E8009A840BE07B683A88DA8407E07B683A885C
:1014F8001A8503E07B683A885A8500BF00BF0C371D
:10150800BD465DF8047B704780B584B002AF786053
:101518007B685B79002B14D07B681B6814331B68CD
:1015280078689847034618467B6803F5DB727B6842
:101538002033062100910146786800F0B0FA03468E
:1015480000E0002318460837BD4680BD80B582B04C
:1015580000AF78607B689A8B7B68DB8B9A421CD9DA
:101568007B68B3F85C3099B27B689A8B7B689B8DFB
:10157800D31A98B27B68DA8B7B68DB8D13449BB2F5
:101588000246786800F060FB03461A467B68A3F8B9
:10159800C2217B68B3F8C2311BE07B68B3F85C30CA
:1015A80099B27B689A8B7B689B8D134498B27B6851
:1015B800DA8B7B68DB8DD31A9BB20246786800F021
:1015C80043FB03461A467B68A3F8C2217B68B3F83D
:1015D800C23118460837BD4680BD80B483B000AF1D
:1015E80078600B46FB707B68FA789A7100BF0C37FD
:1015F800BD465DF8047B704780B483B000AF786067
:101608007B68B3F85E309AB27B681A8600BF0C37E5
:10161800BD465DF8047B704780B483B000AF786046
:101628007B68B3F85E309AB27B685A8600BF0C3785
:10163800BD465DF8047B704780B483B000AF786026
:101648000B467B807B687A88A3F8422000BF0C3762
:10165800BD465DF8047B704780B483B000AF786006
:101668000B467B807B687A88A3F8402000BF0C3744
:10167800BD465DF8047B704780B483B000AF7860E6
:101688000B46FB7013463B80FB78013B052B27D8A4
:1016980001A252F823F000BFB9160008C1160008CD
:1016A800C9160008D1160008D9160008E116000866
:1016B8007B683A889A8613E07B683A88DA860FE076
:1016C8007B683A881A870BE07B683A885A8707E074
:1016D8007B683A889A8703E07B683A88DA8700BF94
:1016E80000BF0C37BD465DF8047B704780B584B0F9
:1016F80002AF78607B689B79002B14D07B681B68ED
:101708001C331B6878689847034618467B6803F5BE
:10171800E2727B683433062100910146786800F054
:10172800BEF9034600E0002318460837BD4680BDD1
:1017380080B582B000AF78607B681A8E7B685B8E5C
:101748009A421ED97B68B3F85E3099B27B681A8ECC
:101758007B68B3F84030D31A98B27B685A8E7B689E
:10176800B3F8423013449BB20246786800F06CFA32
:1017780003461A467B68A3F8D0217B68B3F8D031BA
:101788001DE07B68B3F85E3099B27B681A8E7B687F
:10179800B3F84030134498B27B685A8E7B68B3F82C
:1017A8004230D31A9BB20246786800F04DFA0346DD
:1017B8001A467B68A3F8D0217B68B3F8D031184665
:1017C8000837BD4680BD80B483B000AF78600B4653
:1017D800FB707B68FA78DA7100BF0C37BD465DF89C
:1017E800047B704780B483B000AF78607B68B3F83F
:1017F80060309AB27B68A3F8442000BF0C37BD461E
:101808005DF8047B704780B483B000AF78607B6874
:10181800B3F860309AB27B68A3F8462000BF0C3753
:10182800BD465DF8047B704780B582B000AF786034
:101838007B68DB79002B2DD07B68B3F844207B686C
:10184800B3F846309A4212D97B68B3F8603099B23F
:101858007B68B3F84430053B9AB27B68B3F84630EE
:1018680005339BB2786800F0EFF9034613E07B6814
:10187800B3F8603099B27B68B3F8443005339AB254
:101888007B68B3F84630053B9BB2786800F0DCF91A
:10189800034600E0002318460837BD4680BD80B4E3
:1018A80083B000AF78600B467B807B687A88A3F8AA
:1018B800502000BF0C37BD465DF8047B704780B4EC
:1018C80083B000AF78600B467B807B687A88A3F88A
:1018D800542000BF0C37BD465DF8047B704780B4C8
:1018E80083B000AF78600B467B807B687A88A3F86A
:1018F800522000BF0C37BD465DF8047B704780B4AA
:1019080083B000AF78607B68B3F862309AB27B68C6
:10191800A3F84A2000BF0C37BD465DF8047B70472A
:1019280080B483B000AF78607B68B3F862309AB255
:101938007B68A3F8482000BF0C37BD465DF8047BE0
:10194800704780B582B000AF78607B68B3F84A20F2
:101958007B68B3F848309A4212D97B68B3F8623092
:1019680099B27B68B3F84A30053B9AB27B68B3F802
:10197800483005339BB2786800F066F9034612E0F8
:101988007B68B3F8623099B27B68B3F84A300533A4
:101998009AB27B68B3F84830053B9BB2786800F090
:1019A80053F9034600BF18460837BD4680BD80B4CA
:1019B80083B000AF78600B467B807B687A88A3F899
:1019C800562000BF0C37BD465DF8047B704780B4D5
:1019D80083B000AF78600B467B807B687A88A3F879
:1019E800582000BF0C37BD465DF8047B704780B4B3
:1019F80083B000AF78607B68B3F864309AB27B68D4
:101A0800A3F84E2000BF0C37BD465DF8047B704735
:101A180080B483B000AF78607B68B3F864309AB262
:101A28007B68A3F84C2000BF0C37BD465DF8047BEB
:101A3800704780B582B000AF78607B68B3F84E20FD
:101A48007B68B3F84C309A4212D97B68B3F864309B
:101A580099B27B68B3F84E30053B9AB27B68B3F80D
:101A68004C3005339BB2786800F0EEF8034612E07C
:101A78007B68B3F8643099B27B68B3F84E300533AD
:101A88009AB27B68B3F84C30053B9BB2786800F09B
:101A9800DBF8034600BF18460837BD4680BD80B452
:101AA80087B000AFF8607A603B600B467B817B684B
:101AB8001B887A899A4202D83B681B8868E097F8A5
:101AC800203003F10043013B5B007A6813441B8814
:101AD8007A899A4209D397F8203003F10043013BF1
:101AE8005B003A6813441B8852E00123FB75FB7DB9
:101AF8005B007A6813441B887A899A4203D9FB7D74
:101B08000133FB75F3E7FB7D5B007A6813441B88A0
:101B18007A899A4205D1FB7D5B003A6813441B8899
:101B280036E07A89FB7D03F10043013B5B0079686D
:101B38000B441B88D21AFB7D5B0039680B441B8859
:101B48001846FB7D03F10043013B5B0039680B44F9
:101B58001B88C31A03FB02F2FB7D5B0079680B4408
:101B68001B881846FB7D03F10043013B5B00796845
:101B78000B441B88C31A92FBF3F39AB2FB7D03F163
:101B88000043013B5B0039680B441B8813449BB23C
:101B980018461C37BD465DF8047B704780B487B093
:101BA80000AFF8607A601A460B467B8113467B7259
:101BB8007B7A072B02D0B7F90A303DE0B7F90A3033
:101BC800FA68B2F9682002FB03F37B611323FB7404
:101BD800FB7C002B22D0FB7C03F10043013B5B0024
:101BE8007A681A44FB7C5B0079680B44B2F90020E0
:101BF8001A80FB7C5B007A681344B3F900301946FD
:101C0800FA7CFB68343233F9123001FB03F37A694A
:101C180013447B61FB7C013BFB74D9E700BF7B6904
:101C2800084A82FB03125211DB17D31A1AB27B68D7
:101C38001A807B68B3F9003018461C37BD465DF83A
:101C4800047B70471F85EB51B0B588B000AFF860D2
:101C5800084611461A4603467B810B463B811346CC
:101C6800FB807B8907EE903AB8EE677A3B8907EEEE
:101C7800903AF8EE677A77EE677A17EE900AFEF7F1
:101C88000BFC39A3D3E90023FEF75EFC02460B46A2
:101C980014461D46FA883B89D31A07EE903AF8EEA7
:101CA800E77A17EE900AFEF7F7FB02460B46204646
:101CB8002946FEF773FD02460B4610461946FEF705
:101CC8003BFF0346BB61D7ED067AF5EEC07AF1EE2D
:101CD80010FA02D50023FB833EE0D7ED067A9FED8C
:101CE800247AF4EEC77AF1EE10FA03DD4FF6FF73AB
:101CF800FB8331E07B8907EE903AB8EE677A3B893F
:101D080007EE903AF8EE677A77EE677A17EE900A60
:101D1800FEF7C2FB14A3D3E90023FEF715FC024625
:101D28000B4614461D46FA883B89D31A07EE903AAB
:101D3800F8EEE77A17EE900AFEF7AEFB02460B467E
:101D480020462946FEF72AFD02460B46104619464C
:101D5800FEF7D2FE0346FB83FB8BFB82FB8A184609
:101D68002037BD46B0BD00BF00000000E0FFEF40D7
:101D780000FF7F4780B483B000AF78607B680022A3
:101D88005A707B6800225A607B6805221A727B6849
:101D98004FF4FA725A817B680022DA607B6800226D
:101DA8001A747B6800225A747B6818460C37BD4643
:101DB8005DF8047B70470000B0B582B000AF786072
:101DC800594A7B681A607B68043317241D46002C27
:101DD80005DB2846FFF7CEFF1435013CF7E77B68A3
:101DE80003F5F2731F241D46002C05DB2846FFF778
:101DF800C1FF1435013CF7E77B684C4A03F26444A1
:101E080015460FCD0FC495E8070003C422707B6800
:101E1800012283F87D247B68002283F87E247B6876
:101E2800012283F87F247B680022C3F880247B6822
:101E38000022C3F884247B683D4A03F5916307CAEE
:101E480003C31A807B683B4A03F2944415460FCDBE
:101E58000FC42B6823607B68374A03F5956392E8C3
:101E6800030083E803007B68344A03F5966413464D
:101E78000FCB84E80F007B68314A03F59864154658
:101E88000FCD0FC42B6823807B682E4A03F2D444FD
:101E980015460FCD0FC40FCD0FC42B6823607B6888
:101EA800294AC3F8F8247B6803F5A06319461CA3E4
:101EB800D3E90023C1E900237B68002283F80825C1
:101EC8007B6803F5A26319464FF000024FF0000348
:101ED800C1E900237B684FF47A72A3F818257B6860
:101EE8000022C3F81C257B68002283F820257B6824
:101EF800FF2283F821257B6803F222532022002148
:101F0800184619F059FA7B680022A3F842257B6825
:101F1800002283F844257B6818460837BD46B0BDC3
:101F2800EBEBABAC0B000000D4BF0108A4BE01086A
:101F3800C0BE0108CCBE0108E0BE0108E8BE010829
:101F4800F8BE01080CBF0108101E002080B483B041
:101F580000AF7860044A7B681A607B6818460C37C3
:101F6800BD465DF8047B7047D4BF010880B582B0D8
:101F780000AF78607868FFF7E9FF4FF4AD617868E3
:101F880016F052FC7B6818460837BD4680BD80B401
:101F980083B000AF78607B68D3F8803418460C377C
:101FA800BD465DF8047B704780B483B000AF7860AD
:101FB8007B68D3F8843418460C37BD465DF8047B3B
:101FC800704780B483B000AF78607B6893F82135A0
:101FD80018460C37BD465DF8047B704780B483B063
:101FE80000AF78600B46FB707B68FA7883F87D2435
:101FF80000BF0C37BD465DF8047B704780B483B0E2
:1020080000AF78607B6893F87D3418460C37BD467E
:102018005DF8047B704780B483B000AF78600B46EE
:10202800FB707B68FA7883F87E2400BF0C37BD46C6
:102038005DF8047B704780B483B000AF78607B683C
:1020480093F87E3418460C37BD465DF8047B70471C
:1020580090B599B016AF7860786800F03BFF786863
:1020680000F032F87B6893F87F34012B23D1144CAD
:102078006846231D5422194619F090F923688022D6
:102088004021104807F00EFE012008F059F80320FF
:1020980007F09DFF202007F0AFFF7B6803F5A063E2
:1020A800D3E90023012007F029FF07F0FFFF07F01D
:1020B800CFFF07F0D5FE00BF0C37BD4690BD00BF6F
:1020C800101E00200004024080B582B000AF786086
:1020D800254B264A1A60244B4FF482725A60224BD1
:1020E80000229A60204B0022DA601F4B00225A61BE
:1020F8001D4B4FF400729A611B4B00225A621A4B17
:1021080000229A62184B0A22DA627B6893F87F34BD
:10211800012B09D1144B00221A61134B1822DA61E2
:10212800114B00221A620DE07B6893F87F34022B72
:1021380008D10D4B02221A610B4B2822DA610A4B97
:1021480080221A6208480DF077FF0346002B14BF5F
:1021580001230023DBB2002B01D009F095FD00BF5D
:102168000837BD4680BD00BF101E0020003001406A
:1021780080B483B000AF78600B46FB707B68D3F8FF
:102188008024FB78013B012101FA03F31A437B68A1
:10219800C3F8802400BF0C37BD465DF8047B704748
:1021A80080B483B000AF78600B46FB707B68D3F8CF
:1021B8008024FB78013B012101FA03F3DB431A4039
:1021C8007B68C3F8802400BF0C37BD465DF8047BEC
:1021D80070470000B0B586B000AFF86008461146F9
:1021E8001A4603467B810B463B811346FB8000233E
:1021F800FB75FB7D082B08D8FB7D1946F868FFF7AF
:10220800CFFFFB7D0133FB75F3E7FB6893F87E3462
:10221800032B00F2CF8001A252F823F0BD2300085F
:10222800352200085B220008192300083A89FB8838
:102238009A4204D90121F868FFF79AFFB5E03A8974
:102248003B8D9A4280F0B1800221F868FFF790FF39
:10225800ABE07A89BB8D9A4211D23A89FB889A42BF
:1022680003D90121F868FFF783FF3A893B8D9A4229
:1022780080F09D800221F868FFF77AFF97E07A895D
:102288003B8E9A428CBF01230023DAB27989BB8E38
:10229800994234BF01230023DBB21340DBB2002B89
:1022A80010D03A89FB889A4203D90521F868FFF7CC
:1022B8005FFF3A893B8D9A4279D20621F868FFF789
:1022C80057FF74E07A89BB8E9A4210D93A89FB8805
:1022D8009A4203D90721F868FFF74AFF3A893B8DEC
:1022E8009A4264D20821F868FFF742FF5FE03A8912
:1022F800FB889A4203D90321F868FFF739FF3A8926
:102308003B8D9A4253D20421F868FFF731FF4EE023
:102318007A89BB8D9A4210D23A89FB889A4203D9AE
:102328000121F868FFF724FF3A893B8D9A4240D291
:102338000221F868FFF71CFF3BE07A893B8E9A423E
:1023480022D93A89FB889A4203D90521F868FFF710
:102358000FFF3A893B8D9A422BD24FF48061A048F7
:102368000CF05CF80346012B0CBF01230023DBB201
:10237800002B04D00721F868FFF7FAFE19E00621C0
:10238800F868FFF7F5FE14E03A89FB889A4203D90A
:102398000321F868FFF7ECFE3A893B8D9A4208D290
:1023A8000421F868FFF7E4FE03E000BF02E000BF85
:1023B80000E000BFFB6893F87D34022B40F0BB803F
:1023C8000023BB75BB7D032B00F20C81BA7DFB6833
:1023D80002F5967253F82200BA7DFB6802F5157271
:1023E80033F81230002219460CF030F800237B75C0
:1023F8007B7D042B00F28B807B7DFA6803F592735A
:102408009B00134458687A7DFB6802F5117233F813
:10241800123019460CF002F80346002B0CBF0123BA
:102428000023DBB2002B37D0B97D787DBA7D7C7D67
:10243800FD6813469B0013442B44234403F2644372
:102448001B78A3F10902FC680B469B000B4423444C
:10245800034403F264431878F96813469B00134455
:102468009B000B44043302461A70BA7D797DF868E4
:1024780013469B00134403440B4403F264431B7844
:10248800A3F10902F96813469B0013449B000B440F
:10249800143301221A7036E0B97D787DBA7D7C7DCF
:1024A800FD6813469B0013442B44234403F2644302
:1024B8001B78A3F10902FC680B469B000B442344DC
:1024C800034403F264431878F96813469B001344E5
:1024D8009B000B44043302461A70BA7D797DF86874
:1024E80013469B00134403440B4403F264431B78D4
:1024F800A3F10902F96813469B0013449B000B449F
:10250800143300221A707B7D01337B7570E7BA7D26
:10251800FB6802F5967253F82200BA7DFB6802F553
:10252800157233F81230012219460BF08FFFBB7D6C
:102538000133BB7546E7FB6893F87D34012B51D115
:1025480000233B753B7D082B4CD83B7DFA6803F58F
:102558009A739B00134458683A7DFB6802F5187219
:1025680033F8123019460BF059FF0346002B0CBF05
:1025780001230023DBB2002B17D03A7D3B7D0933C2
:10258800D8B2F96813469B0013449B000B440433EC
:1025980002461A703A7DF96813469B0013449B0063
:1025A8000B44143301221A7016E03A7D3B7D09333F
:1025B800D8B2F96813469B0013449B000B440433BC
:1025C80002461A703A7DF96813469B0013449B0033
:1025D8000B44143300221A703B7D01333B75B1E77D
:1025E80000040240FB6893F87F34012B02D1F8689D
:1025F80000F025FA0023FB74FB7C172B00F20D82F8
:102608000AF016F8FA7CF96813469B0013449B00FD
:102618000B4408331B68C11AFA7CF86813469B0000
:1026280013449B0003440C331B7899422CBF0123AD
:102638000023DBB2002B00F0EC81FC7C09F0F8FFF2
:102648000146FA6823469B0023449B001344083341
:102658001960FA7CF96813469B0013449B000B44ED
:1026680005331B78022B00F0D580022B00F2D081B5
:10267800002B02D0012B28D0CAE1FA7CF968134656
:102688009B0013449B000B4414331B78012B0DD182
:10269800FA7CF96813469B0013449B000B440433EF
:1026A8001B781946F868FFF763FD0DE0FA7CF968B6
:1026B80013469B0013449B000B4404331B781946B4
:1026C800F868FFF76DFD00BFA3E1FA7CF9681346CF
:1026D8009B0013449B000B4414331B78012B6AD1D5
:1026E800FA7CF96813469B0013449B000B4414338F
:1026F8001978FA7CF86813469B0013449B0003443E
:1027080015331B7899420DD0FA7CF96813469B0063
:1027180013449B000B4404331B781946F868FFF7F1
:1027280027FD0CE0FA7CF96813469B0013449B00D4
:102738000B4404331B781946F868FFF731FD09F09C
:1027480077FFFA7CF96813469B0013449B000B44FF
:1027580010331B68C11AFA7CF86813469B001344AF
:102768009B0003440E331B8899422CBF012300238E
:10277800DBB2002B4CD0FC7C09F05AFF0146FA680A
:1027880023469B0023449B00134410331960F97CB3
:10279800FA7CF8680B469B000B449B0003441433F7
:1027A8001878F96813469B0013449B000B441533B3
:1027B80002461A702CE0FA7CF96813469B00134411
:1027C8009B000B4404331B781946F868FFF7E8FCB4
:1027D800FC7C09F02DFF0146FA6823469B00234440
:1027E8009B00134410331960F97CFA7CF8680B4697
:1027F8009B000B449B00034414331878F968134674
:102808009B0013449B000B44153302461A7000E0EA
:1028180000BFFEE0FA7CF96813469B0013449B0056
:102828000B4414331B78012B77D1FA7CF9681346D3
:102838009B0013449B000B4414331978FA7CF86806
:1028480013469B0013449B00034415331B7899429D
:102858000DD0FA7CF96813469B0013449B000B4487
:1028680004331B781946F868FFF782FC18E0FC7CF3
:1028780009F0DEFE0146FA6823469B0023449B00CC
:10288800134410331960FA7CF96813469B0013440B
:102898009B000B4404331B781946F868FFF780FC4B
:1028A80009F0C6FEFA7CF96813469B0013449B00A6
:1028B8000B4410331B68C11AFA7CF86813469B0056
:1028C80013449B0003440E331B8899422CBF0123F9
:1028D8000023DBB2002B00F09780FC7C09F0A8FEF7
:1028E8000146FA6823469B0023449B001344103397
:1028F8001960F97CFA7CF8680B469B000B449B0036
:10290800034414331878F96813469B0013449B005A
:102918000B44153302461A7076E0FA7CF9681346C0
:102928009B0013449B000B4414331978FA7CF86815
:1029380013469B0013449B00034415331B789942AC
:102948000DD0FA7CF96813469B0013449B000B4496
:1029580004331B781946F868FFF70AFC18E0FC7C7A
:1029680009F066FE0146FA6823469B0023449B0053
:10297800134410331960FA7CF96813469B0013441A
:102988009B000B4404331B781946F868FFF708FCD2
:1029980009F04EFEFA7CF96813469B0013449B002D
:1029A8000B4410331B68C11AFA7CF86813469B0065
:1029B80013449B0003440E331B8899422CBF012308
:1029C8000023DBB2002B21D0FC7C09F031FE01464C
:1029D800FA6823469B0023449B0013441033196074
:1029E800F97CFA7CF8680B469B000B449B00034477
:1029F80014331878F96813469B0013449B000B4462
:102A0800153302461A7001E000BF02E000BF00E083
:102A180000BFFB7C0133FB74EEE500BF1837BD46F1
:102A2800B0BD00BF80B483B000AF78607B6893F816
:102A3800083518460C37BD465DF8047B70472DE90C
:102A4800B04F86B000AF78617B6993F8083583F0A2
:102A58000103DBB2002B34D007F028FA0346002B21
:102A680000F07C817B6903F222532021184607F08D
:102A780025FA7B6993F82235452B40F06F817B69F5
:102A880093F823354D2B40F069817B6993F8243501
:102A9800432B40F063817B69012283F844257B69DD
:102AA800012283F8082509F0C3FD03460022BB6014
:102AB800FA607B6903F5A263D7E90212C3E9001241
:102AC8004CE107F0F3F90346002B00F024817B6901
:102AD80003F222532021184607F0F0F97B6993F896
:102AE80029257B6983F821257B6993F828351A06FF
:102AF8007B6993F827351B041A437B6993F82635BD
:102B08001B0213437A6992F8252513431A467B69F9
:102B1800C3F884247B6993F82B359BB21B029AB2C5
:102B28007B6993F82A359BB213449AB27B69A3F860
:102B380042257B6993F84435002B00F0DE8009F0CC
:102B480077FD02467B69D3F81C35D31A0A2B8CBF54
:102B580001230023DBB2002B00F0CF8009F068FDD1
:102B680002467B69C3F81C257B6993F820257B699D
:102B780083F846257B6993F820352133DAB27B69DF
:102B880083F847257B6993F8203519467A690B46FF
:102B98009B000B449B00134403F5F6731A787B697A
:102BA80083F848257B6993F8203519467A690B46DE
:102BB8009B000B449B00134403F2E5131A787B69CE
:102BC80083F849257B6993F8203519467A690B46BD
:102BD8009B000B449B00134403F5F7731B88DAB280
:102BE8007B6983F84A257B6993F8203519467A6909
:102BF8000B469B000B449B00134403F5F7731B889B
:102C08001B0A9BB2DAB27B6983F84B257B6903F216
:102C1800455320221946012007F08DFB7B6993F864
:102C280020350133DAB27B6983F820257B6993F874
:102C380020351F2B61D17B6993F820257B6983F8A8
:102C480046257B6993F820352133DAB27B6983F80E
:102C580047257B6993F8203519467A690B469B000E
:102C68000B449B00134403F5F6731A787B6983F8C9
:102C780048257B6993F8203519467A690B469B00ED
:102C88000B449B00134403F2E5131A787B6983F81D
:102C980049257B6993F8203519467A690B469B00CC
:102CA8000B449B00134403F5F7731B88DAB27B6966
:102CB80083F84A257B6993F8203519467A690B46CB
:102CC8009B000B449B00134403F5F7731B881B0AF6
:102CD8009BB2DAB27B6983F84B257B6903F24553D3
:102CE80020221946012007F026FB7B69002283F881
:102CF80020257B69002283F8442509F099FC0346C6
:102D080000223B607A607B6903F5A263D7E9001271
:102D1800C3E9001222E009F08BFC034600229A4620
:102D280093467B6903F5A263D3E90023BAEB020457
:102D38006BEB03057B69B3F818359BB20022984604
:102D48009146A04579EB050334BF01230023DBB28C
:102D5800002B03D07B69002283F808257B6993F850
:102D68000835002B07D17B69FF2283F821257B6971
:102D78000022C3F8842400BF1837BD46BDE8B08FD1
:102D880080B483B000AF78607B68B3F842351846EA
:102D98000C37BD465DF8047B704780B485B000AF42
:102DA800786039603B68DB78FB73FA7B3B6818799D
:102DB800796813469B0013449B000B440433024676
:102DC8001A70FA7B3B685879796813469B0013445C
:102DD8009B000B440C3302461A703B680633FA7B9F
:102DE8001878796813469B0013449B000B440533FD
:102DF80002461A703B6807331B789BB21B0299B2D4
:102E08003B6808331B789BB2FA7B0B4498B279680D
:102E180013469B0013449B000B440E3302461A8052
:102E280000BF1437BD465DF8047B704780B485B099
:102E380000AF786039603B68DB78FB73FA7B3B68EE
:102E48001879796813469B0013449B000B4403F5DB
:102E5800F27302461A70FA7B3B6858797968134610
:102E68009B0013449B000B4403F5F67302461A704B
:102E78003B680633FA7B1878796813469B0013443D
:102E88009B000B4403F2E51302461A703B680733B4
:102E98001B789BB21B0299B23B6808331B789BB224
:102EA800FA7B0B4498B2796813469B0013449B0045
:102EB8000B4403F5F77302461A80FB7B1F2B03D1E3
:102EC8007B68012283F8442500BF1437BD465DF8AE
:102ED800047B704780B588B000AF78604FF480718C
:102EE8002F480BF0B7F94FF400712D480BF0B2F9E9
:102EF8004FF480412B480BF0ADF94FF400412948BD
:102F08000BF0A8F907F10C0300221A605A609A60C6
:102F1800DA601A617B6893F87D34012B02D0022BAA
:102F28001BD039E04FF44073FB6000233B61012361
:102F38007B6107F10C03194619480BF007F84FF4A9
:102F48004043FB6000233B6101237B6107F10C03D5
:102F5800194614480AF0FAFF1EE04FF44073FB606C
:102F680001233B6102237B610223BB6107F10C0350
:102F780019460B480AF0EAFF4FF44043FB6001236F
:102F88003B6102237B610223BB6107F10C031946F5
:102F980004480AF0DBFF00BF00BF2037BD4680BDF4
:102FA800000402400008024080B483B000AF78609B
:102FB8007B68002BB8BF5B4218460C37BD465DF8EE
:102FC800047B704780B483B000AF78607B680022D0
:102FD8001A607B6800225A607B6800229A607B68CE
:102FE8000022DA607B6818460C37BD465DF8047B22
:102FF800704780B582B000AF78607B681846FFF7ED
:10300800E1FF7B6810331846FFF7DCFF7B68184642
:103018000837BD4680BD80B483B000AF78607B6858
:1030280003221A707B6800225A7000229A700022CC
:10303800DA7000221A717B6800225A7100229A7194
:103048000022DA7100221A727B6800225A7200226A
:103058009A727B680022DA7200221A737B68002257
:103068005A7300229A737B680022DA7300221A745A
:103078007B6800225A7400229A747B680022DA74F2
:1030880000221A757B6800225A757B6818460C372F
:10309800BD465DF8047B704780B582B000AF7860AC
:1030A800AD4A7B681A607B680433184603F0EEFC6F
:1030B8007B6824331846FDF711FF7B6803F5FC7322
:1030C800184607F085F97B6803F50C73184603F07A
:1030D80099FE7B6803F63453184608F048F87B6875
:1030E80003F65853184608F042F87B684FF46172AB
:1030F800A3F87C2D7B68B3F87C2D7B68A3F87E2D24
:103108007B68002283F8882E7B6803F580531A4673
:103118000023D3647B6803F5825310331846FFF706
:1031280068FF7B6803F580531A46002313677B68A2
:1031380003F580531A46002353677B6803F58053D1
:10314800CD2283F878207B6803F58053CC2283F85E
:1031580079207B6803F580534FF4FA62A3F87A204C
:103168007B6803F580531A464FF00003D3677B68EA
:1031780003F58053002283F880207B6803F5805391
:10318800802283F881207B6803F580537F2283F8AF
:1031980082207B6803F580530022A3F884207B6893
:1031A80003F580531A464FF00003C2F888307B6855
:1031B80003F58053002283F88C207B6803F5805345
:1031C8001A46664BC2F890307B6803F580531A465E
:1031D800634BC2F894307B6803F580531A46614B01
:1031E800C2F898307B6803F580531A4642F2107390
:1031F800C2F89C307B6803F580537F2283F8A020B7
:103208007B6803F5855304337A6802F5805292EDA2
:10321800247A7A6802F58052D2ED267AC7EE276AB8
:103228007A6802F58052D2ED257A9FED4F1AF0EEBA
:10323800670AB0EE660A0021184605F067FC7B684D
:1032480003F58053002283F8D0207B6803F5805370
:10325800012283F8D1207B6803F58653183318467A
:10326800FEF7AAFD7B6803F58053012283F8402608
:103278007B6803F58053002283F841267B6803F5B9
:10328800B25302331846FFF7C6FE7B6803F5805336
:10329800002283F858267B6803F580531A460023DA
:1032A800C2F85C367B6803F58053002283F86026F9
:1032B8007B6803F58053002283F861267B6803F559
:1032C8008053002283F862267B6803F5805301222D
:1032D80083F86D267B6803F58053012283F86E26F8
:1032E8007B6803F58053002283F86F267B6803F51B
:1032F8008053002283F870267B6803F580530022F0
:1033080083F871267B6803F580531A460023C2F8B8
:1033180074367B6803F58053012283F87C267B682A
:1033280003F58053002283F87D267B6803F58053DC
:10333800082283F87E267B6803F58053002283F8F1
:103348007F267B6803F58053002283F880267B68FC
:1033580018460837BD4680BDF0BF01080000C841C7
:10336800CDCC4C3E0000FA430000000080B582B08E
:1033780000AF7860154A7B681A607B6803F586534E
:1033880018331846FEF7E2FD7B6803F585530433CE
:10339800184605F0D7FB7B6803F50C73184603F055
:1033A800CDFD7B6803F5FC73184607F05FF87B6872
:1033B80024331846FDF7E8FD7B680433184603F00C
:1033C8008BFB7B6818460837BD4680BDF0BF0108F7
:1033D80080B582B000AF78607868FFF7C7FF41F228
:1033E8008861786815F020FA7B6818460837BD466A
:1033F80080BD000080B588B002AF78605D490520C7
:1034080007F07AFD7B6803F604617B6803F66C734A
:1034180001220192382200924222002007F01CFE6D
:103428007B680433184603F077FB7B68043318463F
:1034380003F082FB7B6824331846FDF7C6FD7B68E2
:1034480003F5FC73184607F045F87B6803F58653C7
:1034580018331846FEF7FCFD474B80221A707B682C
:10346800B3F8063EDAB27B6803F5805383F87F260B
:103478007B6803F5805393F87F36012B40F0308347
:103488007B681A1D7B68B3F8083E1946104603F09E
:103498007FFB7B681A1D7B68B3F80A3EDBB2002B02
:1034A80014BF01230023DBB21946104603F08AFB40
:1034B8007B680433184603F079FB0346002B11D0D0
:1034C8007B681A1D7B68B3F80C3E1946104603F05A
:1034D80094FB7B681A1D7B68B3F80E3E19461046AC
:1034E80003F0A6FB0023BB827B68B3F8103EBB82C7
:1034F8007B6803F5FC73BA8AD2B21146184607F006
:103508002AF87B6803F5FC72BB8A1B0A9BB2DBB204
:103518001946104607F01EFA00237B827B68B3F831
:10352800123E7B827B6803F5FC737A8AD2B211461D
:10353800184607F01DFB7B6803F5FC73184607F077
:1035480027FB0346022B0CBF01230023DBB2002B11
:1035580014D07B6803F5FC727B8A1B0A9BB2DBB232
:1035680007EE903AF8EE677AB0EE670A104607F071
:103578001CFB03E0008003083C06002000233B827C
:103588007B68B3F8143E3B827B6803F5FC733A8A88
:10359800D2B21146184607F0A3F97B6803F5FC720E
:1035A8003B8A1B0A9BB2DBB21946104607F0B5F9F5
:1035B8007B681B6808331B687A68B2F8162E1146B8
:1035C800786898477B6803F50C727B68B3F8183EF7
:1035D8001946104604F089FA0023FB817B68B3F88A
:1035E8001A3EFB81FB89DBB21946786800F028FC9B
:1035F800FB891B0A9BB2DAB27B6803F5805383F818
:1036080081200023BB817B68B3F81C3EBB81BB894A
:10361800DBB21946786800F02DFBBB891B0A9BB208
:10362800DBB21946786800F06BFB7B68B3F81E2E96
:103638007B68A3F87E2D7B68B3F8203EDAB27B68FE
:1036480083F8882E7B6893F8883E03F00103002BEB
:1036580014BF01230023DAB27B6803F5805383F893
:1036680080207B6803F124027B6893F8883E5B081E
:10367800DBB203F00103002B14BF01230023DBB2EC
:1036880019461046FDF7C8FD7B6803F124027B68E4
:1036980093F8883E9B08DBB203F00103002B14BFAC
:1036A80001230023DBB219461046FDF7A6FE7B680E
:1036B80003F124027B6893F8883EDB08DBB203F051
:1036C8000103002B14BF01230023DBB21946104667
:1036D800FDF783FF7B6803F124027B6893F8883E3B
:1036E8001B09DBB203F00103002B14BF01230023E5
:1036F800DBB219461046FEF766F87B68B3F8222E4F
:103708007B689A857B68B3F8242E7B68DA857B68AA
:10371800B3F8262E7B689A877B68B3F8282E7B68D7
:10372800DA877B68B3F82A2E7B681A867B68B3F839
:103738002C2E7B685A867B68B3F82E2E7B689A8677
:103748007B68B3F8302E7B68DA867B68B3F8322E54
:103758007B681A877B68B3F8342E7B685A877B6846
:10376800B3F8362E7B68A3F840207B68B3F8382E70
:103778007B68A3F842207B68B3F83A2E7B68A3F8ED
:1037880050207B68B3F83C2E7B68A3F852207B68F6
:10379800B3F83E2E7B68A3F844207B68B3F8402E2C
:1037A8007B68A3F846207B68B3F8422E7B68A3F8B1
:1037B80048207B68B3F8442E7B68A3F84A207B68CE
:1037C800B3F8462E7B68A3F84C207B68B3F8482EE4
:1037D8007B68A3F84E207B68B3F84A2E7B68A3F871
:1037E80054207B68B3F84C2E7B68A3F856207B687E
:1037F800B3F84E2E7B68A3F864207B68B3F8502E8C
:103808007B68A3F866207B68B3F8522E7B68A3F820
:1038180058207B68B3F8542E7B68A3F85A207B683D
:10382800B3F8562E7B68A3F85C207B68B3F8582E53
:103838007B68A3F85E207B68B3F85A2E7B68A3F8F0
:1038480060207B68B3F85C2E7B68A3F862207B68F5
:10385800B3F85E2E7B68A3F868207B68B3F8602E07
:103868007B68A3F86A2000237B817B68B3F8623EFB
:103878007B817B6803F5865318337A89D2B2114667
:103888001846FEF7C8FB7B6803F5865318337A8918
:10389800120A92B2D2B211461846FEF79FFB7B6815
:1038A80003F5865318331846FFF714FB7B68B3F803
:1038B800642E7B68A3F872207B68B3F8662E7B6859
:1038C800A3F870207B68B3F8682E7B68A3F87A2089
:1038D8007B68B3F86A2E7B68A3F87C207B68B3F812
:1038E8006C2E7B68A3F86E207B68B3F86E2E7B681D
:1038F800A3F86C207B68B3F8702E7B68A3F874205B
:103908007B68B3F8722E7B68A3F878207B68B3F8DD
:10391800742E7B68A3F876207B6803F50C727B68AD
:10392800B3F8763EDBB21946104604F0FBF87B6824
:1039380003F50C727B68B3F8783EDBB21946104683
:1039480004F02AF97B6803F50C727B68B3F87A3EB9
:10395800DBB21946104604F002F97B6803F50C72D5
:103968007B68B3F87C3EDBB21946104604F031F9A7
:103978007B6803F50C727B68B3F8803EDBB21946AE
:10398800104604F095F87B6803F50C727B68B3F871
:10399800823EDBB21946104604F038F97B6803F51D
:1039A8000C707B68B3F8843E19467B68B3F8863E92
:1039B800DBB21A4603F0AAFE0023FB75FB7D172B2A
:1039C80041D8FB7D7A6803F2DA339B0013445B68C5
:1039D8001B0EFA7DD8B2796813469B0013449B00EE
:1039E8000B4403F586531D3302461A70FB7D7A6833
:1039F80003F2DA339B0013445B681B0CFA7DD8B2E0
:103A0800796813469B0013449B000B4403F58753C6
:103A1800043302461A70FB7D7A6803F2DA339B009E
:103A280013445B68FA7D98B2796813469B00134487
:103A38009B000B4403F58753063302461A80FB7D2F
:103A48000133FB75BAE71823BB75BB7D372B47D805
:103A5800BB7D7A6803F2DA339B0013445B68190E66
:103A6800BB7DA3F11802C8B2796813469B001344C2
:103A78009B000B4403F595531D3302461A70BB7D1A
:103A88007A6803F2DA339B0013445B68190CBB7D38
:103A9800A3F11802C8B2796813469B0013449B002F
:103AA8000B4403F59653043302461A70BB7D7A68BB
:103AB80003F2DA339B0013445968BB7DA3F1180263
:103AC80088B2796813469B0013449B000B4403F5A6
:103AD8009653063302461A80BB7D0133BB75B4E7A3
:103AE8007B6803F65853054A4FF40051184607F00F
:103AF80050FB00BF1837BD4680BD00BF000802401C
:103B080080B582B000AF78607B6803F5805393F886
:103B18006D36002B02D0786800F047F87B6803F513
:103B28008053012283F8702600BF0837BD4680BD48
:103B380080B582B000AF78607B6803F5805393F856
:103B48006D36002B2DD17B6803F58053012283F855
:103B58006D267B6803F50C73184603F06FFC7B68D1
:103B680003F50C73184603F0C2FC7B6803F5FC737D
:103B7800184606F024FD0346002B14BF012300233A
:103B8800DBB2002B0ED07B6803F5FC7300211846CE
:103B980006F054FD7B6803F5FC73184606F0CCFC70
:103BA80000E000BF0837BD4680BD80B582B000AFD9
:103BB80078607B6803F58053002283F86D267B6864
:103BC80003F5FC73184606F0FAFC0346002B14BFF5
:103BD80001230023DBB2002B05D07B6803F5FC73BF
:103BE800184606F09CFC00BF0837BD4680BD0000A3
:103BF80080B582B000AF78607B6803F580539B6D19
:103C080047F6FF720449184602F0C0FE03461846FC
:103C18000837BD4680BD00BF0180FFFF80B582B078
:103C280000AF78607B6803F580539B6D5B4207EEBD
:103C3800903AB8EEE77A7B6803F58053D3ED227AA1
:103C480067EE277AFDEEE77A7B6803F58053B3F9D0
:103C5800843059427B6803F58053B3F984301A469F
:103C680017EE900A02F0ABFE034618460837BD4629
:103C780080BD000080B582B000AF78600B46FB7055
:103C88007B6803F580531A46FB7882F88230FB780C
:103C9800002B06D17B6803F58053002283F88C2023
:103CA80005E07B6803F58053012283F88C20FB78BC
:103CB800322202FB03F342F210720021184602F08E
:103CC8007EFE03461AB27B6803F58053A3F884206E
:103CD800FB7807EE903AF8EE677A9FED087A67EE80
:103CE800877AB6EE007A77EE877A7B6803F5805399
:103CF800C3ED227A00BF0837BD4680BD0AD7233CF2
:103D080080B582B000AF78600B46FB707B6803F526
:103D1800805393F8A030002B06D17B6803F58553B8
:103D28000433184604F0D4FF7B6803F580531A4621
:103D3800FB7882F8A03000BF0837BD4680BD000080
:103D480080B584B000AF78600B46FB707B6803F5E4
:103D580080531A4600235367FB7883F00103DBB2D4
:103D6800002B0CD07868FFF759FF02467B6803F5F3
:103D780080535B6F13447A6802F5805253677B68FF
:103D880003F5805393F8A030002B53D07B6803F5DC
:103D9800855304337A6802F58052526D07EE902AF3
:103DA800F8EEE77AB0EE670A184604F003FFB0EEC3
:103DB800407A7B6803F5805393F8A03007EE903A79
:103DC800F8EE677A67EE277A17EE900AFCF764FB3D
:103DD8004FF00002194BFCF7B7FB02460B461046A2
:103DE8001946FCF7A9FE0346FB607B6803F5805380
:103DF800D3F89C305A427B6803F58053D3F89C3043
:103E08001946104697ED030A02F0F2FDB0EE407A2B
:103E18007B6803F580535B6F07EE903AF8EEE77A1C
:103E280077EEC77AFDEEE77A17EE902A7B6803F5FE
:103E380080535A6700BF1037BD4680BD0000F83F69
:103E480080B582B000AF78600B46FB707B6803F5E5
:103E580080531A46FB7882F87830786800F062F868
:103E680000BF0837BD4680BD80B483B000AF78601E
:103E780039607B6803F580531A463B6893657B6815
:103E880003F580539A6D7B6803F580539B6ED31AB4
:103E98007A6802F5805253657B6803F580535A6D42
:103EA8007B6803F580535B6ED31A7A6802F58052FB
:103EB80013657B6803F580539B6D7A6802F5805221
:103EC80093667B6803F580535B6D7A6802F58052D0
:103ED80053667B6803F58053DB6D7A6802F5805280
:103EE800D3667B6803F580531A460023D36500BF69
:103EF8000C37BD465DF8047B704780B582B000AFD3
:103F080078600B467B807B6803F580531A467B8874
:103F1800A2F87A30786800F005F800BF0837BD4687
:103F280080BD000080B485B000AF78607B6803F581
:103F3800805393F8783007EE903AB8EE677ADFED61
:103F4800116AC7EE267AC7ED037A7B6803F58053BA
:103F5800B3F87A3007EE903AF8EE677ADFED0A6A3E
:103F680087EEA67AD7ED037A67EE277A7B6803F5A2
:103F78008053C3ED1F7A00BF1437BD465DF8047B3C
:103F8800704700BF00007F4300FEFF4680B584B045
:103F980000AF78607B6803F580539B6D47F6FF722E
:103FA8002849184602F058FD0346FB7397F90F306D
:103FB800002B06D07B6803F5805393F8D030002B94
:103FC80001D1002339E07B6803F580539B6D1846C7
:103FD800FEF7EAFF0346A3F5FF437F3B47F6FF7270
:103FE8001849184602F0EBFCB860BB6807EE903A37
:103FF800B8EEE77A7B6803F5805393F8813007EED3
:10400800903AF8EE677ADFED106A67EEA67A67EE07
:10401800277AFDEEE77A17EE903ABB6097F90F30F2
:104028005A42BB6802FB03F3BB6047F6FF720549BF
:10403800B86802F0C4FC03461BB218461037BD46E8
:1040480080BD00BF0180FFFF9A99193E80B483B0FC
:1040580000AF786039607B6803F580531A463B6887
:10406800136700BF0C37BD465DF8047B704790B5F9
:1040780085B000AF786039607B6803F580531B6FAB
:104088001846FEF791FF034647F6FE729342CCBFEF
:1040980001230023DBB2002B05D07B6803F65853BD
:1040A800184607F0DFF87B6803F580531B6F07EEAF
:1040B800903AB8EEE77A7B6803F58053D3ED1F7A20
:1040C80067EE277AFDEEE77A17EE902A7B6803F50C
:1040D80080531A677B6803F580531C6F7868FFF775
:1040E80055FF03462344FB60FB6807EE903AB8EEA1
:1040F800E77A7B6803F580535B6F07EE903AF8EE3A
:10410800E76A7B6803F58053D3ED1F7A66EEA77ADA
:1041180077EE277AFDEEE77A17EE903AFB607B6838
:1041280003F5805393F88030002B02D0FB685B4284
:1041380000E0FB68FB607B6803F580531A46FB6868
:10414800D3657B6803F58053B3F87A3059427B68AE
:1041580003F58053B3F87A301A46F86802F02FFC5A
:10416800F8607B6803F58053DB6EFA689A4214BFE7
:1041780001230023FB72F868FEF716FF02467B68EE
:1041880003F58053B3F87A309A420CBF0123002319
:10419800DBB2002B05D07B6803F65853184607F0AE
:1041A80061F83B68FA681A60FB7A18461437BD460E
:1041B80090BD80B584B000AF786007F10803194658
:1041C8007868FFF754FF0346FB73FB7B002B0AD08C
:1041D8007B6803F5FC73184606F0F1F90346002BDB
:1041E80001D0012300E00023002B08D07B6803F5F1
:1041F800FC73BA6812B21146184606F01FFA00BFDF
:104208001037BD4680BD00002DE9F04788B004AFE7
:10421800786008F00DFA02467B6803F58053D3F8FE
:1042280074369A420BD07B6803F5805393F86D3649
:1042380083F00103DBB2002B01D0012300E000234F
:10424800002B0DD008F0F4F902467B6803F5805383
:10425800C3F874267B6803F58053012283F870261F
:104268007B6803F5805393F87036002B07D17B6881
:1042780003F5805393F87136002B00F06481786859
:1042880000F0B8F97B6803F58053002283F87126A3
:104298007B6803F5805393F87036002B00F050814B
:1042A8007B6803F58053002283F870267B6803F54A
:1042B800805393F8D030022B00F0B280022B00F22A
:1042C800DE80002B03D0012B00F0B480D7E07B68A0
:1042D8000433184602F06AFC0346002B00F087807E
:1042E8007B68B3F87E3D1946786800F0EFF902461E
:1042F8007B6803F58053C3F85C267B6803F580531D
:1043080093F8D130022B3BD0022B00F2B780002B60
:104318001CD0012B40F0B2807B680433184602F0B1
:1043280060FC034619467868FFF790FE7B6803F542
:104338008053D3F85C3647F6FE7293426ADD7B6899
:1043480003F58053002283F8D12063E07B680433AF
:10435800184602F046FC03465B4219467868FFF7A8
:1043680075FE7B6803F58053D3F85C369E4A93420A
:1043780052DA7B6803F58053022283F8D1204BE0A0
:1043880042F21072002141F66A0002F018FB03465F
:10439800FB81964BBB607868FFF72AFC03465B42BB
:1043A80007EE903AB8EEE77AD7ED027A67EE277A09
:1043B800FDEEE77AB7F90E305B42B7F90E201946E1
:1043C80017EE900A02F0FBFA034619467868FFF7E1
:1043D8003DFE7B6803F58053D3F85C36002B1DD176
:1043E8007B6803F58053022283F8D02016E07B68AF
:1043F80004330021184602F062FC7B680433002174
:10440800184602F015FC7B6803F58053022283F8F6
:10441800D02033E000BF31E000BF2FE000BF2DE027
:10442800734B8B229A717B6803F58053012283F8C2
:10443800D02024E07B6803F50C73184603F00CF8D1
:10444800034619467868FFF77BFC7B6803F50C7018
:104458007B6803F58053996D7B6803F580535A6D2B
:104468007B6803F580531B6D0124009403F0FCFB6B
:10447800034619467868FFF7E9FD00E000BF7B684E
:1044880003F5805393F841360133DAB27B6803F5BC
:10449800805383F841267B6803F5805393F84126BF
:1044A8007B6803F5805393F840369A422CBF01236A
:1044B8000023DBB2002B43D07B6803F58053002236
:1044C80083F84126786800F0C1F97B6803F58053CA
:1044D80093F86136DBB2002B06D07B681B68143377
:1044E8001B68786898472BE07B6803F5805393F83E
:1044F8006236DBB2002B06D07B681B681C331B6856
:10450800786898471CE07B6803F5805393F8603619
:10451800DBB2002B06D07B681B680C331B687868FD
:1045280098470DE07B6803F5805393F88036DBB23B
:10453800002B05D07B681B6820331B687868984778
:104548007868FFF736FE7B6803F5865418347B6875
:1045580024331846FDF7F5F9034698467B6824335B
:104568001846FDF766FA034699467B6824331846D1
:10457800FCF7E3FD03469A467B6824331846FCF7AC
:10458800E9FD03461D467B6824331846FCF709FEFF
:1045980003461E467B6824331846FCF7F5FD0346A0
:1045A8003B607B6824331846FCF7E1FD0346039320
:1045B8003B6802930196009553464A464146204679
:1045C800FDF708FE7B6803F63453184606F0F5FD40
:1045D8007B6803F65853184606F0EFFD00BF103706
:1045E800BD46BDE8F08700BF0280FFFF0000E03F46
:1045F8003C06002080B584B000AF78607B68B3F8D3
:104608007E2D7B68B3F87C3D9A4211D07B68B3F865
:104618007E3D1946786800F059F803461846FEF7BB
:10462800C3FC034647F6FE72934201DC012300E017
:104638000023002B05D07B68B3F87E2D7B68A3F898
:104648007C2D7B68B3F87C3D1946786800F03EF80D
:10465800F860F868FEF7A8FC03464FF6FF7293422D
:10466800CCBF01230023DBB2002B0CD07B6803F501
:10467800FC73184605F060FF7B6803F63453184650
:1046880006F010FE1AE07B6803F5FC73184605F087
:1046980096FF0346002B08D0F868FEF785FC034612
:1046A800B3F5004F01DA012300E00023002B05D009
:1046B8007B6803F5FC73184605F031FFF9687868E4
:1046C800FFF7D2FB00BF1037BD4680BD90B52DED7A
:1046D800028B85B000AF78600B467B807B88002B0F
:1046E80002D147F6FF7349E07B680433184602F0AD
:1046F800AEFA04467B680433184602F08DFA034686
:10470800E31A07EE903AB8EEE78A7B680433184656
:1047180002F032FA07EE900AF8EE677A88EE277A06
:1047280017EE100AFBF7B8FE4FF00002164BFBF726
:104738000BFF02460B4610461946FCF7FDF90346E7
:10474800BB607B8807EE903AF8EE677ADFED0F6A78
:1047580086EEA77AD7ED027A67EE277AFDEEE77A3A
:1047680017EE903AFB607B6803F5805393F880302E
:10477800002B02D0FB685B42FB60FB6818461437CD
:10478800BD46BDEC028B90BD0080764000FF7F47A0
:1047980080B582B000AF78600B467B807B88042BA5
:1047A8004ED17B680433184602F000FA0346012B09
:1047B80009D17B680433184602F08FFA0346002BB0
:1047C80001D1012300E00023002B39D07B6803F5D9
:1047D800FC73184605F0F3FE0346072B0CBF0123B4
:1047E8000023DBB2002B1FD00421174809F016FE66
:1047F8000346012B0CBF01230023DBB2002B0CD096
:104808007B6804330121184602F073FA7B6804338D
:104818000021184602F031FA12E07B6804330021C7
:10482800184602F066FA0BE07B680433012118464B
:1048380002F05FFA7B6804330021184602F01DFA83
:1048480000BF0837BD4680BD0000024080B584B077
:1048580000AF78607B6803F5865318331846FDF778
:1048680096FB02467B6803F58053C3F843267B68B2
:1048780003F5865318331846FDF796FB02467B6806
:1048880003F58053C3F847267868FFF7B1F9034664
:1048980047F6FF723649184602F078F8F860FB6868
:1048A80003F5FF437F334FF6FF720021184602F0ED
:1048B8006DF803469AB27B6803F58053A3F84B263C
:1048C8007B6803F580534FF0FF3283F84D260022B2
:1048D80042F07F0283F84E267B6824331846FCF7A3
:1048E80013FE03461A467B6803F58053A3F84F2648
:1048F8007B6824331846FCF7F9FE03461A467B68A2
:1049080003F58053A3F851267B6824331846FCF737
:104918008BFF03461A467B6803F58053A3F853269A
:104928007B6824331846FCF7FFFC03461A467B686D
:1049380003F58053A3F855267B6803F5865318338F
:104948001846FDF73EFB03465AB27B6803F58053D1
:1049580083F857267B6803F5B253023316221946AB
:10496800044811F0E3FB00BF1037BD4680BD00BF0F
:104978000180FFFF2C21002080B582B000AF786055
:1049880039603B68002B10D03B681B78802B03D123
:104998003B681B78812B0AD07B6803F50C73396858
:1049A800184602F073FB034601E00023FFE71846B0
:1049B8000837BD4680BD000080B584B000AF786080
:1049C8000A4BFB60FB68D3F8BC32BB607B6803F51D
:1049D8000C70B9687B6803F5B35303331A4602F0C9
:1049E800F3FA00BF1037BD4680BD00BF2C21002060
:1049F80080B483B000AF78607B6803F5B3530833A5
:104A080018460C37BD465DF8047B704780B483B008
:104A180000AF78607B6803F5B353033318460C374F
:104A2800BD465DF8047B704780B483B000AF786002
:104A38000B46FB707B6803F580531A46FB7882F8B7
:104A480068367B6803F58053002262F05F0283F8C2
:104A58006926002242F00A0283F86A267B6803F579
:104A68008053282283F86B267B6803F58053032242
:104A780083F86C2600BF0C37BD465DF8047B704791
:104A880090B589B002AFF860B960BB681B78802B1D
:104A980041F0C085BB685B78013B7C2B01F29985AE
:104AA80001A252F823F000BFA54C0008D94C000819
:104AB800A95E0008CF5E00080D5F00082D5F0008A2
:104AC8007D5F0008A94F0008E14F00084F5000081B
:104AD800715000081B4D0008394D0008694D000849
:104AE800994D0008C94D0008DB650008E34E000831
:104AF800134F0008434F0008734F000893500008F5
:104B0800B5500008D7500008E5500008EF500008DD
:104B180013510008375100085D51000883510008FF
:104B2800A9510008CF510008F55100081B52000890
:104B38003D5200085F5200086D5200087B52000881
:104B48009F520008C3520008E95200080F5300089A
:104B5800355300085B53000881530008DB650008E3
:104B6800A7530008C9530008EB530008F95300087D
:104B780003540008275400084B54000871540008D7
:104B880097540008BD540008E3540008095500086C
:104B98006555000887550008A9550008B75500084D
:104BA800C5550008E7550008095600082B560008A7
:104BB8004D5600085B560008695600088D560008D7
:104BC800B1560008BF560008CD560008F156000837
:104BD8001557000839570008615700087F57000823
:104BE80097570008BD570008DB650008DB6500081B
:104BF800DB650008DB650008DB650008DB6500088D
:104C0800DB650008E1570008DB650008DB65000884
:104C1800F3570008035800083958000813580008CB
:104C28004F580008655800087B5800088D58000840
:104C3800A3580008B9580008DB650008DB650008C0
:104C4800CF5800083D5E00082F5500084D55000854
:104C5800DB650008DB650008855E0008DB65000889
:104C6800DB650008A55F0008B75F0008F94D00087C
:104C7800294E0008594E0008894E0008C34E000806
:104C8800CB5F000803600008DB6500083B60000894
:104C9800DB6500089F640008B1640008BF4B01226F
:104CA8005A70FB6803F5805393F87C26BB4B9A70C7
:104CB800FB6803F5805393F87D26B84BDA70FB68E0
:104CC80003F5805393F87E26B44B1A7101F0A2BC09
:104CD800FB680433184601F04FFF0146BB689B7818
:104CE8001B02BA68D2781344994214BF01230023E7
:104CF800DBB2002B01F06F84FB68181DBB689B7842
:104D08001B02BA68D2781344194601F041FF01F03A
:104D180062BCFB6803F5FC730021184605F01BFC18
:104D2800FB6803F5FC73184605F006FC01F072BC3D
:104D3800FB6803F5FC73184605F041FC0346032B9A
:104D480014BF01230023DBB2002B01F04684FB686B
:104D580003F5FC730321184605F0FDFB01F03DBC8B
:104D6800FB6803F5FC73184605F029FC0346042B81
:104D780014BF01230023DBB2002B01F03084FB6851
:104D880003F5FC730421184605F0E5FB01F027BC88
:104D9800FB6803F5FC73184605F011FC0346022B6B
:104DA80014BF01230023DBB2002B01F01A84FB6837
:104DB80003F5FC730221184605F0CDFB01F011BC88
:104DC800FB6803F5FC73184605F0F9FB0346012B55
:104DD80014BF01230023DBB2002B01F00484FB681D
:104DE80003F5FC730121184605F0B5FB01F0FBBB88
:104DF800FB6803F5FC73184605F0E1FB0346052B39
:104E080014BF01230023DBB2002B01F0EE83FB6803
:104E180003F5FC730521184605F09DFB01F0E5BB81
:104E2800FB6803F5FC73184605F0C9FB0346062B1F
:104E380014BF01230023DBB2002B01F0D883FB68E9
:104E480003F5FC730621184605F085FB01F0CFBB7E
:104E5800FB6803F5FC73184605F0B1FB0346072B06
:104E680014BF01230023DBB2002B01F0C283FB68CF
:104E780003F5FC730721184605F06DFB01F0B9BB7B
:104E8800FB6803F5FC73184605F082FE03461A46D4
:104E9800BB689B789A4214BF01230023DBB2002B26
:104EA80001F0A983FB6803F5FC72BB689B7819467F
:104EB800104605F05DFE01F09EBBFB6803F5FC7231
:104EC800BB689B7807EE903AF8EE677AB0EE670A0F
:104ED800104605F06AFE01F09DBBFB6803F5FC7304
:104EE800184605F09FFB0346002B14BF012300233F
:104EF800DBB2002B01F08183FB6803F5FC73002112
:104F0800184605F027FD01F078BBFB6803F5FC7334
:104F1800184605F087FB0346012B14BF0123002325
:104F2800DBB2002B01F06B83FB6803F5FC730121F6
:104F3800184605F00FFD01F062BBFB6803F5FC7332
:104F4800184605F06FFB0346022B14BF012300230C
:104F5800DBB2002B01F05583FB6803F5FC730221DB
:104F6800184605F0F7FC01F04CBBFB6803F5FC7331
:104F7800184605F057FB0346032B14BF01230023F3
:104F8800DBB2002B01F03F83FB6803F5FC730321C0
:104F9800184605F0DFFC01F036BB00BF3C060020D8
:104FA800FB68B3F87E3D1946BB689B781B02BA685C
:104FB800D2781344994201F02883BB689B789BB24E
:104FC8001B029AB2BB68DB789BB213449AB2FB68A7
:104FD800A3F87E2D01F019BBFB680433184601F0D5
:104FE800E5FD0346002B09D0FB680433184601F0A1
:104FF80074FE0346002B01D0012300E00023002BA0
:105008000DD0FB681C1DFB680433184601F01FFE19
:1050180003461946204601F00BFE01F0FBBAFB6877
:1050280004330021184601F04AFEFB6804330021CE
:10503800184601F0FDFDFB6804330021184601F015
:105048001CFE01F0E7BAFB6803F58053012283F8E0
:105058008020FB6893F8883E43F00103DAB2FB68CE
:1050680083F8882E01F0D6BAFB6803F58053002236
:1050780083F88020FB6893F8883E23F00103DAB2B6
:10508800FB6883F8882E01F0C5BAFB682433012138
:105098001846FCF7C1F8FB6893F8883E43F0020312
:1050A800DAB2FB6883F8882E01F0B4BAFB682433BF
:1050B80000211846FCF7B0F8FB6893F8883E23F007
:1050C8000203DAB2FB6883F8882E01F0A3BAFB6802
:1050D80024331846FCF7AFF801F09CBAFB68243378
:1050E8001846FCF7B8F8FB6803F12400BB681B7985
:1050F8009BB21B029AB2BB685B799BB213449BB20A
:105108001946FCF7B8F801F085BAFB6803F12400EA
:10511800BB681B799BB21B029AB2BB685B799BB2D6
:1051280013449BB21946FCF7B5F801F073BAFB6853
:1051380003F12400BB68DB799BB21B029AB2BB68FF
:105148001B7A9BB213449BB21A460121FCF7B2F8B2
:1051580001F060BAFB6803F12400BB68DB799BB2FD
:105168001B029AB2BB681B7A9BB213449BB21A46C5
:105178000221FCF79FF801F04DBAFB6803F1240007
:10518800BB68DB799BB21B029AB2BB681B7A9BB2E5
:1051980013449BB21A460321FCF78CF801F03ABA83
:1051A800FB6803F12400BB68DB799BB21B029AB24F
:1051B800BB681B7A9BB213449BB21A460421FCF7C6
:1051C80079F801F027BAFB6803F12400BB68DB79A2
:1051D8009BB21B029AB2BB681B7A9BB213449BB268
:1051E8001A460521FCF766F801F014BAFB6803F1CA
:1051F8002400BB68DB799BB21B029AB2BB681B7A9E
:105208009BB213449BB21A460621FCF753F801F0EF
:1052180001BAFB68243301211846FCF7EEF8FB6855
:1052280093F8883E43F00403DAB2FB6883F8882ECB
:1052380001F0F0B9FB68243300211846FCF7DDF8CB
:10524800FB6893F8883E23F00403DAB2FB6883F81E
:10525800882E01F0DFB9FB6824331846FCF7DCF828
:1052680001F0D8B9FB6824331846FCF7E5F801F0DB
:10527800D1B9FB6803F12400BB681B799BB21B0200
:105288009AB2BB685B799BB213449BB21946FCF790
:10529800E3F801F0BFB9FB6803F12400BB681B7990
:1052A8009BB21B029AB2BB685B799BB213449BB258
:1052B8001946FCF7E0F801F0ADB9FB6803F12400EA
:1052C800BB68DB799BB21B029AB2BB681B7A9BB2A4
:1052D80013449BB21A460121FCF7DCF801F09AB995
:1052E800FB6803F12400BB68DB799BB21B029AB20E
:1052F800BB681B7A9BB213449BB21A460221FCF787
:10530800C9F801F087B9FB6803F12400BB68DB79B1
:105318009BB21B029AB2BB681B7A9BB213449BB226
:105328001A460321FCF7B6F801F074B9FB6803F1DB
:105338002400BB68DB799BB21B029AB2BB681B7A5C
:105348009BB213449BB21A460421FCF7A3F801F060
:1053580061B9FB6803F12400BB68DB799BB21B02CF
:105368009AB2BB681B7A9BB213449BB21A460521BA
:10537800FCF790F801F04EB9FB6803F12400BB6814
:10538800DB799BB21B029AB2BB681B7A9BB21344AF
:105398009BB21A460621FCF77DF801F03BB9FB6881
:1053A800243301211846FCF718F9FB6893F8883E66
:1053B80043F00803DAB2FB6883F8882E01F02AB9B3
:1053C800FB68243300211846FCF707F9FB6893F8BB
:1053D800883E23F00803DAB2FB6883F8882E01F0D0
:1053E80019B9FB6824331846FCF706F901F012B91D
:1053F800FB6824331846FCF70FF9FB6803F1240017
:10540800BB681B799BB21B029AB2BB685B799BB2E3
:1054180013449BB21946FCF70FF901F0FBB8FB687F
:1054280003F12400BB681B799BB21B029AB2BB68CC
:105438005B799BB213449BB21946FCF70DF901F056
:10544800E9B8FB6803F12400BB68DB799BB21B0257
:105458009AB2BB681B7A9BB213449BB21A460121CD
:10546800FCF70AF901F0D6B8FB6803F12400BB6821
:10547800DB799BB21B029AB2BB681B7A9BB21344BE
:105488009BB21A460221FCF7F7F801F0C3B8FB6893
:1054980003F12400BB68DB799BB21B029AB2BB689C
:1054A8001B7A9BB213449BB21A460321FCF7E4F81B
:1054B80001F0B0B8FB6803F12400BB68DB799BB24C
:1054C8001B029AB2BB681B7A9BB213449BB21A4662
:1054D8000421FCF7D1F801F09DB8FB6803F1240022
:1054E800BB68DB799BB21B029AB2BB681B7A9BB282
:1054F80013449BB21A460521FCF7BEF801F08AB89E
:10550800FB6803F12400BB68DB799BB21B029AB2EB
:10551800BB681B7A9BB213449BB21A460621FCF760
:10552800ABF801F077B8F86801F00EFAFB681B6871
:1055380010331B680121F8689847BC4B03225A7046
:1055480001F068B8FB681B6810331B680021F86815
:105558009847B64B00225A7001F05CB8FB682433B8
:1055680001211846FCF72FF9FB6893F8883E43F0B1
:105578001003DAB2FB6883F8882E01F04BB8FB6899
:10558800243300211846FCF71EF9FB6893F8883E7F
:1055980023F01003DAB2FB6883F8882E01F03AB8DA
:1055A800FB6824331846FCF71DF901F033B8FB6893
:1055B80024331846FCF727F901F02CB8FB6803F5EB
:1055C8008653183300211846FCF725FDFB6803F5C0
:1055D800865318331846FDF77DFC01F01BB8FB68AD
:1055E80003F58653183301211846FCF714FDFB68B0
:1055F80003F5865318331846FDF76CFC01F00AB81A
:10560800FB6803F58653183302211846FCF703FD9F
:10561800FB6803F5865318331846FDF75BFC00F06A
:10562800F9BFFB6803F58653183303211846FCF7C6
:10563800F2FCFB6803F5865318331846FDF74AFC5D
:1056480000F0E8BFFB6824331846FCF7D0F900F0F7
:10565800E1BFFB6824331846FCF7DAF900F0DABF3B
:10566800FB6803F12400BB685B799BB21B029AB20A
:10567800BB689B799BB213449BB21946FCF797F918
:1056880000F0C8BFFB6803F12400BB685B799BB2DC
:105698001B029AB2BB689B799BB213449BB2194612
:1056A800FCF795F900F0B6BFFB6824331846FCF701
:1056B80026F900F0AFBFFB6824331846FCF730F931
:1056C80000F0A8BFFB6803F12400BB685B799BB2BC
:1056D8001B029AB2BB689B799BB213449BB21946D2
:1056E800FCF7DDF800F096BFFB6803F12400BB6807
:1056F8005B799BB21B029AB2BB689B799BB213443D
:105708009BB21946FCF7DBF800F084BFFB6803F195
:105718002400BB685B799BB21B029AB2BB689B7979
:105728009BB213449BB21946FCF7D9F800F072BF3C
:10573800FB680022A3F86E20FB6840F6FF72A3F80E
:105748006C20FB680022A3F87220FB6840F6FF7209
:10575800A3F8702000F05EBFF86801F0F5F8FB6868
:105768001B6818331B680121F86898472F4B0222E1
:105778005A7000F04FBFFB681B6818331B68002184
:10578800F8689847294B00225A7000F043BFFB681D
:105798001B6808331B68BA68127992B2120291B278
:1057A800BA68527992B20A4492B21146F868984798
:1057B80000F030BFFB6803F50C70BB689B799BB2A7
:1057C8001B029AB2BB68DB799BB213449BB21946A1
:1057D80002F08BF900F01EBFBB689A78FB6803F5EE
:1057E800805383F8812000F015BFBB689B78194669
:1057F800F868FEF785FA00F00DBFBB689B7819467C
:10580800F868FEF737FA00F005BFFB6803F50C707F
:10581800BB685B791B02BA68927913441946BB6866
:105828001B791A4601F072FF00F0F4BE3C06002016
:10583800FB6803F50C72BB681B791946104602F029
:1058480071F900F0E7BEFB6803F50C72BB681B79C1
:105858001946104602F0A0F900F0DCBEFB6803F51B
:105868000C72BB681B791946104602F078F900F0F3
:10587800D1BEFB6803F50C72BB681B79194610464C
:1058880002F0A7F9FB6803F50C72BB681B7919468F
:10589800104602F00DF900F0BDBEFB6803F50C726E
:1058A800BB681B791946104602F0B0F900F0B2BE89
:1058B800FB6803F50C72BB681B791946104602F0A9
:1058C800C2F900F0A7BEFB6803F58053012283F8F4
:1058D8007F26FB6803F5805393F87F369AB2FB68FE
:1058E800A3F8822DFB680433184601F045F90346F6
:1058F8009AB2FB68A3F8842DFB680433184601F0BC
:1059080055F903469AB2FB68A3F8862DFB68043361
:10591800184601F066F903461A46FB68A3F8882D75
:10592800FB680433184601F077F903461A46FB680A
:10593800A3F88A2DFB6803F5FC73184604F03FFEB4
:1059480003463B75FB6803F5FC73184604F06AFED2
:105958000346FB743B7D1AB2FB7C1B021BB213434C
:105968001BB29AB2FB68A3F88C2DFB6803F5FC7395
:10597800184605F00DF90346BB74BB7C1CB2FB68E6
:1059880003F5FC73184605F01FF9F0EE407AFCEEBB
:10599800E77AC7ED017A3B79DBB21B021BB22343DE
:1059A8001BB29AB2FB68A3F88E2DFB6803F5FC7353
:1059B800184604F0A5FF03461CB2FB6803F5FC7308
:1059C800184604F0BAFF03461B021BB223431BB25E
:1059D8009AB2FB68A3F8902DFB6803F58053B3F8DF
:1059E8007A20FB68A3F8922DFB6803F50C73184620
:1059F80002F08BF803461A46FB68A3F8942DFB685F
:105A080003F5805393F878301AB2FB6803F5805396
:105A180093F881301B021BB213431BB29AB2FB6886
:105A2800A3F8962DFB6803F5805393F882301AB2D9
:105A3800FB6803F5805393F8A0301B021BB2134395
:105A48001BB29AB2FB68A3F8982DFB68B3F87E2DB9
:105A5800FB68A3F89A2DFB6893F8883E9AB2FB6816
:105A6800A3F89C2DFB689A8DFB68A3F89E2DFB6814
:105A7800DA8DFB68A3F8A02DFB689A8FFB68A3F862
:105A8800A22DFB68DA8FFB68A3F8A42DFB681A8E99
:105A9800FB68A3F8A62DFB685A8EFB68A3F8A82D0F
:105AA800FB689A8EFB68A3F8AA2DFB68DA8EFB6860
:105AB800A3F8AC2DFB681A8FFB68A3F8AE2DFB6822
:105AC8005A8FFB68A3F8B02DFB68B3F84020FB6839
