:020000040800F2
:10000000000001206DC4000889C100088FC10008EC
:1000100095C100089BC10008A1C1000800000000B4
:10002000000000000000000000000000A7C1000860
:10003000B5C1000800000000C3C10008D1C100081C
:10004000BDC40008BDC40008BDC40008BDC400088C
:10005000BDC40008BDC40008BDC40008BDC400087C
:10006000DDC10008BDC40008BDC40008BDC400084F
:10007000BDC40008BDC40008BDC40008BDC400085C
:10008000BDC40008BDC40008EDC1000800000000A8
:10009000000000000000000000000000BDC40008D7
:1000A00001C20008BDC40008BDC40008BDC40008EA
:1000B0001DC2000831C2000845C20008BDC40008C6
:1000C000BDC40008BDC40008BDC40008BDC400080C
:1000D000BDC4000859C20008BDC4000800000000EB
:1000E000BDC40008BDC40008BDC400080000000075
:1000F000000000000000000000000000BDC4000877
:1001000000000000BDC400086DC20008BDC40008A6
:1001100000000000000000000000000000000000DF
:1001200081C20008BDC40008BDC40008BDC40008E9
:10013000BDC4000800000000000000000000000036
:1001400000000000000000000000000095C2000850
:10015000BDC40008BDC40008A9C20008BDC4000891
:10016000BDC40008BDC4000800000000000000007D
:10017000000000000000000000000000000000007F
:1001800000000000BDC400080000000000000000E6
:04019000BDC40008E2
:1001980010B5054C237833B9044B13B10448AFF3B9
:1001A80000800123237010BD2006002000000000FD
:1001B80094BC010808B5034B1BB103490348AFF3CE
:1001C800008008BD000000002406002094BC01083F
:1001D80081F0004102E000BF83F0004330B54FEAF0
:1001E80041044FEA430594EA050F08BF90EA020F5D
:1001F8001FBF54EA000C55EA020C7FEA645C7FEAF0
:10020800655C00F0E2804FEA5454D4EB5555B8BF12
:100218006D420CDD2C4480EA020281EA030382EA83
:10022800000083EA010180EA020281EA0303362D15
:1002380088BF30BD11F0004F4FEA01314FF4801CE8
:100248004CEA113102D0404261EB410113F0004FFA
:100258004FEA03334CEA133302D0524263EB4303B1
:1002680094EA050F00F0A780A4F10104D5F1200E4F
:100278000DDB02FA0EFC22FA05F2801841F10001AA
:1002880003FA0EF2801843FA05F359410EE0A5F17E
:1002980020050EF1200E012A03FA0EFC28BF4CF0AF
:1002A800020C43FA05F3C01851EBE37101F0004565
:1002B80007D54FF0000EDCF1000C7EEB00006EEB72
:1002C8000101B1F5801F1BD3B1F5001F0CD34908FC
:1002D8005FEA30004FEA3C0C04F101044FEA445253
:1002E80012F5800F80F09A80BCF1004F08BF5FEADA
:1002F800500C50F1000041EB045141EA050130BDBA
:100308005FEA4C0C404141EB0101013C28BFB1F5CB
:10031800801FE9D291F0000F04BF01460020B1FA16
:1003280081F308BF2033A3F10B03B3F120020CDAE9
:100338000C3208DD02F1140CC2F10C0201FA0CF0C7
:1003480021FA02F10CE002F11402D8BFC2F1200C2C
:1003580001FA02F120FA0CFCDCBF41EA0C019040E2
:10036800E41AA2BF01EB0451294330BD6FEA04042B
:100378001F3C1CDA0C340EDC04F11404C4F1200216
:1003880020FA04F001FA02F340EA030021FA04F328
:1003980045EA030130BDC4F10C04C4F1200220FA7F
:1003A80002F001FA04F340EA0300294630BD21FABD
:1003B80004F0294630BD94F0000F83F4801306BF83
:1003C80081F480110134013D4EE77FEA645C18BF77
:1003D8007FEA655C29D094EA050F08BF90EA020F0E
:1003E80005D054EA000C04BF1946104630BD91EA06
:1003F800030F1EBF0021002030BD5FEA545C05D109
:100408004000494128BF41F0004130BD14F5800447
:100418003CBF01F5801130BD01F0004545F0FE41BB
:1004280041F470014FF0000030BD7FEA645C1ABFF0
:10043800194610467FEA655C1CBF0B46024650EA27
:10044800013406BF52EA033591EA030F41F4002153
:1004580030BD00BF90F0000F04BF0021704730B5D9
:100468004FF4806404F132044FF000054FF00001AE
:1004780050E700BF90F0000F04BF0021704730B56F
:100488004FF4806404F1320410F0004548BF404244
:100498004FF000013EE700BF42004FEAE2014FEA99
:1004A80031014FEA02701FBF12F07F4393F07F4F74
:1004B80081F06051704732F07F4208BF704793F077
:1004C8007F4F04BF41F40021704730B54FF460748A
:1004D80001F0004521F000411CE700BF50EA01028D
:1004E80008BF704730B54FF000050AE050EA010236
:1004F80008BF704730B511F0004502D5404261EBA6
:1005080041014FF4806404F132045FEA915C3FF4E6
:10051800D8AE4FF003025FEADC0C18BF03325FEA83
:10052800DC0C18BF033202EBDC02C2F1200300FA34
:1005380003FC20FA02F001FA03FE40EA0E0021FA59
:1005480002F11444BDE600BF70B54FF0FF0C4CF447
:10055800E06C1CEA11541DBF1CEA135594EA0C0FF9
:1005680095EA0C0F00F0DEF82C4481EA030621EA34
:100578004C5123EA4C5350EA013518BF52EA03356F
:1005880041F4801143F4801338D0A0FB02CE4FF021
:100598000005E1FB02E506F00042E0FB03E54FF051
:1005A8000006E1FB03569CF0000F18BF4EF0010E49
:1005B800A4F1FF04B6F5007F64F5407404D25FEA45
:1005C8004E0E6D4146EB060642EAC62141EA5551F8
:1005D8004FEAC52040EA5E504FEACE2EB4F1FD0C3A
:1005E80088BFBCF5E06F1ED8BEF1004F08BF5FEAB8
:1005F800500E50F1000041EB045170BD06F000466A
:1006080046EA010140EA020081EA0301B4EB5C0416
:10061800C2BFD4EB0C0541EA045170BD41F480110E
:100628004FF0000E013C00F3AB8014F1360FDEBF33
:10063800002001F0004170BDC4F10004203C35DA0F
:100648000C341BDC04F11404C4F1200500FA05F392
:1006580020FA04F001FA05F240EA020001F0004233
:1006680021F0004110EBD37021FA04F642EB0601A9
:100678005EEA430E08BF20EAD37070BDC4F10C04D3
:10068800C4F1200500FA04F320FA05F001FA04F297
:1006980040EA020001F0004110EBD37041F1000183
:1006A8005EEA430E08BF20EAD37070BDC4F120058E
:1006B80000FA05F24EEA020E20FA04F301FA05F2F6
:1006C80043EA020321FA04F001F0004121FA04F29E
:1006D80020EA020000EBD3705EEA430E08BF20EA6E
:1006E800D37070BD94F0000F0FD101F000464000A8
:1006F80041EB010111F4801F08BF013CF7D041EA2A
:10070800060195F0000F18BF704703F0004652002D
:1007180043EB030313F4801F08BF013DF7D043EAFE
:100728000603704794EA0C0F0CEA135518BF95EAB4
:100738000C0F0CD050EA410618BF52EA4306D1D13B
:1007480081EA030101F000414FF0000070BD50EA5A
:10075800410606BF1046194652EA430619D094EAE4
:100768000C0F02D150EA013613D195EA0C0F05D1CE
:1007780052EA03361CBF104619460AD181EA030122
:1007880001F0004141F0FE4141F470014FF00000DA
:1007980070BD41F0FE4141F4780170BD70B54FF075
:1007A800FF0C4CF4E06C1CEA11541DBF1CEA1355F5
:1007B80094EA0C0F95EA0C0F00F0A7F8A4EB0504D7
:1007C80081EA030E52EA03354FEA013100F08880CE
:1007D8004FEA03334FF0805545EA131343EA126397
:1007E8004FEA022245EA111545EA10654FEA00264C
:1007F8000EF000419D4208BF964244F1FD0404F505
:10080800407402D25B084FEA3202B61A65EB030560
:100818005B084FEA32024FF480104FF4002CB6EB1D
:10082800020E75EB030E22BFB61A754640EA0C009D
:100838005B084FEA3202B6EB020E75EB030E22BFDD
:10084800B61A754640EA5C005B084FEA3202B6EB1E
:10085800020E75EB030E22BFB61A754640EA9C00DD
:100868005B084FEA3202B6EB020E75EB030E22BFAD
:10087800B61A754640EADC0055EA060E18D04FEA6B
:10088800051545EA16754FEA06164FEAC30343EA0B
:1008980052734FEAC2025FEA1C1CC0D111F4801FD8
:1008A8000BD141EA00014FF000004FF0004CB6E7D1
:1008B80011F4801F04BF01430020B4F1FD0C88BF70
:1008C800BCF5E06F3FF6AFAEB5EB030C04BFB6EB7B
:1008D800020C5FEA500C50F1000041EB045170BD6E
:1008E8000EF0004E4EEA113114EB5C04C2BFD4EB9B
:1008F8000C0541EA045170BD41F480114FF0000E1F
:10090800013C90E645EA060E8DE60CEA135594EA9A
:100918000C0F08BF95EA0C0F3FF43BAF94EA0C0F9D
:100928000AD150EA01347FF434AF95EA0C0F7FF412
:1009380025AF104619462CE795EA0C0F06D152EA66
:1009480003353FF4FDAE1046194622E750EA41064A
:1009580018BF52EA43067FF4C5AE50EA41047FF45B
:100968000DAF52EA43057FF4EBAE12E74FF0FF3CC0
:1009780006E000BF4FF0010C02E000BF4FF0010C91
:100988004DF804CD4FEA410C7FEA6C5C4FEA430C0A
:1009980018BF7FEA6C5C1BD001B050EA410C0CBF59
:1009A80052EA430C91EA030F02BF90EA020F0020BB
:1009B800704710F1000F91EA030F58BF994208BF22
:1009C80090422CBFD8176FEAE37040F001007047DF
:1009D8004FEA410C7FEA6C5C02D150EA013C07D136
:1009E8004FEA430C7FEA6C5CD6D152EA033CD3D081
:1009F8005DF8040B704700BF8446104662468C467B
:100A08001946634600E000BF01B5FFF7B7FF0028AD
:100A180048BF10F1000F01BD4DF808EDFFF7F4FFD6
:100A28000CBF012000205DF808FB00BF4DF808ED61
:100A3800FFF7EAFF34BF012000205DF808FB00BF84
:100A48004DF808EDFFF7E0FF94BF012000205DF8A6
:100A580008FB00BF4DF808EDFFF7CEFF94BF01205B
:100A680000205DF808FB00BF4DF808EDFFF7C4FF54
:100A780034BF012000205DF808FB00BF4FEA410C9D
:100A88007FEA6C5C02D150EA013C0AD14FEA430C80
:100A98007FEA6C5C02D152EA033C02D14FF00000BD
:100AA80070474FF0010070474FEA410212F50012FB
:100AB80015D211D56FF47873B3EB625212D94FEA9D
:100AC800C12343F0004343EA505311F0004F23FA87
:100AD80002F018BF404270474FF00000704750EADC
:100AE800013005D111F0004008BF6FF00040704799
:100AF8004FF00000704700BF4A0011D212F50012F3
:100B080011D20DD56FF47873B3EB62520ED44FEA5D
:100B1800C12343F0004343EA505323FA02F07047DD
:100B28004FF00000704750EA013002D14FF0FF301B
:100B380070474FF0000070474FEA4102B2F1E043BE
:100B480024BFB3F5001CDCF1FE5C0DD901F0004CAC
:100B58004FEAC0024CEA5070B2F1004F40EB8300FC
:100B680008BF20F00100704711F0804F21D113F128
:100B78003872BCBF01F00040704741F480114FEA61
:100B88005252C2F11802C2F1200C10FA0CF320FAEA
:100B980002F018BF40F001004FEAC1234FEAD32307
:100BA80003FA0CFC40EA0C0023FA02F34FEA430371
:100BB800CCE77FEA625307D150EA01331EBF4FF0FA
:100BC800FE4040F44000704701F0004040F0FE4015
:100BD80040F40000704700BF53B94AB9002908BF64
:100BE80000281CBF4FF0FF314FF0FF3000F06EB906
:100BF800ADF1080C6DE904CE00F006F8DDF804E06C
:100C0800DDE9022304B070472DE9F047089D04464A
:100C18008C46002B40F083808A42174647D9B2FAA7
:100C280082F242B1C2F1200024FA00F091409740CC
:100C380040EA010C94404FEA1748230CBCFBF8F635
:100C48001FFA87FE08FB16C143EA014306FB0EF1B3
:100C5800994209D9FB1806F1FF3080F019819942B1
:100C680040F21681023E3B445B1AA4B2B3FBF8F093
:100C780008FB103344EA034400FB0EFEA64509D9DD
:100C88003C1900F1FF3380F00581A64540F202814E
:100C980002383C4440EA0640A4EB0E0400261DB18D
:100CA800D4400023C5E900433146BDE8F08702B9C6
:100CB800FFDEB2FA82F2002A50D1CB1B4FEA174E60
:100CC8001FFA87F80126B3FBFEFC210C0EFB1C3330
:100CD80041EA034108FB0CF38B4207D979180CF160
:100CE800FF3002D28B4200F2E9808446C91AA3B2CF
:100CF800B1FBFEF00EFB101143EA014408FB00F8BB
:100D0800A04507D93C1900F1FF3302D2A04500F2F3
:100D1800D9801846A4EB080440EA0C40BFE78B4290
:100D280009D9002D00F0B1800026C5E90001304640
:100D38003146BDE8F087B3FA83F6002E4AD18B42DC
:100D480002D3824200F2B880841A61EB03010120C9
:100D58008C46002DA8D0C5E9004CA5E7C2F12003B8
:100D680020FA03F6974001FA02F04FEA174ED940ED
:100D78003043030CB1FBFEF61FFA87F80EFB161181
:100D880043EA014306FB08F1994204FA02F409D93F
:100D9800FB1806F1FF3C80F08D80994240F28A8072
:100DA800023E3B445B1A81B2B3FBFEF00EFB1033EC
:100DB80041EA034100FB08F38B4207D9791800F197
:100DC800FF3C73D28B4271D902383944CB1A40EABE
:100DD800064678E7C6F1200C03FA06F422FA0CF36B
:100DE8001C4320FA0CF701FA06F34FEA144E21FAD5
:100DF8000CF11F433B0CB1FBFEF91FFA84F80EFB04
:100E0800191143EA014109FB08FA8A4502FA06F278
:100E180000FA06F308D9611809F1FF3048D28A456B
:100E280046D9A9F102092144A1EB0A01BFB2B1FBDD
:100E3800FEF00EFB101147EA014700FB08F8B84521
:100E480007D9E71900F1FF312ED2B8452CD902385D
:100E5800274440EA0940A7EB0807A0FB02894F4551
:100E6800C64649461AD317D05DB1B3EB0E0267EBFD
:100E7800010707FA0CFCF2404CEA0202F740C5E908
:100E8800002700263146BDE8F0872E4628460BE7A6
:100E98000646E9E61846FDE64345E5D2B8EB020EFC
:100EA80069EB04010138DFE70846D2E760468DE7C1
:100EB8008146B9E7664675E730464AE7ACF1020C69
:100EC800394413E702383C4424E700BF704700BFA9
:100ED800B0B483B000AF7860254A7B681A607B683D
:100EE80001221A717B6801225A717B6800229A716B
:100EF8007B680022DA717B681E4A0C3307CA83E8D4
:100F080007007B681B4A203307CA83E807007B6811
:100F1800184A343307CA83E807007B68164A03F186
:100F2800680415460FCD0FC40FCD0FC495E8030014
:100F380084E803007B680F4A03F5D47307CA83E883
:100F480007007B680B4A03F5DB74134607CB206068
:100F58006160A2607B68074A03F5E27307CA83E809
:100F680007007B6818460C37BD46B0BC704700BF09
:100F7800CCBD0108B0BC0108BCBC010880B483B07A
:100F880000AF7860044A7B681A607B6818460C37A3
:100F9800BD465DF8047B7047CCBD010880B582B0C2
:100FA80000AF78607868FFF7E9FF4FF4EA71786876
:100FB80017F028FB7B6818460837BD4680BD80B40B
:100FC80083B000AF78607B6801221A717B680022C9
:100FD8001A817B6840F6FF725A817B6800221A8367
:100FE8007B6800225A837B6800229A817B6843F2DF
:100FF8003332DA817B6846F266621A827B6849F688
:1010080099125A827B684CF6CC429A827B684FF6DA
:10101800FF72DA827B6801225A717B6800229A8308
:101028007B6840F6FF72DA837B6800229A857B68CA
:101038000022DA857B6800221A847B6843F2333207
:101048005A847B6846F266629A847B6849F69912EC
:10105800DA847B684CF6CC421A857B684FF6FF72BF
:101068005A857B6800229A717B6800221A867B6801
:1010780040F6FF725A867B680022A3F840207B68FE
:101088000022A3F842207B6800229A867B6843F2FC
:101098003332DA867B6846F266621A877B6849F6DD
:1010A80099125A877B684CF6CC429A877B684FF630
:1010B800FF72DA877B680022DA717B680022A3F866
:1010C80044207B6840F6FF72A3F846207B6840F610
:1010D800FF72A3F848207B680022A3F84A207B68A7
:1010E80040F6FF72A3F84C207B680022A3F84E203C
:1010F8007B684CF23002A3F850207B6844F210025F
:10110800A3F852207B6847F6FF72A3F854207B6847
:101118004CF23002A3F856207B6844F21002A3F880
:10112800582000BF0C37BD465DF8047B704780B47B
:1011380083B000AF78607B68B3F8563018460C3738
:10114800BD465DF8047B704780B483B000AF78601B
:101158007B68B3F8583018460C37BD465DF8047BF9
:10116800704780B483B000AF78607B68B3F85030C4
:1011780018460C37BD465DF8047B704780B483B0D1
:1011880000AF78607B68B3F8543018460C37BD461A
:101198005DF8047B704780B483B000AF78607B68EB
:1011A800B3F8523018460C37BD465DF8047B7047DB
:1011B80080B584B000AF786039600023FB73FB7B97
:1011C800062B1FD8FB7B9B003A6813441B6819B297
:1011D800FA7B13469B001344DB0090337A681A4469
:1011E8000723786800F0D4FC03461A46FB7B91B2CB
:1011F8007A682C335B0013440A465A80FB7B013320
:10120800FB73DCE700BF1037BD4680BD80B483B0F8
:1012180000AF78600B46FB707B68FA781A7100BFE4
:101228000C37BD465DF8047B704780B483B000AFCF
:1012380078607B68B3F85A309AB27B681A8100BF2D
:101248000C37BD465DF8047B704780B483B000AFAF
:1012580078607B68B3F85A309AB27B685A8100BFCD
:101268000C37BD465DF8047B704780B483B000AF8F
:1012780078600B467B807B687A885A8300BF0C377E
:10128800BD465DF8047B704780B483B000AF7860DA
:101298000B467B807B687A881A8300BF0C37BD4673
:1012A8005DF8047B7047000080B483B000AF7860BD
:1012B8000B46FB7013463B80FB78013B052B27D878
:1012C80001A252F823F000BFE9120008F112000849
:1012D800F912000801130008091300081113000887
:1012E8007B683A889A8113E07B683A88DA810FE054
:1012F8007B683A881A820BE07B683A885A8207E052
:101308007B683A889A8203E07B683A88DA8200BF71
:1013180000BF0C37BD465DF8047B704780B584B0CC
:1013280002AF78607B681B79002B14D07B681B6840
:101338000C331B6878689847034618467B6803F5A2
:10134800D4727B680C33062100910146786800F05E
:10135800A0FB034600E0002318460837BD4680BDC1
:1013680080B582B000AF78607B681A897B685B893A
:101378009A421CD97B68B3F85A3099B27B681A89AB
:101388007B681B8BD31A98B27B685A897B685B8B06
:1013980013449BB20246786800F052FC03461A4692
:1013A8007B68A3F8B4217B68B3F8B4311BE07B6891
:1013B800B3F85A3099B27B681A897B681B8B13443F
:1013C80098B27B685A897B685B8BD31A9BB20246BA
:1013D800786800F035FC03461A467B68A3F8B42108
:1013E8007B68B3F8B43118460837BD4680BD80B471
:1013F80083B000AF78600B46FB707B68FA785A714F
:1014080000BF0C37BD465DF8047B704780B483B0DD
:1014180000AF78607B68B3F85C309AB27B689A83D7
:1014280000BF0C37BD465DF8047B704780B483B0BD
:1014380000AF78607B68B3F85C309AB27B68DA8377
:1014480000BF0C37BD465DF8047B704780B483B09D
:1014580000AF78600B467B807B687A88DA8500BFAE
:101468000C37BD465DF8047B704780B483B000AF8D
:1014780078600B467B807B687A889A8500BF0C373A
:10148800BD465DF8047B704780B483B000AF7860D8
:101498000B46FB7013463B80FB78013B052B27D896
:1014A80001A252F823F000BFC9140008D1140008A3
:1014B800D9140008E1140008E9140008F114000820
:1014C8007B683A881A8413E07B683A885A840FE06C
:1014D8007B683A889A840BE07B683A88DA8407E06C
:1014E8007B683A881A8503E07B683A885A8500BF8A
:1014F80000BF0C37BD465DF8047B704780B584B0EB
:1015080002AF78607B685B79002B14D07B681B681E
:1015180014331B6878689847034618467B6803F5B8
:10152800DB727B682033062100910146786800F061
:10153800B0FA034600E0002318460837BD4680BDD0
:1015480080B582B000AF78607B689A8B7B68DB8B54
:101558009A421CD97B68B3F85C3099B27B689A8B45
:101568007B689B8DD31A98B27B68DA8B7B68DB8D9E
:1015780013449BB20246786800F062FB03461A46A1
:101588007B68A3F8C2217B68B3F8C2311BE07B6893
:10159800B3F85C3099B27B689A8B7B689B8D134457
:1015A80098B27B68DA8B7B68DB8DD31A9BB20246D4
:1015B800786800F045FB03461A467B68A3F8C22109
:1015C8007B68B3F8C23118460837BD4680BD80B481
:1015D80083B000AF78600B46FB707B68FA789A712D
:1015E80000BF0C37BD465DF8047B704780B483B0FC
:1015F80000AF78607B68B3F85E309AB27B681A8671
:1016080000BF0C37BD465DF8047B704780B483B0DB
:1016180000AF78607B68B3F85E309AB27B685A8610
:1016280000BF0C37BD465DF8047B704780B483B0BB
:1016380000AF78600B467B807B687A88A3F84220ED
:1016480000BF0C37BD465DF8047B704780B483B09B
:1016580000AF78600B467B807B687A88A3F84020CF
:1016680000BF0C37BD465DF8047B704780B483B07B
:1016780000AF78600B46FB7013463B80FB78013B5C
:10168800052B27D801A252F823F000BFAD16000899
:10169800B5160008BD160008C5160008CD160008C6
:1016A800D51600087B683A889A8613E07B683A88E2
:1016B800DA860FE07B683A881A870BE07B683A88FD
:1016C8005A8707E07B683A889A8703E07B683A88FC
:1016D800DA8700BF00BF0C37BD465DF8047B704752
:1016E80080B584B002AF78607B689B79002B14D0FA
:1016F8007B681B681C331B68786898470346184644
:101708007B6803F5E2727B68343306210091014659
:10171800786800F0BEF9034600E000231846083751
:10172800BD4680BD80B582B000AF78607B681A8EF8
:101738007B685B8E9A421ED97B68B3F85E3099B29B
:101748007B681A8E7B68B3F84030D31A98B27B68EE
:101758005A8E7B68B3F8423013449BB202467868CD
:1017680000F06EFA03461A467B68A3F8D0217B681E
:10177800B3F8D0311DE07B68B3F85E3099B27B686E
:101788001A8E7B68B3F84030134498B27B685A8E3F
:101798007B68B3F84230D31A9BB20246786800F0EF
:1017A8004FFA03461A467B68A3F8D0217B68B3F842
:1017B800D03118460837BD4680BD80B483B000AF2D
:1017C80078600B46FB707B68FA78DA7100BF0C37DB
:1017D800BD465DF8047B704780B483B000AF786085
:1017E8007B68B3F860309AB27B68A3F8442000BFE6
:1017F8000C37BD465DF8047B704780B483B000AFFA
:1018080078607B68B3F860309AB27B68A3F84620AA
:1018180000BF0C37BD465DF8047B704780B582B0C9
:1018280000AF78607B68DB79002B2DD07B68B3F83C
:1018380044207B68B3F846309A4212D97B68B3F8E3
:10184800603099B27B68B3F84430053B9AB27B6844
:10185800B3F8463005339BB2786800F0F1F90346D7
:1018680013E07B68B3F8603099B27B68B3F8443012
:1018780005339AB27B68B3F84630053B9BB278686B
:1018880000F0DEF9034600E0002318460837BD469D
:1018980080BD80B483B000AF78600B467B807B68E6
:1018A8007A88A3F8502000BF0C37BD465DF8047B4A
:1018B800704780B483B000AF78600B467B807B684C
:1018C8007A88A3F8542000BF0C37BD465DF8047B26
:1018D800704780B483B000AF78600B467B807B682C
:1018E8007A88A3F8522000BF0C37BD465DF8047B08
:1018F800704780B483B000AF78607B68B3F862301B
:101908009AB27B68A3F84A2000BF0C37BD465DF841
:10191800047B704780B483B000AF78607B68B3F80D
:1019280062309AB27B68A3F8482000BF0C37BD46E6
:101938005DF8047B704780B582B000AF78607B6843
:10194800B3F84A207B68B3F848309A4212D97B68CA
:10195800B3F8623099B27B68B3F84A30053B9AB263
:101968007B68B3F8483005339BB2786800F068F9B3
:10197800034612E07B68B3F8623099B27B68B3F82B
:101988004A3005339AB27B68B3F84830053B9BB2BE
:10199800786800F055F9034600BF18460837BD4679
:1019A80080BD80B483B000AF78600B467B807B68D5
:1019B8007A88A3F8562000BF0C37BD465DF8047B33
:1019C800704780B483B000AF78600B467B807B683B
:1019D8007A88A3F8582000BF0C37BD465DF8047B11
:1019E800704780B483B000AF78607B68B3F8643028
:1019F8009AB27B68A3F84E2000BF0C37BD465DF84D
:101A0800047B704780B483B000AF78607B68B3F81C
:101A180064309AB27B68A3F84C2000BF0C37BD46EF
:101A28005DF8047B704780B582B000AF78607B6852
:101A3800B3F84E207B68B3F84C309A4212D97B68D1
:101A4800B3F8643099B27B68B3F84E30053B9AB26C
:101A58007B68B3F84C3005339BB2786800F0F0F837
:101A6800034612E07B68B3F8643099B27B68B3F838
:101A78004E3005339AB27B68B3F84C30053B9BB2C5
:101A8800786800F0DDF8034600BF18460837BD4601
:101A980080BD80B487B000AFF8607A603B600B46C9
:101AA8007B817B681B887A899A4202D83B681B88AD
:101AB80068E097F8203003F10043013B5B007A6847
:101AC80013441B887A899A4209D397F8203003F186
:101AD8000043013B5B003A6813441B8852E0012332
:101AE800FB75FB7D5B007A6813441B887A899A42F0
:101AF80003D9FB7D0133FB75F3E7FB7D5B007A6857
:101B080013441B887A899A4205D1FB7D5B003A68A9
:101B180013441B8836E07A89FB7D03F10043013BBF
:101B28005B0079680B441B88D21AFB7D5B0039681F
:101B38000B441B881846FB7D03F10043013B5B0007
:101B480039680B441B88C31A03FB02F2FB7D5B0058
:101B580079680B441B881846FB7D03F10043013B61
:101B68005B0079680B441B88C31A92FBF3F39AB2A3
:101B7800FB7D03F10043013B5B0039680B441B8884
:101B880013449BB218461C37BD465DF8047B70476A
:101B980080B487B000AFF8607A601A460B467B8144
:101BA80013467B727B7A072B02D0B7F90A303DE0E7
:101BB800B7F90A30FA68B2F9682002FB03F37B61CF
:101BC8001323FB74FB7C002B22D0FB7C03F1004326
:101BD800013B5B007A681A44FB7C5B0079680B4424
:101BE800B2F900201A80FB7C5B007A681344B3F9D1
:101BF80000301946FA7CFB68343233F9123003FBA3
:101C080001F37A6913447B61FB7C013BFB74D9E7E0
:101C180000BF7B69084A82FB03125211DB17D31AF3
:101C28001AB27B681A807B68B3F9003018461C37F3
:101C3800BD465DF8047B70471F85EB51000000002E
:101C4800B0B588B000AFF860084611461A4603469A
:101C58007B810B463B811346FB807B8907EE903ADC
:101C6800B8EE677A3B8907EE903AF8EE677A77EE36
:101C7800677A17EE900AFEF70FFC39A3D3E9002321
:101C8800FEF762FC02460B4614461D46FA883B895D
:101C9800D31A07EE903AF8EEE77A17EE900AFEF7B5
:101CA800FBFB02460B4620462946FEF777FD024617
:101CB8000B4610461946FEF73FFF0346BB61D7EDBA
:101CC800067AF5EEC07AF1EE10FA02D50023FB830E
:101CD8003EE0D7ED067A9FED247AF4EEC77AF1EE6E
:101CE80010FA03DD4FF6FF73FB8331E07B8907EEC3
:101CF800903AB8EE677A3B8907EE903AF8EE677A41
:101D080077EE677A17EE900AFEF7C6FB14A3D3E9BD
:101D18000023FEF719FC02460B4614461D46FA88B6
:101D28003B89D31A07EE903AF8EEE77A17EE900A55
:101D3800FEF7B2FB02460B4620462946FEF72EFD6B
:101D480002460B4610461946FEF7D6FE0346FB83AD
:101D5800FB8BFB82FB8A18462037BD46B0BD00BF0F
:101D680000000000E0FFEF4000FF7F4780B483B031
:101D780000AF78607B6800225A707B6800225A6046
:101D88007B6805221A727B684FF4FA725A817B6865
:101D98000022DA607B6800221A747B6800225A7479
:101DA8007B6818460C37BD465DF8047B7047000019
:101DB800B0B582B000AF7860594A7B681A607B681A
:101DC800043317241D46002C05DB2846FFF7CEFFF9
:101DD8001435013CF7E77B6803F5F2731F241D46B1
:101DE800002C05DB2846FFF7C1FF1435013CF7E757
:101DF8007B684C4A03F2644415460FCD0FC495E83E
:101E0800070003C422707B68012283F87D247B6865
:101E1800002283F87E247B68012283F87F247B6874
:101E28000022C3F880247B680022C3F884247B68DE
:101E38003D4A03F5916307CA03C31A807B683B4A8E
:101E480003F2944415460FCD0FC42B6823607B68BA
:101E5800374A03F5956392E8030083E803007B683B
:101E6800344A03F5966413460FCB84E80F007B6869
:101E7800314A03F5986415460FCD0FC42B682380AB
:101E88007B682E4A03F2D44415460FCD0FC40FCDFC
:101E98000FC42B6823607B68294AC3F8F8247B6841
:101EA80003F5A0611CA3D3E90023C1E900237B68E3
:101EB800002283F808257B6803F5A2614FF0000231
:101EC8004FF00003C1E900237B684FF47A72A3F84E
:101ED80018257B680022C3F81C257B68002283F83C
:101EE80020257B68FF2283F821257B6803F2225393
:101EF80020220021184619F0B7F97B680022A3F8C0
:101F080042257B68002283F844257B6818460837F9
:101F1800BD46B0BDAFF30080EBEBABAC0B000000EF
:101F280014BE0108E4BC010800BD01080CBD01088D
:101F380020BD010828BD010838BD01084CBD0108B5
:101F4800A82D002080B483B000AF7860044A7B6875
:101F58001A607B6818460C37BD465DF8047B7047ED
:101F680014BE010880B582B000AF78607868FFF7CA
:101F7800E9FF4FF4AD61786816F044FB7B681846BA
:101F88000837BD4680BD80B483B000AF78607B68F9
:101F9800D3F8803418460C37BD465DF8047B70478B
:101FA80080B483B000AF78607B68D3F88434184677
:101FB8000C37BD465DF8047B704780B483B000AF32
:101FC80078607B6893F8213518460C37BD465DF874
:101FD800047B704780B483B000AF78600B46FB7019
:101FE8007B68FA7883F87D2400BF0C37BD465DF81E
:101FF800047B704780B483B000AF78607B6893F847
:102008007D3418460C37BD465DF8047B704780B4B4
:1020180083B000AF78600B46FB707B68FA7883F872
:102028007E2400BF0C37BD465DF8047B704780B442
:1020380083B000AF78607B6893F87E3418460C371D
:10204800BD465DF8047B704790B599B016AF7860CF
:10205800786800F031FF786800F032F87B6893F810
:102068007F34012B23D1144C6846231D5422194672
:1020780019F0ECF8236880224021104807F0CEFDC3
:10208800012008F019F8032007F05DFF202007F071
:102098006FFF7B6803F5A063D3E90023012007F0F5
:1020A800E9FE07F0BFFF07F08FFF07F095FE00BFBE
:1020B8000C37BD4690BD00BFA82D0020000402408B
:1020C80080B582B000AF7860254B264A1A60244B51
:1020D8004FF482725A60224B00229A60204B0022F1
:1020E800DA601F4B00225A611D4B4FF400729A614F
:1020F8001B4B00225A621A4B00229A62184B0A2282
:10210800DA627B6893F87F34012B09D1144B0022E3
:102118001A61134B1822DA61114B00221A620DE082
:102128007B6893F87F34022B08D10D4B02221A6189
:102138000B4B2822DA610A4B80221A6208480DF0FC
:1021480015FF0346002B14BF01230023DBB2002B2D
:1021580001D009F043FD00BF0837BD4680BD00BF70
:10216800A82D00200030014080B483B000AF786013
:102178000B46FB707B68D3F88024FB78013B012178
:1021880001FA03F31A437B68C3F8802400BF0C37B5
:10219800BD465DF8047B704780B483B000AF7860BB
:1021A8000B46FB707B68D3F88024FB78013B012148
:1021B80001FA03F3DB431A407B68C3F8802400BFAD
:1021C8000C37BD465DF8047B70470000B0B586B09B
:1021D80000AFF860084611461A4603467B810B4655
:1021E8003B811346FB800023FB75FB7D082B08D839
:1021F800FB7D1946F868FFF7CFFFFB7D0133FB75C0
:10220800F3E7FB6893F87E34032B00F2CF8001A23A
:1022180052F823F0B52300082D22000853220008A5
:10222800112300083A89FB889A4204D90121F868E9
:10223800FFF79AFFB5E03A893B8D9A4280F0B1806A
:102248000221F868FFF790FFABE07A89BB8D9A42CC
:1022580011D23A89FB889A4203D90121F868FFF71D
:1022680083FF3A893B8D9A4280F09D800221F8686D
:10227800FFF77AFF97E07A893B8E9A428CBF012359
:102288000023DAB27989BB8E994234BF0123002337
:10229800DBB21340DBB2002B10D03A89FB889A429C
:1022A80003D90521F868FFF75FFF3A893B8D9A4209
:1022B80079D20621F868FFF757FF74E07A89BB8E58
:1022C8009A4210D93A89FB889A4203D90721F868BB
:1022D800FFF74AFF3A893B8D9A4264D20821F86891
:1022E800FFF742FF5FE03A89FB889A4203D903214E
:1022F800F868FFF739FF3A893B8D9A4253D2042197
:10230800F868FFF731FF4EE07A89BB8D9A4210D208
:102318003A89FB889A4203D90121F868FFF724FF1C
:102328003A893B8D9A4240D20221F868FFF71CFF98
:102338003BE07A893B8E9A4222D93A89FB889A42B5
:1023480003D90521F868FFF70FFF3A893B8D9A42B8
:102358002BD24FF48061A0480CF00AF80346012BF9
:102368000CBF01230023DBB2002B04D00721F8683F
:10237800FFF7FAFE19E00621F868FFF7F5FE14E00A
:102388003A89FB889A4203D90321F868FFF7ECFEE3
:102398003A893B8D9A4208D20421F868FFF7E4FE97
:1023A80003E000BF02E000BF00E000BFFB6893F855
:1023B8007D34022B40F0BB800023BB75BB7D032B13
:1023C80000F20C81BA7DFB6802F5967253F8220080
:1023D800BA7DFB6802F5157233F8123000221946EF
:1023E8000BF0DEFF00237B757B7D042B00F28B80D6
:1023F8007B7DFA6803F592739B00134458687A7DD5
:10240800FB6802F5117233F8123019460BF0B0FF71
:102418000346002B0CBF01230023DBB2002B37D06F
:10242800B97D787DBA7D7C7DFD6813469B00134499
:102438002B44234403F264431B78A3F10902FC688C
:102448000B469B000B442344034403F2644318786F
:10245800F96813469B0013449B000B44043302465F
:102468001A70BA7D797DF86813469B0013440344BB
:102478000B4403F264431B78A3F10902F96813467D
:102488009B0013449B000B44143301221A7036E05E
:10249800B97D787DBA7D7C7DFD6813469B00134429
:1024A8002B44234403F264431B78A3F10902FC681C
:1024B8000B469B000B442344034403F264431878FF
:1024C800F96813469B0013449B000B4404330246EF
:1024D8001A70BA7D797DF86813469B00134403444B
:1024E8000B4403F264431B78A3F10902F96813460D
:1024F8009B0013449B000B44143300221A707B7D0D
:1025080001337B7570E7BA7DFB6802F5967253F864
:102518002200BA7DFB6802F5157233F812300122E9
:1025280019460BF03DFFBB7D0133BB7546E7FB68E1
:1025380093F87D34012B51D100233B753B7D082B4B
:102548004CD83B7DFA6803F59A739B00134458688E
:102558003A7DFB6802F5187233F8123019460BF011
:1025680007FF0346002B0CBF01230023DBB2002B1F
:1025780017D03A7D3B7D0933D8B2F96813469B00E2
:1025880013449B000B44043302461A703A7DF968E1
:1025980013469B0013449B000B44143301221A700A
:1025A80016E03A7D3B7D0933D8B2F96813469B00A3
:1025B80013449B000B44043302461A703A7DF968B1
:1025C80013469B0013449B000B44143300221A70DB
:1025D8003B7D01333B75B1E700040240FB6893F88B
:1025E8007F34012B02D1F86800F025FA0023FB7430
:1025F800FB7C172B00F20D8209F0C4FFFA7CF96806
:1026080013469B0013449B000B4408331B68C11AF4
:10261800FA7CF86813469B0013449B0003440C3370
:102628001B7899422CBF01230023DBB2002B00F05A
:10263800EC81FC7C09F0A6FF0146FA6823469B0062
:1026480023449B00134408331960FA7CF968134645
:102658009B0013449B000B4405331B78022B00F0AE
:10266800D580022B00F2D081002B02D0012B28D07C
:10267800CAE1FA7CF96813469B0013449B000B449B
:1026880014331B78012B0DD1FA7CF96813469B0093
:1026980013449B000B4404331B781946F868FFF772
:1026A80063FD0DE0FA7CF96813469B0013449B0018
:1026B8000B4404331B781946F868FFF76DFD00BF1B
:1026C800A3E1FA7CF96813469B0013449B000B4472
:1026D80014331B78012B6AD1FA7CF96813469B00E6
:1026E80013449B000B4414331978FA7CF86813469A
:1026F8009B0013449B00034415331B7899420DD06B
:10270800FA7CF96813469B0013449B000B4404337E
:102718001B781946F868FFF727FD0CE0FA7CF96882
:1027280013469B0013449B000B4404331B78194643
:10273800F868FFF731FD09F025FFFA7CF9681346C0
:102748009B0013449B000B4410331B68C11AFA7C8E
:10275800F86813469B0013449B0003440E331B8800
:1027680099422CBF01230023DBB2002B4CD0FC7C08
:1027780009F008FF0146FA6823469B0023449B00A2
:10278800134410331960F97CFA7CF8680B469B00F7
:102798000B449B00034414331878F96813469B00D4
:1027A80013449B000B44153302461A702CE0FA7C44
:1027B800F96813469B0013449B000B4404331B78B1
:1027C8001946F868FFF7E8FCFC7C09F0DBFE0146D7
:1027D800FA6823469B0023449B0013441033196076
:1027E800F97CFA7CF8680B469B000B449B00034479
:1027F80014331878F96813469B0013449B000B4464
:10280800153302461A7000E000BFFEE0FA7CF96852
:1028180013469B0013449B000B4414331B78012B75
:1028280077D1FA7CF96813469B0013449B000B444C
:1028380014331978FA7CF86813469B0013449B00FC
:10284800034415331B7899420DD0FA7CF968134676
:102858009B0013449B000B4404331B781946F8680B
:10286800FFF782FC18E0FC7C09F08CFE0146FA6850
:1028780023469B0023449B00134410331960FA7CC1
:10288800F96813469B0013449B000B4404331B78E0
:102898001946F868FFF780FC09F074FEFA7CF968BD
:1028A80013469B0013449B000B4410331B68C11A4A
:1028B800FA7CF86813469B0013449B0003440E33CC
:1028C8001B8899422CBF01230023DBB2002B00F0A8
:1028D8009780FC7C09F056FE0146FA6823469B0067
:1028E80023449B00134410331960F97CFA7CF86880
:1028F8000B469B000B449B00034414331878F9687B
:1029080013469B0013449B000B44153302461A7070
:1029180076E0FA7CF96813469B0013449B000B444D
:1029280014331978FA7CF86813469B0013449B000B
:10293800034415331B7899420DD0FA7CF968134685
:102948009B0013449B000B4404331B781946F8681A
:10295800FFF70AFC18E0FC7C09F014FE0146FA684F
:1029680023469B0023449B00134410331960FA7CD0
:10297800F96813469B0013449B000B4404331B78EF
:102988001946F868FFF708FC09F0FCFDFA7CF968BD
:1029980013469B0013449B000B4410331B68C11A59
:1029A800FA7CF86813469B0013449B0003440E33DB
:1029B8001B8899422CBF01230023DBB2002B21D0B6
:1029C800FC7C09F0DFFD0146FA6823469B0023449E
:1029D8009B00134410331960F97CFA7CF8680B46A5
:1029E8009B000B449B00034414331878F968134682
:1029F8009B0013449B000B44153302461A7001E0F8
:102A080000BF02E000BF00E000BFFB7C0133FB74A5
:102A1800EEE500BF1837BD46B0BD00BF80B483B037
:102A280000AF78607B6893F8083518460C37BD46C8
:102A38005DF8047B7047B0B582B000AF78607B6802
:102A480093F8083583F00103DBB2002B32D007F08E
:102A5800E9F90346002B00F074817B6803F22253E6
:102A68002021184607F0E6F97B6893F82235452BB4
:102A780040F067817B6893F823354D2B40F06181E6
:102A88007B6893F82435432B40F05B817B680122F7
:102A980083F844257B68012283F8082509F072FD34
:102AA80003461A464FF00003796801F5A261C1E9AF
:102AB800002346E107F0B6F90346002B00F0208119
:102AC8007B6803F222532021184607F0B3F97B688C
:102AD80093F829257B6883F821257B6893F82835A6
:102AE8001A067B6893F827351B041A437B6893F80A
:102AF80026351B0213437A6892F8252513431A4694
:102B08007B68C3F884247B6893F82B359BB21B023F
:102B18009AB27B6893F82A359BB213449AB27B68C1
:102B2800A3F842257B6893F84435002B00F0DC803D
:102B380009F028FD02467B68D3F81C35D31A0A2B06
:102B48008CBF01230023DBB2002B00F0CD8009F0FD
:102B580019FD02467B68C3F81C257B6893F820257D
:102B68007B6883F846257B6893F820352133DAB2F1
:102B78007B6883F847257B6893F8203519467A687F
:102B88000B469B000B449B00134403F5F6731A781D
:102B98007B6883F848257B6893F8203519467A685E
:102BA8000B469B000B449B00134403F2E5131A7871
:102BB8007B6883F849257B6893F8203519467A683D
:102BC8000B469B000B449B00134403F5F7731B88CB
:102BD800DAB27B6883F84A257B6893F82035194672
:102BE8007A680B469B000B449B00134403F5F7736C
:102BF8001B881B12DAB27B6883F84B257B6803F2CB
:102C0800455320221946012007F051FB7B6893F8B1
:102C180020350133DAB27B6883F820257B6893F886
:102C280020351F2B60D17B6893F820257B6883F8BB
:102C380046257B6893F820352133DAB27B6883F820
:102C480047257B6893F8203519467A680B469B0020
:102C58000B449B00134403F5F6731A787B6883F8DA
:102C680048257B6893F8203519467A680B469B00FF
:102C78000B449B00134403F2E5131A787B6883F82E
:102C880049257B6893F8203519467A680B469B00DE
:102C98000B449B00134403F5F7731B88DAB27B6877
:102CA80083F84A257B6893F8203519467A680B46DD
:102CB8009B000B449B00134403F5F7731B881B12FE
:102CC800DAB27B6883F84B257B6803F245532022F0
:102CD8001946012007F0EBFA7B68002283F82025CB
:102CE8007B68002283F8442509F04CFC03461A4609
:102CF8004FF00003796801F5A261C1E9002320E0E3
:102D080009F040FC034618464FF000017B6803F5C4
:102D1800A263D3E90023841A61EB03057B68B3F847
:102D280018359AB24FF00003AB4208BFA24234BF35
:102D380001230023DBB2002B03D07B68002283F839
:102D480008257B6893F80835002B07D17B68FF229C
:102D580083F821257B680022C3F8842400BF083744
:102D6800BD46B0BD80B483B000AF78607B68B3F86F
:102D7800423518460C37BD465DF8047B704780B471
:102D880085B000AF786039603B68DB78FB73FA7B0D
:102D98003B681879796813469B0013449B000B44E1
:102DA800043302461A70FA7B3B68587979681346EF
:102DB8009B0013449B000B440C3302461A703B687B
:102DC8000633FA7B1878796813469B0013449B00F6
:102DD8000B44053302461A703B6807331B789BB2D5
:102DE8001B0299B23B6808331B789BB2FA7B0B44F1
:102DF80098B2796813469B0013449B000B440E332A
:102E080002461A8000BF1437BD465DF8047B704740
:102E180080B485B000AF786039603B68DB78FB73BD
:102E2800FA7B3B681879796813469B0013449B002A
:102E38000B4403F5F27302461A70FA7B3B68587923
:102E4800796813469B0013449B000B4403F5F67303
:102E580002461A703B680633FA7B1878796813467D
:102E68009B0013449B000B4403F2E51302461A70BF
:102E78003B6807331B789BB21B0299B23B68083347
:102E88001B789BB2FA7B0B4498B2796813469B0077
:102E980013449B000B4403F5F77302461A80FB7B2F
:102EA8001F2B03D17B68012283F8442500BF143708
:102EB800BD465DF8047B704780B588B000AF786088
:102EC8004FF480712F480BF06FF94FF400712D48C3
:102ED8000BF06AF94FF480412B480BF065F94FF479
:102EE800004129480BF060F907F10C0300221A6031
:102EF8005A609A60DA601A617B6893F87D34012B16
:102F080002D0022B1BD039E04FF44073FB60002342
:102F18003B6101237B6107F10C03194619480AF04C
:102F2800BFFF4FF44043FB6000233B6101237B61FB
:102F380007F10C03194614480AF0B2FF1EE04FF4DB
:102F48004073FB6001233B6102237B610223BB6169
:102F580007F10C0319460B480AF0A2FF4FF440434F
:102F6800FB6001233B6102237B610223BB6107F104
:102F78000C03194604480AF093FF00BF00BF20372E
:102F8800BD4680BD000402400008024080B483B002
:102F980000AF78607B68002BB8BF5B4218460C37DF
:102FA800BD465DF8047B704780B483B000AF78609D
:102FB8007B6800221A607B6800225A607B680022C6
:102FC8009A607B680022DA607B6818460C37BD4639
:102FD8005DF8047B704780B582B000AF78607B688D
:102FE8001846FFF7E1FF7B6810331846FFF7DCFF50
:102FF8007B6818460837BD4680BD80B483B000AFF3
:1030080078607B6803221A707B6800225A7000225D
:103018009A700022DA7000221A717B6800225A71B5
:1030280000229A710022DA7100221A727B6800224B
:103038005A7200229A727B680022DA7200221A738E
:103048007B6800225A7300229A737B680022DA7325
:1030580000221A747B6800225A7400229A747B68D2
:103068000022DA7400221A757B6800225A757B6880
:1030780018460C37BD465DF8047B704780B582B0B2
:1030880000AF7860A94A7B681A607B6804331846E9
:1030980003F0B0FC7B6824331846FDF719FF7B6802
:1030A80003F5FC73184607F04FF97B6803F50C73BA
:1030B800184603F05BFE7B6803F63453184608F0A5
:1030C80000F87B6803F65853184607F0FAFF7B6848
:1030D8004FF46172A3F87C2D7B68B3F87C2D7B6874
:1030E800A3F87E2D7B68002283F8882E7B6803F581
:1030F80082530C3300221A607B6803F58253103325
:103108001846FFF768FF7B6803F5835310330022E6
:103118001A607B6803F58353143300221A607B68B6
:1031280003F583531833CD221A707B6803F5835354
:103138001933CC221A707B6803F583531A334FF482
:10314800FA621A807B6803F583531C334FF0000240
:103158001A607B6803F5845300221A707B6803F5B4
:103168008453013380221A707B6803F58453023339
:103178007F221A707B6803F58453043300221A8077
:103188007B6803F5845308334FF000021A607B68AC
:1031980003F584530C3300221A707B6803F58453BB
:1031A8001033634A1A607B6803F584531433614A09
:1031B8001A607B6803F5845318335F4A1A607B688A
:1031C80003F584531C3342F210721A607B6803F5CE
:1031D80085537F221A707B6803F5855204327B6819
:1031E80003F58453103393ED007A7B6803F5845319
:1031F8001833D3ED007AC7EE276A7B6803F584534A
:103208001433D3ED007A9FED4D1AF0EE670AB0EE55
:10321800660A0021104605F033FC7B6803F58653E7
:10322800103300221A707B6803F58653113301228C
:103238001A707B6803F5865318331846FEF7B8FDF5
:103248007B6803F5B25301221A707B6803F5B25309
:10325800013300221A707B6803F5B2530233184613
:10326800FFF7CBFE7B6803F5B253183300221A70C0
:103278007B6803F5B2531C3300221A607B6803F5A0
:10328800B35300221A707B6803F5B353013300224D
:103298001A707B6803F5B353023300221A707B68F7
:1032A80003F5B3530D3301221A707B6803F5B3534A
:1032B8000E3301221A707B6803F5B3530F330022D3
:1032C8001A707B6803F5B353103300221A707B68B9
:1032D80003F5B353113300221A707B6803F5B35317
:1032E800143300221A607B6803F5B3531C330122A0
:1032F8001A707B6803F5B3531D3300221A707B687C
:1033080003F5B3531E3308221A707B6803F5B353D1
:103318001F3300221A707B6803F5B45300221A7019
:103328007B6818460837BD4680BD00BF30BE01081F
:103338000000C841CDCC4C3E0000FA43000000001C
:1033480080B582B000AF7860154A7B681A607B68E8
:1033580003F5865318331846FEF7F4FD7B6803F52A
:1033680085530433184605F0A7FB7B6803F50C73F7
:10337800184603F097FD7B6803F5FC73184607F0C1
:1033880031F87B6824331846FDF7F8FD7B68043371
:10339800184603F055FB7B6818460837BD4680BDC4
:1033A80030BE010880B582B000AF78607868FFF75A
:1033B800C7FF41F28861786815F024F97B681846E0
:1033C8000837BD4680BD000080B588B002AF786080
:1033D8005C49052007F046FD7B6803F604617B68BD
:1033E80003F66C73012201923822009242220020D7
:1033F80007F0DCFD7B680433184603F041FB7B686B
:103408000433184603F04CFB7B6824331846FDF759
:10341800D6FD7B6803F5FC73184607F017F87B6840
:1034280003F5865318331846FEF70EFE464B8022E6
:103438001A707B68B3F8063EDAB27B6803F5B353BB
:103448001F331A707B6803F5B3531F331B78012BA6
:1034580040F021837B681A1D7B68B3F8083E194643
:10346800104603F049FB7B681A1D7B68B3F80A3ED7
:10347800DBB2002B14BF01230023DBB21946104630
:1034880003F054FB7B680433184603F043FB034600
:10349800002B11D07B681A1D7B68B3F80C3E1946C7
:1034A800104603F05EFB7B681A1D7B68B3F80E3E7E
:1034B8001946104603F070FB0023BB827B68B3F803
:1034C800103EBB827B6803F5FC73BA8AD2B2114600
:1034D800184606F0FCFF7B6803F5FC72BB8A1B12DA
:1034E800DBB21946104607F0EBF900237B827B68B4
:1034F800B3F8123E7B827B6803F5FC737A8AD2B2FA
:103508001146184607F0EAFA7B6803F5FC7318467B
:1035180007F0F4FA0346022B0CBF01230023DBB2A9
:10352800002B13D07B6803F5FC727B8A1B12DBB27D
:1035380007EE903AF8EE677AB0EE670A104607F0A1
:10354800EAFA03E0008003083C06002000233B82DF
:103558007B68B3F8143E3B827B6803F5FC733A8AB8
:10356800D2B21146184607F071F97B6803F5FC7270
:103578003B8A1B12DBB21946104607F084F97B68B8
:103588001B6808331B687A68B2F8162E11467868EB
:1035980098477B6803F50C727B68B3F8183E1946A8
:1035A800104604F056FA0023FB817B68B3F81A3EF4
:1035B800FB81FB89DBB21946786800F011FCFB89B6
:1035C8001B12DAB27B6803F5845301331A700023A7
:1035D800BB817B68B3F81C3EBB81BB89DBB2194653
:1035E800786800F025FBBB891B12DBB219467868A6
:1035F80000F064FB7B68B3F81E2E7B68A3F87E2D71
:103608007B68B3F8203EDAB27B6883F8882E7B6843
:1036180093F8883E03F00103002B14BF0123002315
:10362800DAB27B6803F584531A707B6803F12402CD
:103638007B6893F8883E03F00203002B14BF012334
:103648000023DBB219461046FDF7E0FD7B6803F165
:1036580024027B6893F8883E03F00403002B14BF10
:1036680001230023DBB219461046FDF7C0FE7B6834
:1036780003F124027B6893F8883E03F00803002BCB
:1036880014BF01230023DBB219461046FDF79FFF44
:103698007B6803F124027B6893F8883E03F01003EB
:1036A800002B14BF01230023DBB219461046FEF796
:1036B80084F87B68B3F8222E7B689A857B68B3F818
:1036C800242E7B68DA857B68B3F8262E7B689A8778
:1036D8007B68B3F8282E7B68DA877B68B3F82A2ED4
:1036E8007B681A867B68B3F82C2E7B685A867B68C1
:1036F800B3F82E2E7B689A867B68B3F8302E7B68E9
:10370800DA867B68B3F8322E7B681A877B68B3F851
:10371800342E7B685A877B68B3F8362E7B68A3F80B
:1037280040207B68B3F8382E7B68A3F842207B687A
:10373800B3F83A2E7B68A3F850207B68B3F83C2E88
:103748007B68A3F852207B68B3F83E2E7B68A3F809
:1037580044207B68B3F8402E7B68A3F846207B683A
:10376800B3F8422E7B68A3F848207B68B3F8442E50
:103778007B68A3F84A207B68B3F8462E7B68A3F8D9
:103788004C207B68B3F8482E7B68A3F84E207B68F2
:10379800B3F84A2E7B68A3F854207B68B3F84C2E04
:1037A8007B68A3F856207B68B3F84E2E7B68A3F895
:1037B80064207B68B3F8502E7B68A3F866207B688A
:1037C800B3F8522E7B68A3F858207B68B3F8542EC0
:1037D8007B68A3F85A207B68B3F8562E7B68A3F859
:1037E8005C207B68B3F8582E7B68A3F85E207B6862
:1037F800B3F85A2E7B68A3F860207B68B3F85C2E78
:103808007B68A3F862207B68B3F85E2E7B68A3F818
:1038180068207B68B3F8602E7B68A3F86A200023D1
:103828007B817B68B3F8623E7B817B6803F58653B6
:1038380018337A89D2B211461846FEF7E8FB7B683E
:1038480003F5865318337A891212D2B211461846F4
:10385800FEF7C0FB7B6803F5865318331846FFF75D
:103868002BFB7B68B3F8642E7B68A3F872207B6817
:10387800B3F8662E7B68A3F870207B68B3F8682ECF
:103888007B68A3F87A207B68B3F86A2E7B68A3F874
:103898007C207B68B3F86C2E7B68A3F86E207B686D
:1038A800B3F86E2E7B68A3F86C207B68B3F8702E93
:1038B8007B68A3F874207B68B3F8722E7B68A3F842
:1038C80078207B68B3F8742E7B68A3F876207B6831
:1038D80003F50C727B68B3F8763EDBB219461046E6
:1038E80004F0D4F87B6803F50C727B68B3F8783E73
:1038F800DBB21946104604F003F97B6803F50C7235
:103908007B68B3F87A3EDBB21946104604F0DBF860
:103918007B6803F50C727B68B3F87C3EDBB2194612
:10392800104604F00AF97B6803F50C727B68B3F85B
:10393800803EDBB21946104604F06EF87B6803F54A
:103948000C727B68B3F8823EDBB21946104604F06D
:1039580011F97B6803F50C707B68B3F8843E19464F
:103968007B68B3F8863EDBB21A4603F083FE002379
:10397800FB75FB7D172B41D8FB7D7A6803F2DA33A0
:103988009B0013445B681B0EFA7DD8B27968134616
:103998009B0013449B000B4403F586531D330246DA
:1039A8001A70FB7D7A6803F2DA339B0013445B6874
:1039B8001B0CFA7DD8B2796813469B0013449B0010
:1039C8000B4403F58753043302461A70FB7D7A686B
:1039D80003F2DA339B0013445B68FA7D98B2796886
:1039E80013469B0013449B000B4403F5875306338F
:1039F80002461A80FB7D0133FB75BAE71823BB75B5
:103A0800BB7D372B47D8BB7D7A6803F2DA339B003E
:103A180013445B68190EBB7DA3F11802C8B279681C
:103A280013469B0013449B000B4403F595531D3329
:103A380002461A70BB7D7A6803F2DA339B0013449E
:103A48005B68190CBB7DA3F11802C8B279681346EC
:103A58009B0013449B000B4403F596530433024622
:103A68001A70BB7D7A6803F2DA339B0013445968F5
:103A7800BB7DA3F1180288B2796813469B001344F2
:103A88009B000B4403F59653063302461A80BB7D10
:103A98000133BB75B4E77B6803F65853044A4FF407
:103AA8000051184607F01FFB00BF1837BD4680BD00
:103AB8000008024080B582B000AF78607B6803F5EB
:103AC800B3530D331B78002B02D0786800F047F809
:103AD8007B6803F5B353103301221A7000BF08370F
:103AE800BD4680BD80B582B000AF78607B6803F5C5
:103AF800B3530D331B78002B2DD17B6803F5B353DB
:103B08000D3301221A707B6803F50C73184603F015
:103B180049FC7B6803F50C73184603F09CFC7B6832
:103B280003F5FC73184606F006FD0346002B14BF88
:103B380001230023DBB2002B0ED07B6803F5FC7356
:103B48000021184606F036FD7B6803F5FC7318461D
:103B580006F0AEFC00E000BF0837BD4680BD80B56A
:103B680082B000AF78607B6803F5B3530D33002251
:103B78001A707B6803F5FC73184606F0DCFC0346F4
:103B8800002B14BF01230023DBB2002B05D07B6878
:103B980003F5FC73184606F07EFC00BF0837BD46E7
:103BA80080BD000080B582B000AF78607B6803F507
:103BB800825318331B6847F6FF720449184602F00F
:103BC80099FE034618460837BD4680BD0180FFFFB1
:103BD80080B582B000AF78607B6803F582531833F4
:103BE8001B685B4207EE903AB8EEE77A7B6803F50C
:103BF80084530833D3ED007A67EE277AFDEEE77A2F
:103C08007B6803F584530433B3F9003059427B6869
:103C180003F584530433B3F900301A4617EE900ABB
:103C280002F081FE034618460837BD4680BD0000F5
:103C380080B582B000AF78600B46FB707B6803F5F7
:103C480084530233FA781A70FB78002B06D17B680C
:103C580003F584530C3300221A7005E07B6803F5E2
:103C680084530C3301221A70FB78322202FB03F3CF
:103C780042F210720021184602F055FE03461AB2AD
:103C88007B6803F5845304331A80FB7807EE903A77
:103C9800F8EE677A9FED087A67EE877AB6EE007AD3
:103CA80077EE877A7B6803F584530833C3ED007A8F
:103CB80000BF0837BD4680BD0AD7233C80B582B017
:103CC80000AF78600B46FB707B6803F585531B7863
:103CD800002B06D17B6803F585530433184604F09E
:103CE800B3FF7B6803F58553FA781A7000BF08376D
:103CF800BD4680BD80B584B000AF78600B46FB70D0
:103D08007B6803F58353143300221A60FB7883F031
:103D18000103DBB2002B0ED07868FFF759FF02468B
:103D28007B6803F5835314331B681A447B6803F5D7
:103D3800835314331A607B6803F585531B78002B73
:103D48004AD07B6803F5855204327B6803F58253B9
:103D580014331B6807EE903AF8EEE77AB0EE670A7C
:103D6800104604F0E1FEB0EE407A7B6803F5855317
:103D78001B7807EE903AF8EE677A67EE277AB7EE87
:103D8800087A67EE877AC7ED037A7B6803F5845370
:103D98001C331B685A427B6803F584531C331B6829
:103DA8001946104697ED030A02F0D6FDB0EE407AA8
:103DB8007B6803F5835314331B6807EE903AF8EEDB
:103DC800E77A77EEC77AFDEEE77A17EE902A7B68F6
:103DD80003F5835314331A6000BF1037BD4680BD06
:103DE80080B582B000AF78600B46FB707B6803F546
:103DF80083531833FA781A70786800F06DF800BFAA
:103E08000837BD4680BD80B483B000AF78603960A4
:103E18007B6803F5825318333A681A607B6803F5A8
:103E2800825318331A687B6803F5835308331B6879
:103E3800D21A7B6803F5825314331A607B6803F542
:103E4800825314331A687B6803F5835304331B6861
:103E5800D21A7B6803F5825310331A607B6803F526
:103E6800825318331A687B6803F5835308331A6042
:103E78007B6803F5825314331A687B6803F5835310
:103E880004331A607B6803F582531C331A687B6815
:103E980003F583530C331A607B6803F582531C3394
:103EA80000221A6000BF0C37BD465DF8047B7047DE
:103EB80080B582B000AF78600B467B807B6803F5E5
:103EC80083531A337A881A80786800F005F800BF9F
:103ED8000837BD4680BD000080B485B000AF78606B
:103EE8007B6803F5835318331B7807EE903AB8EED6
:103EF800677ADFED116AC7EE267AC7ED037A7B6829
:103F080003F583531A331B8807EE903AF8EE677A65
:103F1800DFED0A6A87EEA67AD7ED037A67EE277A8D
:103F28007B6803F583531C33C3ED007A00BF143755
:103F3800BD465DF8047B704700007F4300FEFF46E6
:103F480080B584B000AF78607B6803F5825318337E
:103F58001B6847F6FF722949184602F031FD0346EF
:103F6800FB7397F90F30002B06D07B6803F5865357
:103F780010331B78002B01D100233AE07B6803F54E
:103F8800825318331B681846FFF700F80346A3F559
:103F9800FF437F3B47F6FF721849184602F0C3FCFF
:103FA800B860BB6807EE903AB8EEE77A7B6803F52D
:103FB800845301331B7807EE903AF8EE677ADFED09
:103FC800106A67EEA67A67EE277AFDEEE77A17EEB3
:103FD800903ABB6097F90F305A42BB6802FB03F373
:103FE800BB6047F6FF720549B86802F09CFC0346BF
:103FF8001BB218461037BD4680BD00BF0180FFFFC9
:104008009A99193E80B483B000AF786039607B68B4
:1040180003F5835310333A681A6000BF0C37BD4666
:104028005DF8047B704790B585B000AF7860396063
:104038007B6803F5835310331B681846FEF7A6FF09
:10404800034647F6FE729342CCBF01230023DBB23E
:10405800002B05D07B6803F65853184607F0ACF8D8
:104068007B6803F5835310331B6807EE903AB8EE6C
:10407800E77A7B6803F583531C33D3ED007A67EE48
:10408800277AFDEEE77A17EE902A7B6803F58353CB
:1040980010331A607B6803F5835310331C68786803
:1040A800FFF74EFF03462344FB60FB6807EE903A98
:1040B800B8EEE77A7B6803F5835314331B6807EE81
:1040C800903AF8EEE76A7B6803F583531C33D3ED27
:1040D800007A66EEA77A77EE277AFDEEE77A17EE92
:1040E800903AFB607B6803F584531B78002B02D061
:1040F800FB685B4200E0FB68FB607B6803F582536A
:104108001C33FA681A607B6803F583531A331B88DB
:1041180059427B6803F583531A331B881A46F8689B
:1041280002F001FCF8607B6803F583530C331B68CD
:10413800FA689A4214BF01230023FB72F868FEF75D
:1041480025FF02467B6803F583531A331B889A427E
:104158000CBF01230023DBB2002B05D07B6803F6DC
:104168005853184607F028F83B68FA681A60FB7A33
:1041780018461437BD4690BD80B584B000AF78604E
:1041880007F1080319467868FFF74DFF0346FB73EC
:10419800FB7B002B0AD07B6803F5FC73184606F0FE
:1041A800CAF90346002B01D0012300E00023002BAD
:1041B80008D07B6803F5FC73BA6812B2114618463A
:1041C80006F0F8F900BF1037BD4680BD2DE9F0476D
:1041D80088B004AF786008F0D5F902467B6803F52B
:1041E800B35314331B689A420BD07B6803F5B3535F
:1041F8000D331B7883F00103DBB2002B01D00123C0
:1042080000E00023002B0DD008F0BCF902467B68C3
:1042180003F5B35314331A607B6803F5B3531033B3
:1042280001221A707B6803F5B35310331B78002BF7
:1042380007D17B6803F5B35311331B78002B00F0CB
:104248006481786800F0B8F97B6803F5B3531133DB
:1042580000221A707B6803F5B35310331B78002BC8
:1042680000F050817B6803F5B353103300221A70B5
:104278007B6803F5865310331B78022B00F0B2805D
:10428800022B00F2E180002B03D0012B00F0B48058
:10429800DAE07B680433184602F03CFC0346002B46
:1042A80000F087807B68B3F87E3D1946786800F097
:1042B800EFF902467B6803F5B2531C331A607B683A
:1042C80003F5865311331B78022B3BD0022B00F2E7
:1042D800BA80002B1CD0012B40F0B5807B680433DA
:1042E800184602F032FC034619467868FFF78AFE42
:1042F8007B6803F5B2531C331B6847F6FE72934282
:104308006ADD7B6803F58653113300221A7063E077
:104318007B680433184602F018FC03465B421946D2
:104328007868FFF76FFE7B6803F5B2531C331B6890
:104338009E4A934252DA7B6803F586531133022270
:104348001A704BE042F21072002141F66A0002F046
:10435800EAFA0346FB81964BBB607868FFF722FCBC
:1043680003465B4207EE903AB8EEE77AD7ED027A59
:1043780067EE277AFDEEE77AB7F90E305B42B7F9B8
:104388000E20194617EE900A02F0CDFA0346194698
:104398007868FFF737FE7B6803F5B2531C331B6858
:1043A800002B1DD17B6803F58653103302221A7047
:1043B80016E07B6804330021184602F034FC7B6861
:1043C80004330021184602F0E7FB7B6803F58653A7
:1043D800103302221A7036E000BF34E000BF32E02A
:1043E80000BF30E0734B8B229A717B6803F58653CC
:1043F800103301221A7027E07B6803F50C73184606
:1044080002F0DEFF034619467868FFF773FC7B6805
:1044180003F50C707B6803F58253183319687B68C1
:1044280003F5825314331A687B6803F582531033FB
:104438001B680124009403F0CBFB034619467868F7
:10444800FFF7E0FD00E000BF7B6803F5B2530133DE
:104458001B780133DAB27B6803F5B25301331A7063
:104468007B6803F5B25301331A787B6803F5B253BE
:104478001B789A422CBF01230023DBB2002B41D0CA
:104488007B6803F5B253013300221A70786800F094
:10449800B3F97B6803F5B35301331B78DBB2002B08
:1044A80006D07B681B6814331B687868984729E036
:1044B8007B6803F5B35302331B78DBB2002B06D0BD
:1044C8007B681B681C331B68786898471AE07B6810
:1044D80003F5B3531B78DBB2002B06D07B681B684F
:1044E8000C331B68786898470CE07B6803F5B45375
:1044F8001B78DBB2002B05D07B681B6820331B6858
:10450800786898477868FFF737FE7B6803F5865424
:1045180018347B6824331846FDF70DFA034698468D
:104528007B6824331846FDF77EFA034699467B6874
:1045380024331846FCF7FBFD03469A467B68243370
:104548001846FCF701FE03461D467B6824331846CF
:10455800FCF721FE03461E467B6824331846FCF709
:104568000DFE03463B607B6824331846FCF7F9FDD3
:10457800034603933B6802930196009553464A46C7
:1045880041462046FDF722FE7B6803F63453184661
:1045980006F0BDFD7B6803F65853184606F0B7FDD4
:1045A80000BF1037BD46BDE8F08700BF0280FFFF9F
:1045B8000000E03F3C06002080B584B000AF786082
:1045C8007B68B3F87E2D7B68B3F87C3D9A4211D0A6
:1045D8007B68B3F87E3D1946786800F059F80346C1
:1045E8001846FEF7D3FC034647F6FE72934201DCF9
:1045F800012300E00023002B05D07B68B3F87E2D53
:104608007B68A3F87C2D7B68B3F87C3D19467868F5
:1046180000F03EF8F860F868FEF7B8FC03464FF67D
:10462800FF729342CCBF01230023DBB2002B0CD0D6
:104638007B6803F5FC73184605F03AFF7B6803F6C0
:104648003453184606F0D8FD1AE07B6803F5FC736E
:10465800184605F070FF0346002B08D0F868FEF7EF
:1046680095FC0346B3F5004F01DA012300E000236F
:10467800002B05D07B6803F5FC73184605F00BFF8B
:10468800F9687868FFF7BFFB00BF1037BD4680BDEB
:1046980090B52DED028B85B000AF78600B467B801E
:1046A8007B88002B02D147F6FF733DE07B6804331B
:1046B800184602F080FA04467B680433184602F074
:1046C8005FFA0346E31A07EE903AB8EEE78A7B688A
:1046D8000433184602F004FA07EE900AB8EE677A37
:1046E800C8EE077A9FED137A67EE877AC7ED027AEC
:1046F8007B8807EE903AF8EE677ADFED0F6A86EE70
:10470800A77AD7ED027A67EE277AFDEEE77A17EEF9
:10471800903AFB607B6803F584531B78002B02D02A
:10472800FB685B42FB60FB6818461437BD46BDEC6E
:10473800028B90BD0000B44300FF7F4780B582B074
:1047480000AF78600B467B807B88042B4ED17B685A
:104758000433184602F0DEF90346012B09D17B68C1
:104768000433184602F06DFA0346002B01D10123E9
:1047780000E00023002B39D07B6803F5FC73184652
:1047880005F0D9FE0346072B0CBF01230023DBB23B
:10479800002B1FD00421174809F0EAFD0346012B1E
:1047A8000CBF01230023DBB2002B0CD07B68043341
:1047B8000121184602F051FA7B680433002118469B
:1047C80002F00FFA12E07B6804330021184602F069
:1047D80044FA0BE07B6804330121184602F03DFAE5
:1047E8007B6804330021184602F0FBF900BF083744
:1047F800BD4680BD0000024080B584B000AF78603F
:104808007B6803F5865318331846FDF7BCFB024650
:104818007B6803F5B25303331A607B6803F586534C
:1048280018331846FDF7BCFB02467B6803F5B25304
:1048380007331A607868FFF7B5F9034647F6FF7241
:104848003549184602F056F8F860FB6803F5FF434F
:104858007F334FF6FF720021184602F04BF80346EB
:104868009AB27B6803F5B2530B331A807B6803F561
:10487800B2530D334FF0FF321A70002242F07F021C
:104888005A707B6824331846FCF738FE03461A46EC
:104898007B6803F5B2530F331A807B6824331846BC
:1048A800FCF71EFF03461A467B6803F5B253113323
:1048B8001A807B6824331846FCF7B0FF03461A4673
:1048C8007B6803F5B25313331A807B682433184688
:1048D800FCF724FD03461A467B6803F5B2531533EB
:1048E8001A807B6803F5865318331846FDF765FB75
:1048F80003465AB27B6803F5B25317331A707B68C4
:1049080003F5B253023316221946044811F0FCFA93
:1049180000BF1037BD4680BD0180FFFF6C2E002010
:1049280080B582B000AF786039603B68002B10D04A
:104938003B681B78802B03D13B681B78812B0AD0FE
:104948007B6803F50C733968184602F053FB03467D
:1049580001E00023FFE718460837BD4680BD000088
:1049680080B584B000AF78600A4BFB60FB68D3F871
:10497800BC32BB607B6803F50C70B9687B6803F5D3
:10498800B35303331A4602F0D3FA00BF1037BD46BB
:1049980080BD00BF6C2E002080B483B000AF78606B
:1049A8007B6803F5B353083318460C37BD465DF8EA
:1049B800047B704780B483B000AF78607B6803F5F0
:1049C800B353033318460C37BD465DF8047B704774
:1049D80080B483B000AF78600B46FB707B6803F54A
:1049E800B3530833FA781A707B6803F5B353093365
:1049F800002262F05F021A70002242F00A025A7026
:104A08007B6803F5B3530B3328221A707B6803F5D0
:104A1800B3530C3303221A7000BF0C37BD465DF840
:104A2800047B704790B589B002AFF860B960BB6885
:104A38001B78802B41F0AD85BB685B78013B7C2BF4
:104A480001F2868501A252F823F000BF494C000804
:104A58007D4C0008475E00086D5E0008AB5E0008EC
:104A6800CB5E0008195F00084D4F0008854F00080D
:104A7800F34F000813500008BF4C0008DD4C000835
:104A88000D4D00083D4D00086D4D000859650008A2
:104A9800874E0008B74E0008E74E0008174F000879
:104AA800335000085550000877500008855000081A
:104AB8008F500008B3500008D7500008FD50000878
:104AC80023510008495100086F510008955100080A
:104AD800BB510008DD510008FF5100080D520008C5
:104AE8001B5200083F520008635200088952000810
:104AF800AF520008D5520008FB52000821530008A5
:104B08005965000847530008695300088B5300088B
:104B180099530008A3530008C7530008EB53000833
:104B280011540008375400085D54000883540008E5
:104B3800A9540008055500082755000849550008DC
:104B4800575500086555000887550008A9550008FD
:104B5800CB550008ED550008FB550008095600081C
:104B68002D560008515600085F5600086D5600087B
:104B780091560008B5560008D95600080157000894
:104B88001F570008375700085D5700085965000887
:104B980059650008596500085965000859650008F5
:104BA80059650008596500088157000859650008CB
:104BB8005965000893570008A3570008D9570008FB
:104BC800B3570008EF570008055800081B5800089D
:104BD8002D5800084358000859580008596500081E
:104BE800596500086F580008DB5D0008CF540008BD
:104BF800ED5400085965000859650008235E00084F
:104C080059650008596500083F5F0008515F0008B2
:104C18009D4D0008CD4D0008FD4D00082D4E0008A3
:104C2800674E0008635F00089B5F0008596500082D
:104C3800D35F000859650008216400083364000840
:104C4800BF4B01225A70FB6803F5B3531C331A7823
:104C5800BB4B9A70FB6803F5B3531D331A78B84BF6
:104C6800DA70FB6803F5B3531E331A78B44B1A7124
:104C780001F08FBCFB680433184601F031FF014690
:104C8800BB689B781B02BA68D2781344994214BF58
:104C980001230023DBB2002B01F05C84FB68181DA4
:104CA800BB689B781B02BA68D2781344194601F096
:104CB80023FF01F04FBCFB6803F5FC730021184685
:104CC80005F005FCFB6803F5FC73184605F0F0FBDE
:104CD80001F05FBCFB6803F5FC73184605F02BFC7C
:104CE8000346032B14BF01230023DBB2002B01F082
:104CF8003384FB6803F5FC730321184605F0E7FBD2
:104D080001F02ABCFB6803F5FC73184605F013FC98
:104D18000346042B14BF01230023DBB2002B01F050
:104D28001D84FB6803F5FC730421184605F0CFFBCE
:104D380001F014BCFB6803F5FC73184605F0FBFB97
:104D48000346022B14BF01230023DBB2002B01F022
:104D58000784FB6803F5FC730221184605F0B7FBCE
:104D680001F0FEBBFB6803F5FC73184605F0E3FB96
:104D78000346012B14BF01230023DBB2002B01F0F3
:104D8800F183FB6803F5FC730121184605F09FFBCE
:104D980001F0E8BBFB6803F5FC73184605F0CBFB94
:104DA8000346052B14BF01230023DBB2002B01F0BF
:104DB800DB83FB6803F5FC730521184605F087FBC8
:104DC80001F0D2BBFB6803F5FC73184605F0B3FB92
:104DD8000346062B14BF01230023DBB2002B01F08E
:104DE800C583FB6803F5FC730621184605F06FFBC5
:104DF80001F0BCBBFB6803F5FC73184605F09BFB90
:104E08000346072B14BF01230023DBB2002B01F05C
:104E1800AF83FB6803F5FC730721184605F057FBC1
:104E280001F0A6BBFB6803F5FC73184605F066FEA7
:104E380003461A46BB689B789A4214BF0123002395
:104E4800DBB2002B01F09683FB6803F5FC72BB68AC
:104E58009B781946104605F041FE01F08BBBFB68B4
:104E680003F5FC72BB689B7807EE903AF8EE677A18
:104E7800B0EE670A104605F04EFE01F08ABBFB68EB
:104E880003F5FC73184605F089FB0346002B14BF95
:104E980001230023DBB2002B01F06E83FB6803F5CE
:104EA800FC730021184605F00BFD01F065BBFB689B
:104EB80003F5FC73184605F071FB0346012B14BF7C
:104EC80001230023DBB2002B01F05883FB6803F5B4
:104ED800FC730121184605F0F3FC01F04FBBFB6899
:104EE80003F5FC73184605F059FB0346022B14BF63
:104EF80001230023DBB2002B01F04283FB6803F59A
:104F0800FC730221184605F0DBFC01F039BBFB6895
:104F180003F5FC73184605F041FB0346032B14BF49
:104F280001230023DBB2002B01F02C83FB6803F57F
:104F3800FC730321184605F0C3FC01F023BB00BF36
:104F48003C060020FB68B3F87E3D1946BB689B7899
:104F58001B02BA68D2781344994201F01583BB68E2
:104F68009B789BB21B029AB2BB68DB789BB2134456
:104F78009AB2FB68A3F87E2D01F006BBFB680433E8
:104F8800184601F0C7FD0346002B09D0FB6804331F
:104F9800184601F056FE0346002B01D0012300E01D
:104FA8000023002B0DD0FB681C1DFB68043318463A
:104FB80001F001FE03461946204601F0EDFD01F01F
:104FC800E8BAFB6804330021184601F02CFEFB68A0
:104FD80004330021184601F0DFFDFB68043300218B
:104FE800184601F0FEFD01F0D4BAFB6803F58453BE
:104FF80001221A70FB6893F8883E43F00103DAB285
:10500800FB6883F8882E01F0C4BAFB6803F5845363
:1050180000221A70FB6893F8883E23F00103DAB285
:10502800FB6883F8882E01F0B4BAFB6824330121A9
:105038001846FCF7EBF8FB6893F8883E43F0020348
:10504800DAB2FB6883F8882E01F0A3BAFB68243330
:1050580000211846FCF7DAF8FB6893F8883E23F03D
:105068000203DAB2FB6883F8882E01F092BAFB6873
:1050780024331846FCF7D9F801F08BBAFB682433BF
:105088001846FCF7E2F8FB6803F12400BB681B79BB
:105098009BB21B029AB2BB685B799BB213449BB26A
:1050A8001946FCF7E2F801F074BAFB6803F1240032
:1050B800BB681B799BB21B029AB2BB685B799BB237
:1050C80013449BB21946FCF7DFF801F062BAFB689B
:1050D80003F12400BB68DB799BB21B029AB2BB6860
:1050E8001B7A9BB213449BB21A460121FCF7DCF8E9
:1050F80001F04FBAFB6803F12400BB68DB799BB26F
:105108001B029AB2BB681B7A9BB213449BB21A4625
:105118000221FCF7C9F801F03CBAFB6803F124004E
:10512800BB68DB799BB21B029AB2BB681B7A9BB245
:1051380013449BB21A460321FCF7B6F801F029BACA
:10514800FB6803F12400BB68DB799BB21B029AB2AF
:10515800BB681B7A9BB213449BB21A460421FCF726
:10516800A3F801F016BAFB6803F12400BB68DB79E9
:105178009BB21B029AB2BB681B7A9BB213449BB2C8
:105188001A460521FCF790F801F003BAFB6803F111
:105198002400BB68DB799BB21B029AB2BB681B7AFE
:1051A8009BB213449BB21A460621FCF77DF801F026
:1051B800F0B9FB68243301211846FCF718F9FB689D
:1051C80093F8883E43F00403DAB2FB6883F8882E2C
:1051D80001F0DFB9FB68243300211846FCF707F912
:1051E800FB6893F8883E23F00403DAB2FB6883F87F
:1051F800882E01F0CEB9FB6824331846FCF706F96F
:1052080001F0C7B9FB6824331846FCF70FF901F021
:10521800C0B9FB6803F12400BB681B799BB21B0271
:105228009AB2BB685B799BB213449BB21946FCF7F0
:105238000DF901F0AEB9FB6803F12400BB681B79D6
:105248009BB21B029AB2BB685B799BB213449BB2B8
:105258001946FCF70AF901F09CB9FB6803F1240030
:10526800BB68DB799BB21B029AB2BB681B7A9BB204
:1052780013449BB21A460121FCF706F901F089B9DB
:10528800FB6803F12400BB68DB799BB21B029AB26E
:10529800BB681B7A9BB213449BB21A460221FCF7E7
:1052A800F3F801F076B9FB6803F12400BB68DB79F9
:1052B8009BB21B029AB2BB681B7A9BB213449BB287
:1052C8001A460321FCF7E0F801F063B9FB6803F123
:1052D8002400BB68DB799BB21B029AB2BB681B7ABD
:1052E8009BB213449BB21A460421FCF7CDF801F097
:1052F80050B9FB6803F12400BB68DB799BB21B0241
:105308009AB2BB681B7A9BB213449BB21A4605211A
:10531800FCF7BAF801F03DB9FB6803F12400BB685B
:10532800DB799BB21B029AB2BB681B7A9BB213440F
:105338009BB21A460621FCF7A7F801F02AB9FB68C8
:10534800243301211846FCF742F9FB6893F8883E9C
:1053580043F00803DAB2FB6883F8882E01F019B924
:10536800FB68243300211846FCF731F9FB6893F8F1
:10537800883E23F00803DAB2FB6883F8882E01F030
:1053880008B9FB6824331846FCF730F901F001B975
:10539800FB6824331846FCF739F9FB6803F124004D
:1053A800BB681B799BB21B029AB2BB685B799BB244
:1053B80013449BB21946FCF739F901F0EAB8FB68C7
:1053C80003F12400BB681B799BB21B029AB2BB682D
:1053D8005B799BB213449BB21946FCF737F901F08D
:1053E800D8B8FB6803F12400BB68DB799BB21B02C9
:1053F8009AB2BB681B7A9BB213449BB21A4601212E
:10540800FCF734F901F0C5B8FB6803F12400BB6868
:10541800DB799BB21B029AB2BB681B7A9BB213441E
:105428009BB21A460221FCF721F901F0B2B8FB68D9
:1054380003F12400BB68DB799BB21B029AB2BB68FC
:105448001B7A9BB213449BB21A460321FCF70EF950
:1054580001F09FB8FB6803F12400BB68DB799BB2BD
:105468001B029AB2BB681B7A9BB213449BB21A46C2
:105478000421FCF7FBF801F08CB8FB6803F1240069
:10548800BB68DB799BB21B029AB2BB681B7A9BB2E2
:1054980013449BB21A460521FCF7E8F801F079B8E5
:1054A800FB6803F12400BB68DB799BB21B029AB24C
:1054B800BB681B7A9BB213449BB21A460621FCF7C1
:1054C800D5F801F066B8F86801F0F2F9FB681B68D6
:1054D80010331B680121F8689847BC4B03225A70A7
:1054E80001F057B8FB681B6810331B680021F86887
:1054F8009847B64B00225A7001F04BB8FB6824332A
:1055080001211846FCF759F9FB6893F8883E43F0E7
:105518001003DAB2FB6883F8882E01F03AB8FB680A
:10552800243300211846FCF748F9FB6893F8883EB5
:1055380023F01003DAB2FB6883F8882E01F029B84B
:10554800FB6824331846FCF747F901F022B8FB68DA
:1055580024331846FCF751F901F01BB8FB6803F532
:105568008653183300211846FCF751FDFB6803F5F4
:10557800865318331846FDF79FFC01F00AB8FB68FC
:1055880003F58653183301211846FCF740FDFB68E4
:1055980003F5865318331846FDF78EFC00F0F9BF63
:1055A800FB6803F58653183302211846FCF72FFDD4
:1055B800FB6803F5865318331846FDF77DFC00F0A9
:1055C800E8BFFB6803F58653183303211846FCF738
:1055D8001EFDFB6803F5865318331846FDF76CFC6F
:1055E80000F0D7BFFB6824331846FCF7FAF900F03F
:1055F800D0BFFB6824331846FCF704FA00F0C9BF93
:10560800FB6803F12400BB685B799BB21B029AB26A
:10561800BB689B799BB213449BB21946FCF7C1F94E
:1056280000F0B7BFFB6803F12400BB685B799BB24D
:105638001B029AB2BB689B799BB213449BB2194672
:10564800FCF7BFF900F0A5BFFB6824331846FCF748
:1056580050F900F09EBFFB6824331846FCF75AF94E
:1056680000F097BFFB6803F12400BB685B799BB22D
:105678001B029AB2BB689B799BB213449BB2194632
:10568800FCF707F900F085BFFB6803F12400BB684D
:105698005B799BB21B029AB2BB689B799BB213449D
:1056A8009BB21946FCF705F900F073BFFB6803F1DC
:1056B8002400BB685B799BB21B029AB2BB689B79DA
:1056C8009BB213449BB21946FCF703F900F061BF83
:1056D800FB680022A3F86E20FB6840F6FF72A3F86F
:1056E8006C20FB680022A3F87220FB6840F6FF726A
:1056F800A3F8702000F04DBFF86801F0D9F8FB68F6
:105708001B6818331B680121F86898472F4B022241
:105718005A7000F03EBFFB681B6818331B680021F5
:10572800F8689847294B00225A7000F032BFFB688E
:105738001B6808331B68BA68127992B2120291B2D8
:10574800BA68527992B20A4492B21146F8689847F8
:1057580000F01FBFFB6803F50C70BB689B799BB218
:105768001B029AB2BB68DB799BB213449BB2194601
:1057780002F06FF900F00DBFBB689A78FB6803F57B
:10578800845301331A7000F004BFBB689B78194634
:10579800F868FEF793FA00F0FCBEBB689B781946E0
:1057A800F868FEF745FA00F0F4BEFB6803F50C70E4
:1057B800BB685B791B02BA68927913441946BB68C7
:1057C8001B791A4601F056FF00F0E3BE3C060020A4
:1057D800FB6803F50C72BB681B791946104602F08A
:1057E80055F900F0D6BEFB6803F50C72BB681B794F
:1057F8001946104602F084F900F0CBBEFB6803F5A9
:105808000C72BB681B791946104602F05CF900F06F
:10581800C0BEFB6803F50C72BB681B7919461046BD
:1058280002F08BF9FB6803F50C72BB681B7919460B
:10583800104602F0F1F800F0ACBEFB6803F50C72FC
:10584800BB681B791946104602F094F900F0A1BE16
:10585800FB6803F50C72BB681B791946104602F009
:10586800A6F900F096BEFB6803F5B3531F33012277
:105878001A70FB6803F5B3531F331B789AB2FB68A1
:10588800A3F8822DFB680433184601F029F9034672
:105898009AB2FB68A3F8842DFB680433184601F01C
:1058A80039F903469AB2FB68A3F8862DFB680433DE
:1058B800184601F04AF903461A46FB68A3F8882DF2
:1058C800FB680433184601F05BF903461A46FB6887
:1058D800A3F88A2DFB6803F5FC73184604F02BFE29
:1058E80003463B75FB6803F5FC73184604F056FE47
:1058F8000346FB743B7D1AB2FB7C1B021BB21343AD
:105908001BB29AB2FB68A3F88C2DFB6803F5FC73F5
:10591800184605F0F3F80346BB74BB7C1CB2FB6861
:1059280003F5FC73184605F005F9F0EE407AFCEE35
:10593800E77AC7ED017A3B79DBB21B021BB223433E
:105948001BB29AB2FB68A3F88E2DFB6803F5FC73B3
:10595800184604F08BFF03461CB2FB6803F5FC7382
:10596800184604F0A0FF03461B021BB223431BB2D8
:105978009AB2FB68A3F8902DFB6803F583531A339A
:105988001A88FB68A3F8922DFB6803F50C73184678
:1059980002F06FF803461A46FB68A3F8942DFB68DB
:1059A80003F5835318331B781AB2FB6803F5845345
:1059B80001331B781B021BB213431BB29AB2FB685C
:1059C800A3F8962DFB6803F5845302331B781AB2AB
:1059D800FB6803F585531B781B021BB213431BB2EC
:1059E8009AB2FB68A3F8982DFB68B3F87E2DFB6884
:1059F800A3F89A2DFB6893F8883E9AB2FB68A3F83F
:105A08009C2DFB689A8DFB68A3F89E2DFB68DA8DA8
:105A1800FB68A3F8A02DFB689A8FFB68A3F8A22D5A
:105A2800FB68DA8FFB68A3F8A42DFB681A8EFB6865
:105A3800A3F8A62DFB685A8EFB68A3F8A82DFB686F
:105A48009A8EFB68A3F8AA2DFB68DA8EFB68A3F888
:105A5800AC2DFB681A8FFB68A3F8AE2DFB685A8F34
:105A6800FB68A3F8B02DFB68B3F84020FB68A3F8E7
:105A7800B22DFB68B3F84220FB68A3F8B42DFB688D
:105A8800B3F85020FB68A3F8B62DFB68B3F8522092
:105A9800FB68A3F8B82DFB68B3F84420FB68A3F8AB
:105AA800BA2DFB68B3F84620FB68A3F8BC2DFB6849
:105AB800B3F84820FB68A3F8BE2DFB68B3F84A206A
:105AC800FB68A3F8C02DFB68B3F84C20FB68A3F86B
